{
  "_format": "hh-sol-artifact-1",
  "contractName": "InterfaceRegister",
  "sourceName": "contracts/InterfaceRegister.sol",
  "abi": [
    {
      "inputs": [],
      "stateMutability": "nonpayable",
      "type": "constructor"
    },
    {
      "inputs": [],
      "name": "_INTERFACE_ID_CURRENCIES",
      "outputs": [
        {
          "internalType": "bytes4",
          "name": "",
          "type": "bytes4"
        }
      ],
      "stateMutability": "view",
      "type": "function"
    },
    {
      "inputs": [],
      "name": "_INTERFACE_ID_IERC721",
      "outputs": [
        {
          "internalType": "bytes4",
          "name": "",
          "type": "bytes4"
        }
      ],
      "stateMutability": "view",
      "type": "function"
    },
    {
      "inputs": [],
      "name": "_INTERFACE_ID_IERC721ENUMERABLE",
      "outputs": [
        {
          "internalType": "bytes4",
          "name": "",
          "type": "bytes4"
        }
      ],
      "stateMutability": "view",
      "type": "function"
    },
    {
      "inputs": [],
      "name": "_INTERFACE_ID_IERC721METADATA",
      "outputs": [
        {
          "internalType": "bytes4",
          "name": "",
          "type": "bytes4"
        }
      ],
      "stateMutability": "view",
      "type": "function"
    },
    {
      "inputs": [],
      "name": "_INTERFACE_ID_IERC721URISTORAGE",
      "outputs": [
        {
          "internalType": "bytes4",
          "name": "",
          "type": "bytes4"
        }
      ],
      "stateMutability": "view",
      "type": "function"
    },
    {
      "inputs": [],
      "name": "_INTERFACE_ID_META_MARKETPLACE",
      "outputs": [
        {
          "internalType": "bytes4",
          "name": "",
          "type": "bytes4"
        }
      ],
      "stateMutability": "view",
      "type": "function"
    },
    {
      "inputs": [],
      "name": "_INTERFACE_ID_MSNFT",
      "outputs": [
        {
          "internalType": "bytes4",
          "name": "",
          "type": "bytes4"
        }
      ],
      "stateMutability": "view",
      "type": "function"
    },
    {
      "inputs": [],
      "name": "_INTERFACE_ID_TOKEN_SALE",
      "outputs": [
        {
          "internalType": "bytes4",
          "name": "",
          "type": "bytes4"
        }
      ],
      "stateMutability": "view",
      "type": "function"
    },
    {
      "inputs": [],
      "name": "calculateCurrenciesERC20",
      "outputs": [
        {
          "internalType": "bytes4",
          "name": "",
          "type": "bytes4"
        }
      ],
      "stateMutability": "pure",
      "type": "function"
    },
    {
      "inputs": [],
      "name": "calculateIERC721",
      "outputs": [
        {
          "internalType": "bytes4",
          "name": "",
          "type": "bytes4"
        }
      ],
      "stateMutability": "pure",
      "type": "function"
    },
    {
      "inputs": [],
      "name": "calculateIERC721Enumarable",
      "outputs": [
        {
          "internalType": "bytes4",
          "name": "",
          "type": "bytes4"
        }
      ],
      "stateMutability": "pure",
      "type": "function"
    },
    {
      "inputs": [],
      "name": "calculateIERC721Metadata",
      "outputs": [
        {
          "internalType": "bytes4",
          "name": "",
          "type": "bytes4"
        }
      ],
      "stateMutability": "pure",
      "type": "function"
    },
    {
      "inputs": [],
      "name": "calculateIERC721URIStorage",
      "outputs": [
        {
          "internalType": "bytes4",
          "name": "",
          "type": "bytes4"
        }
      ],
      "stateMutability": "pure",
      "type": "function"
    },
    {
      "inputs": [],
      "name": "calculateMSNFT",
      "outputs": [
        {
          "internalType": "bytes4",
          "name": "",
          "type": "bytes4"
        }
      ],
      "stateMutability": "pure",
      "type": "function"
    },
    {
      "inputs": [],
      "name": "calculateMetaMarketplace",
      "outputs": [
        {
          "internalType": "bytes4",
          "name": "",
          "type": "bytes4"
        }
      ],
      "stateMutability": "pure",
      "type": "function"
    },
    {
      "inputs": [],
      "name": "calculateTokenSaleSingleton",
      "outputs": [
        {
          "internalType": "bytes4",
          "name": "",
          "type": "bytes4"
        }
      ],
      "stateMutability": "pure",
      "type": "function"
    },
    {
      "inputs": [],
      "name": "getInterface721",
      "outputs": [
        {
          "internalType": "bytes4",
          "name": "",
          "type": "bytes4"
        }
      ],
      "stateMutability": "view",
      "type": "function"
    },
    {
      "inputs": [],
      "name": "getInterfaceCurrenciesERC20",
      "outputs": [
        {
          "internalType": "bytes4",
          "name": "",
          "type": "bytes4"
        }
      ],
      "stateMutability": "view",
      "type": "function"
    },
    {
      "inputs": [],
      "name": "getInterfaceEnumerable",
      "outputs": [
        {
          "internalType": "bytes4",
          "name": "",
          "type": "bytes4"
        }
      ],
      "stateMutability": "view",
      "type": "function"
    },
    {
      "inputs": [],
      "name": "getInterfaceMSNFT",
      "outputs": [
        {
          "internalType": "bytes4",
          "name": "",
          "type": "bytes4"
        }
      ],
      "stateMutability": "view",
      "type": "function"
    },
    {
      "inputs": [],
      "name": "getInterfaceMetaMarketplace",
      "outputs": [
        {
          "internalType": "bytes4",
          "name": "",
          "type": "bytes4"
        }
      ],
      "stateMutability": "view",
      "type": "function"
    },
    {
      "inputs": [],
      "name": "getInterfaceMetadata",
      "outputs": [
        {
          "internalType": "bytes4",
          "name": "",
          "type": "bytes4"
        }
      ],
      "stateMutability": "view",
      "type": "function"
    },
    {
      "inputs": [],
      "name": "getInterfaceTokenSaleSingleton",
      "outputs": [
        {
          "internalType": "bytes4",
          "name": "",
          "type": "bytes4"
        }
      ],
      "stateMutability": "view",
      "type": "function"
    }
  ],
  "bytecode": "0x60806040523480156200001157600080fd5b50620000226200017f60201b60201c565b600060106101000a81548163ffffffff021916908360e01c02179055506200004f620001a260201b60201c565b600060146101000a81548163ffffffff021916908360e01c02179055506200007c620001c560201b60201c565b6000601c6101000a81548163ffffffff021916908360e01c0217905550620000a96200033e60201b60201c565b600060186101000a81548163ffffffff021916908360e01c0217905550620000d66200047660201b60201c565b6000806101000a81548163ffffffff021916908360e01c0217905550620001026200070260201b60201c565b600060046101000a81548163ffffffff021916908360e01c02179055506200012f6200081860201b60201c565b600060086101000a81548163ffffffff021916908360e01c02179055506200015c6200086260201b60201c565b6000600c6101000a81548163ffffffff021916908360e01c021790555062000a22565b600080634f6ccce760e01b632f745c5960e01b6318160ddd60e01b181891505090565b60008063c87b56dd60e01b6395d89b4160e01b6306fdde0360e01b181891505090565b60007fc87b56dda752230262935940d907f047a9f86bb5ee6aa33511fc86db33fea6cc7bffffffffffffffffffffffffffffffffffffffffffffffffffffffff19167fb88d4fde60196325a28bb7f99a2582e0b46de55b18761e960c14ad7a32099465187f42842e0eb38857a7775b4e7364b2775df7325074d088e7fb39590cd6281184ed7f23b872dd7302113369cda2901243429419bec145408fa8b352b3dd92b66c680b7fe985e9c5c6636c6879256001057b28ccac7718ef0ac56553ff9b926452cab8a37fa22cb4651ab9570f89bb516380c40ce76762284fb1f21337ceaf6adab99e7d4a7f081812fc55e34fdc7cf5d8b5cf4e3621fa6423fde952ec6ab24afdc0d85c0b2e7f095ea7b334ae44009aa867bfb386f5c3b4b443ac6f0ee573fa91c4608fbadfba7f6352211e6566aa027e75ac9dbf2423197fbd9b82b9d981a3ab367d355866aa1c7f70a08231b98ef4ca268c9cc3f6b4590e4bfec28280db06bb5d45e689f2a360be1818181818181818905090565b60007fb88d4fde60196325a28bb7f99a2582e0b46de55b18761e960c14ad7a320994657f42842e0eb38857a7775b4e7364b2775df7325074d088e7fb39590cd6281184ed7f23b872dd7302113369cda2901243429419bec145408fa8b352b3dd92b66c680b7fe985e9c5c6636c6879256001057b28ccac7718ef0ac56553ff9b926452cab8a37fa22cb4651ab9570f89bb516380c40ce76762284fb1f21337ceaf6adab99e7d4a7f081812fc55e34fdc7cf5d8b5cf4e3621fa6423fde952ec6ab24afdc0d85c0b2e7f095ea7b334ae44009aa867bfb386f5c3b4b443ac6f0ee573fa91c4608fbadfba7f6352211e6566aa027e75ac9dbf2423197fbd9b82b9d981a3ab367d355866aa1c7f70a08231b98ef4ca268c9cc3f6b4590e4bfec28280db06bb5d45e689f2a360be1818181818181818905090565b60007f01ffc9a7a5cef8baa21ed3c5c0d7e23accb804b619e9333b597f47a0d84076e27fa9c2e36c7ce8108af1c569e707d0e34a32dc70e8dea2b72d6eacea8fa190369e7f551ee5708a56a4f75048e3538bd1989ee4d3df01ecc228f9c7f3910d58d69e727f31cfac845529c480e20d0635017758f2ef653848f25b2cc9b207e588d3d71f0f7fc0036eb3a7fac75e325ae441e4f75882099f33ae524a5d4a86aff4528fddc95c7f02412ee17055bded517d780a351d7c59b2aaffd0e865a167244e4fb5579bdb6a7f132787e9b7a663d85eead18deebb19f37d247b484a4a717eaf621453a500a47f7f5ef2a5b58633d6bec8248cb7f6878480c90dd2a13657887c8c57ac27a1c3eb9b7f0e304d887d47c2fce9409d38ee7c04767bbb64b0f7ab01790b57cb46d77d27a17f9e004ba89285d4100397ff4dcbd4ce2cdceba57b58d0c15cafb2d7a967a6908b7fb88d4fde60196325a28bb7f99a2582e0b46de55b18761e960c14ad7a320994657f42842e0eb38857a7775b4e7364b2775df7325074d088e7fb39590cd6281184ed7f23b872dd7302113369cda2901243429419bec145408fa8b352b3dd92b66c680b7fa21abcda8013abf85cb5bd1cfeeac68775914b068ccfd82b0d195eef8fa245a07ff6b45c469367c55741244840717501aa08da90b60c32b2d5f6edf91b97280c027f45ec177b9784d241dd14ea3901be6b412a4d0b1f8be5d29b5896c71dd8bc20177f239e1d7213a9ebab407c558949a45a1d1e240a1f5071f7b5ded30cc867783cee7ff1d121c1f5b3cacd0e4814e1cbaf617a4659223ea34478f64b48876170e3edc47f94ff3accebba79411d9a31c0fb0bfe26fd72c6a5a149bd5c2eff9243fd1641f3181818181818181818181818181818181818905090565b60007f26af03d669d43d974f4fb8d2f5d09c4ad870ae1f847ef61717e98226f4cf2d407f4015af49e2a9d21b19b1397e9c2ea346e238685556b1587c8a6ebe02e5d853d97fc7486aa8a3ab7dc219366bd4b239bb1c07f9928b5cc47bde7a943f68cf72def07fe986c53db644fbeb209222404c2a78335d0c03f57373ad285fc0ef528117899c7f75b2bf61d107e1348a37494f5d8694cc9c7fcd3714a1b8041695f59905d007a37f64f16cda2cea3ac8e45b110d4cf6211b345d285f72ec5c0482a588eaed0aeeab7f0e079c4d8e7ac371f584599243a190051327a77b41fdb54bbfac15a887146b6d7fc2bcc5ebf1f322ab743a58dcfe58e8734c4316923e30845c588be042a3d88bc718181818181818905090565b60007feb2eb3655f85e325359cdf1c71ced3324499bfe44aefb72181ae41ad421208e57fe81485d8b2eaa681c007b4d17e4531957d4a2938ffea0e7e44540e103d14eb2e18905090565b60007f93b95fa37e2b504d9f042b44dcc52cc6347296d3da90d1a2cb2e3ceb3d28f8737f56d9540ce37fbb8341334c8af1dc5cfacfaa658b18311ed2d73f4a83ffe7fa407fdff5b8c20fa3793c2cd19344e5256cb6b4f8d98ba36f2086edeec7475f9ec1ed7f6635c8934fe5741a0f5a494f722d8a8e70e1062c2db82b2d918ff3d83d5bc22a7f8a24be7b1951a9b9325e4e558462e2d24dc6b227fdd9120bf64189016236f4527f2938bb9ed87f9e9caabff06e6863f35e7988e8398bbb319528e672ffae1461bf7f0c7cf859f43ac850b3b07f46cb048c25b406fe32430e6165b399803f2914b4527fd9a845d8344727f86915daeac0e80ed5785bbb96c2e9f78d4a28ff1c6393ab137fcac643667ae643a191db8d029df6b45b7dadc1ff158e4ca000bd244690a8dec97fd87ddf26e21bfe53875b57d29a8ff0f178e0ad5f0343d4eb4aef1537f94466327fac5e35ffa27d495d14e90f49fc2221593eb1ec540ba770607a778c50112f228c7fa2781335c8f5069f815690a3196bd1c17b9d958fcf277a5228e39fb275b6ccfb7ffc0c546a8dce9d6e9b97c086302918c9106d97a17809f6bcacfe02124763cb39181818181818181818181818905090565b610e638062000a326000396000f3fe608060405234801561001057600080fd5b506004361061014d5760003560e01c806349a2ddf4116100c3578063a43186d41161007c578063a43186d414610350578063b4ba4fe71461036e578063b567a20d1461038c578063b90f4f14146103aa578063c43ade14146103c8578063fd0320a1146103e65761014d565b806349a2ddf41461029c57806358ba1fe4146102ba5780637f820e3c146102d857806383f0ba1d146102f6578063999f523c146103145780639ec1221b146103325761014d565b806322a721ca1161011557806322a721ca146101e857806328d05c0314610206578063397be6b5146102245780633991f069146102425780633da4e6b8146102605780634352b9621461027e5761014d565b806302923d2614610152578063034ac03914610170578063038f48b61461018e57806305b9138e146101ac57806306dfd115146101ca575b600080fd5b61015a610404565b6040516101679190610de6565b60405180910390f35b61017861041a565b6040516101859190610de6565b60405180910390f35b610196610430565b6040516101a39190610de6565b60405180910390f35b6101b4610446565b6040516101c19190610de6565b60405180910390f35b6101d261057e565b6040516101df9190610de6565b60405180910390f35b6101f061073e565b6040516101fd9190610de6565b60405180910390f35b61020e6109ca565b60405161021b9190610de6565b60405180910390f35b61022c6109dd565b6040516102399190610de6565b60405180910390f35b61024a6109f3565b6040516102579190610de6565b60405180910390f35b610268610a16565b6040516102759190610de6565b60405180910390f35b610286610a39565b6040516102939190610de6565b60405180910390f35b6102a4610a4c565b6040516102b19190610de6565b60405180910390f35b6102c2610a62565b6040516102cf9190610de6565b60405180910390f35b6102e0610a75565b6040516102ed9190610de6565b60405180910390f35b6102fe610a88565b60405161030b9190610de6565b60405180910390f35b61031c610a9e565b6040516103299190610de6565b60405180910390f35b61033a610aaf565b6040516103479190610de6565b60405180910390f35b610358610bc5565b6040516103659190610de6565b60405180910390f35b610376610d3e565b6040516103839190610de6565b60405180910390f35b610394610d54565b6040516103a19190610de6565b60405180910390f35b6103b2610d9e565b6040516103bf9190610de6565b60405180910390f35b6103d0610db1565b6040516103dd9190610de6565b60405180910390f35b6103ee610dc4565b6040516103fb9190610de6565b60405180910390f35b600080600c9054906101000a900460e01b905090565b60008060009054906101000a900460e01b905090565b60008060149054906101000a900460e01b905090565b60007fb88d4fde60196325a28bb7f99a2582e0b46de55b18761e960c14ad7a320994657f42842e0eb38857a7775b4e7364b2775df7325074d088e7fb39590cd6281184ed7f23b872dd7302113369cda2901243429419bec145408fa8b352b3dd92b66c680b7fe985e9c5c6636c6879256001057b28ccac7718ef0ac56553ff9b926452cab8a37fa22cb4651ab9570f89bb516380c40ce76762284fb1f21337ceaf6adab99e7d4a7f081812fc55e34fdc7cf5d8b5cf4e3621fa6423fde952ec6ab24afdc0d85c0b2e7f095ea7b334ae44009aa867bfb386f5c3b4b443ac6f0ee573fa91c4608fbadfba7f6352211e6566aa027e75ac9dbf2423197fbd9b82b9d981a3ab367d355866aa1c7f70a08231b98ef4ca268c9cc3f6b4590e4bfec28280db06bb5d45e689f2a360be1818181818181818905090565b60007f93b95fa37e2b504d9f042b44dcc52cc6347296d3da90d1a2cb2e3ceb3d28f8737f56d9540ce37fbb8341334c8af1dc5cfacfaa658b18311ed2d73f4a83ffe7fa407fdff5b8c20fa3793c2cd19344e5256cb6b4f8d98ba36f2086edeec7475f9ec1ed7f6635c8934fe5741a0f5a494f722d8a8e70e1062c2db82b2d918ff3d83d5bc22a7f8a24be7b1951a9b9325e4e558462e2d24dc6b227fdd9120bf64189016236f4527f2938bb9ed87f9e9caabff06e6863f35e7988e8398bbb319528e672ffae1461bf7f0c7cf859f43ac850b3b07f46cb048c25b406fe32430e6165b399803f2914b4527fd9a845d8344727f86915daeac0e80ed5785bbb96c2e9f78d4a28ff1c6393ab137fcac643667ae643a191db8d029df6b45b7dadc1ff158e4ca000bd244690a8dec97fd87ddf26e21bfe53875b57d29a8ff0f178e0ad5f0343d4eb4aef1537f94466327fac5e35ffa27d495d14e90f49fc2221593eb1ec540ba770607a778c50112f228c7fa2781335c8f5069f815690a3196bd1c17b9d958fcf277a5228e39fb275b6ccfb7ffc0c546a8dce9d6e9b97c086302918c9106d97a17809f6bcacfe02124763cb39181818181818181818181818905090565b60007f01ffc9a7a5cef8baa21ed3c5c0d7e23accb804b619e9333b597f47a0d84076e27fa9c2e36c7ce8108af1c569e707d0e34a32dc70e8dea2b72d6eacea8fa190369e7f551ee5708a56a4f75048e3538bd1989ee4d3df01ecc228f9c7f3910d58d69e727f31cfac845529c480e20d0635017758f2ef653848f25b2cc9b207e588d3d71f0f7fc0036eb3a7fac75e325ae441e4f75882099f33ae524a5d4a86aff4528fddc95c7f02412ee17055bded517d780a351d7c59b2aaffd0e865a167244e4fb5579bdb6a7f132787e9b7a663d85eead18deebb19f37d247b484a4a717eaf621453a500a47f7f5ef2a5b58633d6bec8248cb7f6878480c90dd2a13657887c8c57ac27a1c3eb9b7f0e304d887d47c2fce9409d38ee7c04767bbb64b0f7ab01790b57cb46d77d27a17f9e004ba89285d4100397ff4dcbd4ce2cdceba57b58d0c15cafb2d7a967a6908b7fb88d4fde60196325a28bb7f99a2582e0b46de55b18761e960c14ad7a320994657f42842e0eb38857a7775b4e7364b2775df7325074d088e7fb39590cd6281184ed7f23b872dd7302113369cda2901243429419bec145408fa8b352b3dd92b66c680b7fa21abcda8013abf85cb5bd1cfeeac68775914b068ccfd82b0d195eef8fa245a07ff6b45c469367c55741244840717501aa08da90b60c32b2d5f6edf91b97280c027f45ec177b9784d241dd14ea3901be6b412a4d0b1f8be5d29b5896c71dd8bc20177f239e1d7213a9ebab407c558949a45a1d1e240a1f5071f7b5ded30cc867783cee7ff1d121c1f5b3cacd0e4814e1cbaf617a4659223ea34478f64b48876170e3edc47f94ff3accebba79411d9a31c0fb0bfe26fd72c6a5a149bd5c2eff9243fd1641f3181818181818181818181818181818181818905090565b600060149054906101000a900460e01b81565b60008060089054906101000a900460e01b905090565b600080634f6ccce760e01b632f745c5960e01b6318160ddd60e01b181891505090565b60008063c87b56dd60e01b6395d89b4160e01b6306fdde0360e01b181891505090565b600060089054906101000a900460e01b81565b60008060189054906101000a900460e01b905090565b600060189054906101000a900460e01b81565b600060049054906101000a900460e01b81565b60008060109054906101000a900460e01b905090565b60008054906101000a900460e01b81565b60007f26af03d669d43d974f4fb8d2f5d09c4ad870ae1f847ef61717e98226f4cf2d407f4015af49e2a9d21b19b1397e9c2ea346e238685556b1587c8a6ebe02e5d853d97fc7486aa8a3ab7dc219366bd4b239bb1c07f9928b5cc47bde7a943f68cf72def07fe986c53db644fbeb209222404c2a78335d0c03f57373ad285fc0ef528117899c7f75b2bf61d107e1348a37494f5d8694cc9c7fcd3714a1b8041695f59905d007a37f64f16cda2cea3ac8e45b110d4cf6211b345d285f72ec5c0482a588eaed0aeeab7f0e079c4d8e7ac371f584599243a190051327a77b41fdb54bbfac15a887146b6d7fc2bcc5ebf1f322ab743a58dcfe58e8734c4316923e30845c588be042a3d88bc718181818181818905090565b60007fc87b56dda752230262935940d907f047a9f86bb5ee6aa33511fc86db33fea6cc7bffffffffffffffffffffffffffffffffffffffffffffffffffffffff19167fb88d4fde60196325a28bb7f99a2582e0b46de55b18761e960c14ad7a32099465187f42842e0eb38857a7775b4e7364b2775df7325074d088e7fb39590cd6281184ed7f23b872dd7302113369cda2901243429419bec145408fa8b352b3dd92b66c680b7fe985e9c5c6636c6879256001057b28ccac7718ef0ac56553ff9b926452cab8a37fa22cb4651ab9570f89bb516380c40ce76762284fb1f21337ceaf6adab99e7d4a7f081812fc55e34fdc7cf5d8b5cf4e3621fa6423fde952ec6ab24afdc0d85c0b2e7f095ea7b334ae44009aa867bfb386f5c3b4b443ac6f0ee573fa91c4608fbadfba7f6352211e6566aa027e75ac9dbf2423197fbd9b82b9d981a3ab367d355866aa1c7f70a08231b98ef4ca268c9cc3f6b4590e4bfec28280db06bb5d45e689f2a360be1818181818181818905090565b60008060049054906101000a900460e01b905090565b60007feb2eb3655f85e325359cdf1c71ced3324499bfe44aefb72181ae41ad421208e57fe81485d8b2eaa681c007b4d17e4531957d4a2938ffea0e7e44540e103d14eb2e18905090565b600060109054906101000a900460e01b81565b6000600c9054906101000a900460e01b81565b6000601c9054906101000a900460e01b81565b610de081610e01565b82525050565b6000602082019050610dfb6000830184610dd7565b92915050565b60007fffffffff000000000000000000000000000000000000000000000000000000008216905091905056fea2646970667358221220454b80e3b332c2af4b151779814654667b3a31c916fa011432839dc2ed3f1c3d64736f6c63430008040033",
  "linkReferences": {},
  "deployedLinkReferences": {}
}