{"contracts/InterfaceRegister.sol":{"InterfaceRegister":{"abi":[{"inputs":[],"stateMutability":"nonpayable","type":"constructor"},{"inputs":[],"name":"_INTERFACE_ID_CURRENCIES","outputs":[{"internalType":"bytes4","name":"","type":"bytes4"}],"stateMutability":"view","type":"function"},{"inputs":[],"name":"_INTERFACE_ID_IERC721","outputs":[{"internalType":"bytes4","name":"","type":"bytes4"}],"stateMutability":"view","type":"function"},{"inputs":[],"name":"_INTERFACE_ID_IERC721ENUMERABLE","outputs":[{"internalType":"bytes4","name":"","type":"bytes4"}],"stateMutability":"view","type":"function"},{"inputs":[],"name":"_INTERFACE_ID_IERC721METADATA","outputs":[{"internalType":"bytes4","name":"","type":"bytes4"}],"stateMutability":"view","type":"function"},{"inputs":[],"name":"_INTERFACE_ID_IERC721URISTORAGE","outputs":[{"internalType":"bytes4","name":"","type":"bytes4"}],"stateMutability":"view","type":"function"},{"inputs":[],"name":"_INTERFACE_ID_META_MARKETPLACE","outputs":[{"internalType":"bytes4","name":"","type":"bytes4"}],"stateMutability":"view","type":"function"},{"inputs":[],"name":"_INTERFACE_ID_MSNFT","outputs":[{"internalType":"bytes4","name":"","type":"bytes4"}],"stateMutability":"view","type":"function"},{"inputs":[],"name":"_INTERFACE_ID_TOKEN_SALE","outputs":[{"internalType":"bytes4","name":"","type":"bytes4"}],"stateMutability":"view","type":"function"},{"inputs":[],"name":"calculateCurrenciesERC20","outputs":[{"internalType":"bytes4","name":"","type":"bytes4"}],"stateMutability":"pure","type":"function"},{"inputs":[],"name":"calculateIERC721","outputs":[{"internalType":"bytes4","name":"","type":"bytes4"}],"stateMutability":"pure","type":"function"},{"inputs":[],"name":"calculateIERC721Enumarable","outputs":[{"internalType":"bytes4","name":"","type":"bytes4"}],"stateMutability":"pure","type":"function"},{"inputs":[],"name":"calculateIERC721Metadata","outputs":[{"internalType":"bytes4","name":"","type":"bytes4"}],"stateMutability":"pure","type":"function"},{"inputs":[],"name":"calculateIERC721URIStorage","outputs":[{"internalType":"bytes4","name":"","type":"bytes4"}],"stateMutability":"pure","type":"function"},{"inputs":[],"name":"calculateMSNFT","outputs":[{"internalType":"bytes4","name":"","type":"bytes4"}],"stateMutability":"pure","type":"function"},{"inputs":[],"name":"calculateMetaMarketplace","outputs":[{"internalType":"bytes4","name":"","type":"bytes4"}],"stateMutability":"pure","type":"function"},{"inputs":[],"name":"calculateTokenSaleSingleton","outputs":[{"internalType":"bytes4","name":"","type":"bytes4"}],"stateMutability":"pure","type":"function"},{"inputs":[],"name":"getInterface721","outputs":[{"internalType":"bytes4","name":"","type":"bytes4"}],"stateMutability":"view","type":"function"},{"inputs":[],"name":"getInterfaceCurrenciesERC20","outputs":[{"internalType":"bytes4","name":"","type":"bytes4"}],"stateMutability":"view","type":"function"},{"inputs":[],"name":"getInterfaceEnumerable","outputs":[{"internalType":"bytes4","name":"","type":"bytes4"}],"stateMutability":"view","type":"function"},{"inputs":[],"name":"getInterfaceMSNFT","outputs":[{"internalType":"bytes4","name":"","type":"bytes4"}],"stateMutability":"view","type":"function"},{"inputs":[],"name":"getInterfaceMetaMarketplace","outputs":[{"internalType":"bytes4","name":"","type":"bytes4"}],"stateMutability":"view","type":"function"},{"inputs":[],"name":"getInterfaceMetadata","outputs":[{"internalType":"bytes4","name":"","type":"bytes4"}],"stateMutability":"view","type":"function"},{"inputs":[],"name":"getInterfaceTokenSaleSingleton","outputs":[{"internalType":"bytes4","name":"","type":"bytes4"}],"stateMutability":"view","type":"function"}],"evm":{"bytecode":{"linkReferences":{},"object":"60806040523480156200001157600080fd5b50620000226200017f60201b60201c565b600060106101000a81548163ffffffff021916908360e01c02179055506200004f620001a260201b60201c565b600060146101000a81548163ffffffff021916908360e01c02179055506200007c620001c560201b60201c565b6000601c6101000a81548163ffffffff021916908360e01c0217905550620000a96200033e60201b60201c565b600060186101000a81548163ffffffff021916908360e01c0217905550620000d66200047660201b60201c565b6000806101000a81548163ffffffff021916908360e01c0217905550620001026200070260201b60201c565b600060046101000a81548163ffffffff021916908360e01c02179055506200012f6200081860201b60201c565b600060086101000a81548163ffffffff021916908360e01c02179055506200015c6200086260201b60201c565b6000600c6101000a81548163ffffffff021916908360e01c021790555062000a22565b600080634f6ccce760e01b632f745c5960e01b6318160ddd60e01b181891505090565b60008063c87b56dd60e01b6395d89b4160e01b6306fdde0360e01b181891505090565b60007fc87b56dda752230262935940d907f047a9f86bb5ee6aa33511fc86db33fea6cc7bffffffffffffffffffffffffffffffffffffffffffffffffffffffff19167fb88d4fde60196325a28bb7f99a2582e0b46de55b18761e960c14ad7a32099465187f42842e0eb38857a7775b4e7364b2775df7325074d088e7fb39590cd6281184ed7f23b872dd7302113369cda2901243429419bec145408fa8b352b3dd92b66c680b7fe985e9c5c6636c6879256001057b28ccac7718ef0ac56553ff9b926452cab8a37fa22cb4651ab9570f89bb516380c40ce76762284fb1f21337ceaf6adab99e7d4a7f081812fc55e34fdc7cf5d8b5cf4e3621fa6423fde952ec6ab24afdc0d85c0b2e7f095ea7b334ae44009aa867bfb386f5c3b4b443ac6f0ee573fa91c4608fbadfba7f6352211e6566aa027e75ac9dbf2423197fbd9b82b9d981a3ab367d355866aa1c7f70a08231b98ef4ca268c9cc3f6b4590e4bfec28280db06bb5d45e689f2a360be1818181818181818905090565b60007fb88d4fde60196325a28bb7f99a2582e0b46de55b18761e960c14ad7a320994657f42842e0eb38857a7775b4e7364b2775df7325074d088e7fb39590cd6281184ed7f23b872dd7302113369cda2901243429419bec145408fa8b352b3dd92b66c680b7fe985e9c5c6636c6879256001057b28ccac7718ef0ac56553ff9b926452cab8a37fa22cb4651ab9570f89bb516380c40ce76762284fb1f21337ceaf6adab99e7d4a7f081812fc55e34fdc7cf5d8b5cf4e3621fa6423fde952ec6ab24afdc0d85c0b2e7f095ea7b334ae44009aa867bfb386f5c3b4b443ac6f0ee573fa91c4608fbadfba7f6352211e6566aa027e75ac9dbf2423197fbd9b82b9d981a3ab367d355866aa1c7f70a08231b98ef4ca268c9cc3f6b4590e4bfec28280db06bb5d45e689f2a360be1818181818181818905090565b60007f01ffc9a7a5cef8baa21ed3c5c0d7e23accb804b619e9333b597f47a0d84076e27fa9c2e36c7ce8108af1c569e707d0e34a32dc70e8dea2b72d6eacea8fa190369e7f551ee5708a56a4f75048e3538bd1989ee4d3df01ecc228f9c7f3910d58d69e727f31cfac845529c480e20d0635017758f2ef653848f25b2cc9b207e588d3d71f0f7fc0036eb3a7fac75e325ae441e4f75882099f33ae524a5d4a86aff4528fddc95c7f02412ee17055bded517d780a351d7c59b2aaffd0e865a167244e4fb5579bdb6a7f132787e9b7a663d85eead18deebb19f37d247b484a4a717eaf621453a500a47f7f5ef2a5b58633d6bec8248cb7f6878480c90dd2a13657887c8c57ac27a1c3eb9b7f0e304d887d47c2fce9409d38ee7c04767bbb64b0f7ab01790b57cb46d77d27a17f9e004ba89285d4100397ff4dcbd4ce2cdceba57b58d0c15cafb2d7a967a6908b7fb88d4fde60196325a28bb7f99a2582e0b46de55b18761e960c14ad7a320994657f42842e0eb38857a7775b4e7364b2775df7325074d088e7fb39590cd6281184ed7f23b872dd7302113369cda2901243429419bec145408fa8b352b3dd92b66c680b7fa21abcda8013abf85cb5bd1cfeeac68775914b068ccfd82b0d195eef8fa245a07ff6b45c469367c55741244840717501aa08da90b60c32b2d5f6edf91b97280c027f45ec177b9784d241dd14ea3901be6b412a4d0b1f8be5d29b5896c71dd8bc20177f239e1d7213a9ebab407c558949a45a1d1e240a1f5071f7b5ded30cc867783cee7ff1d121c1f5b3cacd0e4814e1cbaf617a4659223ea34478f64b48876170e3edc47f94ff3accebba79411d9a31c0fb0bfe26fd72c6a5a149bd5c2eff9243fd1641f3181818181818181818181818181818181818905090565b60007f26af03d669d43d974f4fb8d2f5d09c4ad870ae1f847ef61717e98226f4cf2d407f4015af49e2a9d21b19b1397e9c2ea346e238685556b1587c8a6ebe02e5d853d97fc7486aa8a3ab7dc219366bd4b239bb1c07f9928b5cc47bde7a943f68cf72def07fe986c53db644fbeb209222404c2a78335d0c03f57373ad285fc0ef528117899c7f75b2bf61d107e1348a37494f5d8694cc9c7fcd3714a1b8041695f59905d007a37f64f16cda2cea3ac8e45b110d4cf6211b345d285f72ec5c0482a588eaed0aeeab7f0e079c4d8e7ac371f584599243a190051327a77b41fdb54bbfac15a887146b6d7fc2bcc5ebf1f322ab743a58dcfe58e8734c4316923e30845c588be042a3d88bc718181818181818905090565b60007feb2eb3655f85e325359cdf1c71ced3324499bfe44aefb72181ae41ad421208e57fe81485d8b2eaa681c007b4d17e4531957d4a2938ffea0e7e44540e103d14eb2e18905090565b60007f93b95fa37e2b504d9f042b44dcc52cc6347296d3da90d1a2cb2e3ceb3d28f8737f56d9540ce37fbb8341334c8af1dc5cfacfaa658b18311ed2d73f4a83ffe7fa407fdff5b8c20fa3793c2cd19344e5256cb6b4f8d98ba36f2086edeec7475f9ec1ed7f6635c8934fe5741a0f5a494f722d8a8e70e1062c2db82b2d918ff3d83d5bc22a7f8a24be7b1951a9b9325e4e558462e2d24dc6b227fdd9120bf64189016236f4527f2938bb9ed87f9e9caabff06e6863f35e7988e8398bbb319528e672ffae1461bf7f0c7cf859f43ac850b3b07f46cb048c25b406fe32430e6165b399803f2914b4527fd9a845d8344727f86915daeac0e80ed5785bbb96c2e9f78d4a28ff1c6393ab137fcac643667ae643a191db8d029df6b45b7dadc1ff158e4ca000bd244690a8dec97fd87ddf26e21bfe53875b57d29a8ff0f178e0ad5f0343d4eb4aef1537f94466327fac5e35ffa27d495d14e90f49fc2221593eb1ec540ba770607a778c50112f228c7fa2781335c8f5069f815690a3196bd1c17b9d958fcf277a5228e39fb275b6ccfb7ffc0c546a8dce9d6e9b97c086302918c9106d97a17809f6bcacfe02124763cb39181818181818181818181818905090565b610e638062000a326000396000f3fe608060405234801561001057600080fd5b506004361061014d5760003560e01c806349a2ddf4116100c3578063a43186d41161007c578063a43186d414610350578063b4ba4fe71461036e578063b567a20d1461038c578063b90f4f14146103aa578063c43ade14146103c8578063fd0320a1146103e65761014d565b806349a2ddf41461029c57806358ba1fe4146102ba5780637f820e3c146102d857806383f0ba1d146102f6578063999f523c146103145780639ec1221b146103325761014d565b806322a721ca1161011557806322a721ca146101e857806328d05c0314610206578063397be6b5146102245780633991f069146102425780633da4e6b8146102605780634352b9621461027e5761014d565b806302923d2614610152578063034ac03914610170578063038f48b61461018e57806305b9138e146101ac57806306dfd115146101ca575b600080fd5b61015a610404565b6040516101679190610de6565b60405180910390f35b61017861041a565b6040516101859190610de6565b60405180910390f35b610196610430565b6040516101a39190610de6565b60405180910390f35b6101b4610446565b6040516101c19190610de6565b60405180910390f35b6101d261057e565b6040516101df9190610de6565b60405180910390f35b6101f061073e565b6040516101fd9190610de6565b60405180910390f35b61020e6109ca565b60405161021b9190610de6565b60405180910390f35b61022c6109dd565b6040516102399190610de6565b60405180910390f35b61024a6109f3565b6040516102579190610de6565b60405180910390f35b610268610a16565b6040516102759190610de6565b60405180910390f35b610286610a39565b6040516102939190610de6565b60405180910390f35b6102a4610a4c565b6040516102b19190610de6565b60405180910390f35b6102c2610a62565b6040516102cf9190610de6565b60405180910390f35b6102e0610a75565b6040516102ed9190610de6565b60405180910390f35b6102fe610a88565b60405161030b9190610de6565b60405180910390f35b61031c610a9e565b6040516103299190610de6565b60405180910390f35b61033a610aaf565b6040516103479190610de6565b60405180910390f35b610358610bc5565b6040516103659190610de6565b60405180910390f35b610376610d3e565b6040516103839190610de6565b60405180910390f35b610394610d54565b6040516103a19190610de6565b60405180910390f35b6103b2610d9e565b6040516103bf9190610de6565b60405180910390f35b6103d0610db1565b6040516103dd9190610de6565b60405180910390f35b6103ee610dc4565b6040516103fb9190610de6565b60405180910390f35b600080600c9054906101000a900460e01b905090565b60008060009054906101000a900460e01b905090565b60008060149054906101000a900460e01b905090565b60007fb88d4fde60196325a28bb7f99a2582e0b46de55b18761e960c14ad7a320994657f42842e0eb38857a7775b4e7364b2775df7325074d088e7fb39590cd6281184ed7f23b872dd7302113369cda2901243429419bec145408fa8b352b3dd92b66c680b7fe985e9c5c6636c6879256001057b28ccac7718ef0ac56553ff9b926452cab8a37fa22cb4651ab9570f89bb516380c40ce76762284fb1f21337ceaf6adab99e7d4a7f081812fc55e34fdc7cf5d8b5cf4e3621fa6423fde952ec6ab24afdc0d85c0b2e7f095ea7b334ae44009aa867bfb386f5c3b4b443ac6f0ee573fa91c4608fbadfba7f6352211e6566aa027e75ac9dbf2423197fbd9b82b9d981a3ab367d355866aa1c7f70a08231b98ef4ca268c9cc3f6b4590e4bfec28280db06bb5d45e689f2a360be1818181818181818905090565b60007f93b95fa37e2b504d9f042b44dcc52cc6347296d3da90d1a2cb2e3ceb3d28f8737f56d9540ce37fbb8341334c8af1dc5cfacfaa658b18311ed2d73f4a83ffe7fa407fdff5b8c20fa3793c2cd19344e5256cb6b4f8d98ba36f2086edeec7475f9ec1ed7f6635c8934fe5741a0f5a494f722d8a8e70e1062c2db82b2d918ff3d83d5bc22a7f8a24be7b1951a9b9325e4e558462e2d24dc6b227fdd9120bf64189016236f4527f2938bb9ed87f9e9caabff06e6863f35e7988e8398bbb319528e672ffae1461bf7f0c7cf859f43ac850b3b07f46cb048c25b406fe32430e6165b399803f2914b4527fd9a845d8344727f86915daeac0e80ed5785bbb96c2e9f78d4a28ff1c6393ab137fcac643667ae643a191db8d029df6b45b7dadc1ff158e4ca000bd244690a8dec97fd87ddf26e21bfe53875b57d29a8ff0f178e0ad5f0343d4eb4aef1537f94466327fac5e35ffa27d495d14e90f49fc2221593eb1ec540ba770607a778c50112f228c7fa2781335c8f5069f815690a3196bd1c17b9d958fcf277a5228e39fb275b6ccfb7ffc0c546a8dce9d6e9b97c086302918c9106d97a17809f6bcacfe02124763cb39181818181818181818181818905090565b60007f01ffc9a7a5cef8baa21ed3c5c0d7e23accb804b619e9333b597f47a0d84076e27fa9c2e36c7ce8108af1c569e707d0e34a32dc70e8dea2b72d6eacea8fa190369e7f551ee5708a56a4f75048e3538bd1989ee4d3df01ecc228f9c7f3910d58d69e727f31cfac845529c480e20d0635017758f2ef653848f25b2cc9b207e588d3d71f0f7fc0036eb3a7fac75e325ae441e4f75882099f33ae524a5d4a86aff4528fddc95c7f02412ee17055bded517d780a351d7c59b2aaffd0e865a167244e4fb5579bdb6a7f132787e9b7a663d85eead18deebb19f37d247b484a4a717eaf621453a500a47f7f5ef2a5b58633d6bec8248cb7f6878480c90dd2a13657887c8c57ac27a1c3eb9b7f0e304d887d47c2fce9409d38ee7c04767bbb64b0f7ab01790b57cb46d77d27a17f9e004ba89285d4100397ff4dcbd4ce2cdceba57b58d0c15cafb2d7a967a6908b7fb88d4fde60196325a28bb7f99a2582e0b46de55b18761e960c14ad7a320994657f42842e0eb38857a7775b4e7364b2775df7325074d088e7fb39590cd6281184ed7f23b872dd7302113369cda2901243429419bec145408fa8b352b3dd92b66c680b7fa21abcda8013abf85cb5bd1cfeeac68775914b068ccfd82b0d195eef8fa245a07ff6b45c469367c55741244840717501aa08da90b60c32b2d5f6edf91b97280c027f45ec177b9784d241dd14ea3901be6b412a4d0b1f8be5d29b5896c71dd8bc20177f239e1d7213a9ebab407c558949a45a1d1e240a1f5071f7b5ded30cc867783cee7ff1d121c1f5b3cacd0e4814e1cbaf617a4659223ea34478f64b48876170e3edc47f94ff3accebba79411d9a31c0fb0bfe26fd72c6a5a149bd5c2eff9243fd1641f3181818181818181818181818181818181818905090565b600060149054906101000a900460e01b81565b60008060089054906101000a900460e01b905090565b600080634f6ccce760e01b632f745c5960e01b6318160ddd60e01b181891505090565b60008063c87b56dd60e01b6395d89b4160e01b6306fdde0360e01b181891505090565b600060089054906101000a900460e01b81565b60008060189054906101000a900460e01b905090565b600060189054906101000a900460e01b81565b600060049054906101000a900460e01b81565b60008060109054906101000a900460e01b905090565b60008054906101000a900460e01b81565b60007f26af03d669d43d974f4fb8d2f5d09c4ad870ae1f847ef61717e98226f4cf2d407f4015af49e2a9d21b19b1397e9c2ea346e238685556b1587c8a6ebe02e5d853d97fc7486aa8a3ab7dc219366bd4b239bb1c07f9928b5cc47bde7a943f68cf72def07fe986c53db644fbeb209222404c2a78335d0c03f57373ad285fc0ef528117899c7f75b2bf61d107e1348a37494f5d8694cc9c7fcd3714a1b8041695f59905d007a37f64f16cda2cea3ac8e45b110d4cf6211b345d285f72ec5c0482a588eaed0aeeab7f0e079c4d8e7ac371f584599243a190051327a77b41fdb54bbfac15a887146b6d7fc2bcc5ebf1f322ab743a58dcfe58e8734c4316923e30845c588be042a3d88bc718181818181818905090565b60007fc87b56dda752230262935940d907f047a9f86bb5ee6aa33511fc86db33fea6cc7bffffffffffffffffffffffffffffffffffffffffffffffffffffffff19167fb88d4fde60196325a28bb7f99a2582e0b46de55b18761e960c14ad7a32099465187f42842e0eb38857a7775b4e7364b2775df7325074d088e7fb39590cd6281184ed7f23b872dd7302113369cda2901243429419bec145408fa8b352b3dd92b66c680b7fe985e9c5c6636c6879256001057b28ccac7718ef0ac56553ff9b926452cab8a37fa22cb4651ab9570f89bb516380c40ce76762284fb1f21337ceaf6adab99e7d4a7f081812fc55e34fdc7cf5d8b5cf4e3621fa6423fde952ec6ab24afdc0d85c0b2e7f095ea7b334ae44009aa867bfb386f5c3b4b443ac6f0ee573fa91c4608fbadfba7f6352211e6566aa027e75ac9dbf2423197fbd9b82b9d981a3ab367d355866aa1c7f70a08231b98ef4ca268c9cc3f6b4590e4bfec28280db06bb5d45e689f2a360be1818181818181818905090565b60008060049054906101000a900460e01b905090565b60007feb2eb3655f85e325359cdf1c71ced3324499bfe44aefb72181ae41ad421208e57fe81485d8b2eaa681c007b4d17e4531957d4a2938ffea0e7e44540e103d14eb2e18905090565b600060109054906101000a900460e01b81565b6000600c9054906101000a900460e01b81565b6000601c9054906101000a900460e01b81565b610de081610e01565b82525050565b6000602082019050610dfb6000830184610dd7565b92915050565b60007fffffffff000000000000000000000000000000000000000000000000000000008216905091905056fea2646970667358221220454b80e3b332c2af4b151779814654667b3a31c916fa011432839dc2ed3f1c3d64736f6c63430008040033","opcodes":"PUSH1 0x80 PUSH1 0x40 MSTORE CALLVALUE DUP1 ISZERO PUSH3 0x11 JUMPI PUSH1 0x0 DUP1 REVERT JUMPDEST POP PUSH3 0x22 PUSH3 0x17F PUSH1 0x20 SHL PUSH1 0x20 SHR JUMP JUMPDEST PUSH1 0x0 PUSH1 0x10 PUSH2 0x100 EXP DUP2 SLOAD DUP2 PUSH4 0xFFFFFFFF MUL NOT AND SWAP1 DUP4 PUSH1 0xE0 SHR MUL OR SWAP1 SSTORE POP PUSH3 0x4F PUSH3 0x1A2 PUSH1 0x20 SHL PUSH1 0x20 SHR JUMP JUMPDEST PUSH1 0x0 PUSH1 0x14 PUSH2 0x100 EXP DUP2 SLOAD DUP2 PUSH4 0xFFFFFFFF MUL NOT AND SWAP1 DUP4 PUSH1 0xE0 SHR MUL OR SWAP1 SSTORE POP PUSH3 0x7C PUSH3 0x1C5 PUSH1 0x20 SHL PUSH1 0x20 SHR JUMP JUMPDEST PUSH1 0x0 PUSH1 0x1C PUSH2 0x100 EXP DUP2 SLOAD DUP2 PUSH4 0xFFFFFFFF MUL NOT AND SWAP1 DUP4 PUSH1 0xE0 SHR MUL OR SWAP1 SSTORE POP PUSH3 0xA9 PUSH3 0x33E PUSH1 0x20 SHL PUSH1 0x20 SHR JUMP JUMPDEST PUSH1 0x0 PUSH1 0x18 PUSH2 0x100 EXP DUP2 SLOAD DUP2 PUSH4 0xFFFFFFFF MUL NOT AND SWAP1 DUP4 PUSH1 0xE0 SHR MUL OR SWAP1 SSTORE POP PUSH3 0xD6 PUSH3 0x476 PUSH1 0x20 SHL PUSH1 0x20 SHR JUMP JUMPDEST PUSH1 0x0 DUP1 PUSH2 0x100 EXP DUP2 SLOAD DUP2 PUSH4 0xFFFFFFFF MUL NOT AND SWAP1 DUP4 PUSH1 0xE0 SHR MUL OR SWAP1 SSTORE POP PUSH3 0x102 PUSH3 0x702 PUSH1 0x20 SHL PUSH1 0x20 SHR JUMP JUMPDEST PUSH1 0x0 PUSH1 0x4 PUSH2 0x100 EXP DUP2 SLOAD DUP2 PUSH4 0xFFFFFFFF MUL NOT AND SWAP1 DUP4 PUSH1 0xE0 SHR MUL OR SWAP1 SSTORE POP PUSH3 0x12F PUSH3 0x818 PUSH1 0x20 SHL PUSH1 0x20 SHR JUMP JUMPDEST PUSH1 0x0 PUSH1 0x8 PUSH2 0x100 EXP DUP2 SLOAD DUP2 PUSH4 0xFFFFFFFF MUL NOT AND SWAP1 DUP4 PUSH1 0xE0 SHR MUL OR SWAP1 SSTORE POP PUSH3 0x15C PUSH3 0x862 PUSH1 0x20 SHL PUSH1 0x20 SHR JUMP JUMPDEST PUSH1 0x0 PUSH1 0xC PUSH2 0x100 EXP DUP2 SLOAD DUP2 PUSH4 0xFFFFFFFF MUL NOT AND SWAP1 DUP4 PUSH1 0xE0 SHR MUL OR SWAP1 SSTORE POP PUSH3 0xA22 JUMP JUMPDEST PUSH1 0x0 DUP1 PUSH4 0x4F6CCCE7 PUSH1 0xE0 SHL PUSH4 0x2F745C59 PUSH1 0xE0 SHL PUSH4 0x18160DDD PUSH1 0xE0 SHL XOR XOR SWAP2 POP POP SWAP1 JUMP JUMPDEST PUSH1 0x0 DUP1 PUSH4 0xC87B56DD PUSH1 0xE0 SHL PUSH4 0x95D89B41 PUSH1 0xE0 SHL PUSH4 0x6FDDE03 PUSH1 0xE0 SHL XOR XOR SWAP2 POP POP SWAP1 JUMP JUMPDEST PUSH1 0x0 PUSH32 0xC87B56DDA752230262935940D907F047A9F86BB5EE6AA33511FC86DB33FEA6CC PUSH28 0xFFFFFFFFFFFFFFFFFFFFFFFFFFFFFFFFFFFFFFFFFFFFFFFFFFFFFFFF NOT AND PUSH32 0xB88D4FDE60196325A28BB7F99A2582E0B46DE55B18761E960C14AD7A32099465 XOR PUSH32 0x42842E0EB38857A7775B4E7364B2775DF7325074D088E7FB39590CD6281184ED PUSH32 0x23B872DD7302113369CDA2901243429419BEC145408FA8B352B3DD92B66C680B PUSH32 0xE985E9C5C6636C6879256001057B28CCAC7718EF0AC56553FF9B926452CAB8A3 PUSH32 0xA22CB4651AB9570F89BB516380C40CE76762284FB1F21337CEAF6ADAB99E7D4A PUSH32 0x81812FC55E34FDC7CF5D8B5CF4E3621FA6423FDE952EC6AB24AFDC0D85C0B2E PUSH32 0x95EA7B334AE44009AA867BFB386F5C3B4B443AC6F0EE573FA91C4608FBADFBA PUSH32 0x6352211E6566AA027E75AC9DBF2423197FBD9B82B9D981A3AB367D355866AA1C PUSH32 0x70A08231B98EF4CA268C9CC3F6B4590E4BFEC28280DB06BB5D45E689F2A360BE XOR XOR XOR XOR XOR XOR XOR XOR SWAP1 POP SWAP1 JUMP JUMPDEST PUSH1 0x0 PUSH32 0xB88D4FDE60196325A28BB7F99A2582E0B46DE55B18761E960C14AD7A32099465 PUSH32 0x42842E0EB38857A7775B4E7364B2775DF7325074D088E7FB39590CD6281184ED PUSH32 0x23B872DD7302113369CDA2901243429419BEC145408FA8B352B3DD92B66C680B PUSH32 0xE985E9C5C6636C6879256001057B28CCAC7718EF0AC56553FF9B926452CAB8A3 PUSH32 0xA22CB4651AB9570F89BB516380C40CE76762284FB1F21337CEAF6ADAB99E7D4A PUSH32 0x81812FC55E34FDC7CF5D8B5CF4E3621FA6423FDE952EC6AB24AFDC0D85C0B2E PUSH32 0x95EA7B334AE44009AA867BFB386F5C3B4B443AC6F0EE573FA91C4608FBADFBA PUSH32 0x6352211E6566AA027E75AC9DBF2423197FBD9B82B9D981A3AB367D355866AA1C PUSH32 0x70A08231B98EF4CA268C9CC3F6B4590E4BFEC28280DB06BB5D45E689F2A360BE XOR XOR XOR XOR XOR XOR XOR XOR SWAP1 POP SWAP1 JUMP JUMPDEST PUSH1 0x0 PUSH32 0x1FFC9A7A5CEF8BAA21ED3C5C0D7E23ACCB804B619E9333B597F47A0D84076E2 PUSH32 0xA9C2E36C7CE8108AF1C569E707D0E34A32DC70E8DEA2B72D6EACEA8FA190369E PUSH32 0x551EE5708A56A4F75048E3538BD1989EE4D3DF01ECC228F9C7F3910D58D69E72 PUSH32 0x31CFAC845529C480E20D0635017758F2EF653848F25B2CC9B207E588D3D71F0F PUSH32 0xC0036EB3A7FAC75E325AE441E4F75882099F33AE524A5D4A86AFF4528FDDC95C PUSH32 0x2412EE17055BDED517D780A351D7C59B2AAFFD0E865A167244E4FB5579BDB6A PUSH32 0x132787E9B7A663D85EEAD18DEEBB19F37D247B484A4A717EAF621453A500A47F PUSH32 0x5EF2A5B58633D6BEC8248CB7F6878480C90DD2A13657887C8C57AC27A1C3EB9B PUSH32 0xE304D887D47C2FCE9409D38EE7C04767BBB64B0F7AB01790B57CB46D77D27A1 PUSH32 0x9E004BA89285D4100397FF4DCBD4CE2CDCEBA57B58D0C15CAFB2D7A967A6908B PUSH32 0xB88D4FDE60196325A28BB7F99A2582E0B46DE55B18761E960C14AD7A32099465 PUSH32 0x42842E0EB38857A7775B4E7364B2775DF7325074D088E7FB39590CD6281184ED PUSH32 0x23B872DD7302113369CDA2901243429419BEC145408FA8B352B3DD92B66C680B PUSH32 0xA21ABCDA8013ABF85CB5BD1CFEEAC68775914B068CCFD82B0D195EEF8FA245A0 PUSH32 0xF6B45C469367C55741244840717501AA08DA90B60C32B2D5F6EDF91B97280C02 PUSH32 0x45EC177B9784D241DD14EA3901BE6B412A4D0B1F8BE5D29B5896C71DD8BC2017 PUSH32 0x239E1D7213A9EBAB407C558949A45A1D1E240A1F5071F7B5DED30CC867783CEE PUSH32 0xF1D121C1F5B3CACD0E4814E1CBAF617A4659223EA34478F64B48876170E3EDC4 PUSH32 0x94FF3ACCEBBA79411D9A31C0FB0BFE26FD72C6A5A149BD5C2EFF9243FD1641F3 XOR XOR XOR XOR XOR XOR XOR XOR XOR XOR XOR XOR XOR XOR XOR XOR XOR XOR SWAP1 POP SWAP1 JUMP JUMPDEST PUSH1 0x0 PUSH32 0x26AF03D669D43D974F4FB8D2F5D09C4AD870AE1F847EF61717E98226F4CF2D40 PUSH32 0x4015AF49E2A9D21B19B1397E9C2EA346E238685556B1587C8A6EBE02E5D853D9 PUSH32 0xC7486AA8A3AB7DC219366BD4B239BB1C07F9928B5CC47BDE7A943F68CF72DEF0 PUSH32 0xE986C53DB644FBEB209222404C2A78335D0C03F57373AD285FC0EF528117899C PUSH32 0x75B2BF61D107E1348A37494F5D8694CC9C7FCD3714A1B8041695F59905D007A3 PUSH32 0x64F16CDA2CEA3AC8E45B110D4CF6211B345D285F72EC5C0482A588EAED0AEEAB PUSH32 0xE079C4D8E7AC371F584599243A190051327A77B41FDB54BBFAC15A887146B6D PUSH32 0xC2BCC5EBF1F322AB743A58DCFE58E8734C4316923E30845C588BE042A3D88BC7 XOR XOR XOR XOR XOR XOR XOR SWAP1 POP SWAP1 JUMP JUMPDEST PUSH1 0x0 PUSH32 0xEB2EB3655F85E325359CDF1C71CED3324499BFE44AEFB72181AE41AD421208E5 PUSH32 0xE81485D8B2EAA681C007B4D17E4531957D4A2938FFEA0E7E44540E103D14EB2E XOR SWAP1 POP SWAP1 JUMP JUMPDEST PUSH1 0x0 PUSH32 0x93B95FA37E2B504D9F042B44DCC52CC6347296D3DA90D1A2CB2E3CEB3D28F873 PUSH32 0x56D9540CE37FBB8341334C8AF1DC5CFACFAA658B18311ED2D73F4A83FFE7FA40 PUSH32 0xDFF5B8C20FA3793C2CD19344E5256CB6B4F8D98BA36F2086EDEEC7475F9EC1ED PUSH32 0x6635C8934FE5741A0F5A494F722D8A8E70E1062C2DB82B2D918FF3D83D5BC22A PUSH32 0x8A24BE7B1951A9B9325E4E558462E2D24DC6B227FDD9120BF64189016236F452 PUSH32 0x2938BB9ED87F9E9CAABFF06E6863F35E7988E8398BBB319528E672FFAE1461BF PUSH32 0xC7CF859F43AC850B3B07F46CB048C25B406FE32430E6165B399803F2914B452 PUSH32 0xD9A845D8344727F86915DAEAC0E80ED5785BBB96C2E9F78D4A28FF1C6393AB13 PUSH32 0xCAC643667AE643A191DB8D029DF6B45B7DADC1FF158E4CA000BD244690A8DEC9 PUSH32 0xD87DDF26E21BFE53875B57D29A8FF0F178E0AD5F0343D4EB4AEF1537F9446632 PUSH32 0xAC5E35FFA27D495D14E90F49FC2221593EB1EC540BA770607A778C50112F228C PUSH32 0xA2781335C8F5069F815690A3196BD1C17B9D958FCF277A5228E39FB275B6CCFB PUSH32 0xFC0C546A8DCE9D6E9B97C086302918C9106D97A17809F6BCACFE02124763CB39 XOR XOR XOR XOR XOR XOR XOR XOR XOR XOR XOR XOR SWAP1 POP SWAP1 JUMP JUMPDEST PUSH2 0xE63 DUP1 PUSH3 0xA32 PUSH1 0x0 CODECOPY PUSH1 0x0 RETURN INVALID PUSH1 0x80 PUSH1 0x40 MSTORE CALLVALUE DUP1 ISZERO PUSH2 0x10 JUMPI PUSH1 0x0 DUP1 REVERT JUMPDEST POP PUSH1 0x4 CALLDATASIZE LT PUSH2 0x14D JUMPI PUSH1 0x0 CALLDATALOAD PUSH1 0xE0 SHR DUP1 PUSH4 0x49A2DDF4 GT PUSH2 0xC3 JUMPI DUP1 PUSH4 0xA43186D4 GT PUSH2 0x7C JUMPI DUP1 PUSH4 0xA43186D4 EQ PUSH2 0x350 JUMPI DUP1 PUSH4 0xB4BA4FE7 EQ PUSH2 0x36E JUMPI DUP1 PUSH4 0xB567A20D EQ PUSH2 0x38C JUMPI DUP1 PUSH4 0xB90F4F14 EQ PUSH2 0x3AA JUMPI DUP1 PUSH4 0xC43ADE14 EQ PUSH2 0x3C8 JUMPI DUP1 PUSH4 0xFD0320A1 EQ PUSH2 0x3E6 JUMPI PUSH2 0x14D JUMP JUMPDEST DUP1 PUSH4 0x49A2DDF4 EQ PUSH2 0x29C JUMPI DUP1 PUSH4 0x58BA1FE4 EQ PUSH2 0x2BA JUMPI DUP1 PUSH4 0x7F820E3C EQ PUSH2 0x2D8 JUMPI DUP1 PUSH4 0x83F0BA1D EQ PUSH2 0x2F6 JUMPI DUP1 PUSH4 0x999F523C EQ PUSH2 0x314 JUMPI DUP1 PUSH4 0x9EC1221B EQ PUSH2 0x332 JUMPI PUSH2 0x14D JUMP JUMPDEST DUP1 PUSH4 0x22A721CA GT PUSH2 0x115 JUMPI DUP1 PUSH4 0x22A721CA EQ PUSH2 0x1E8 JUMPI DUP1 PUSH4 0x28D05C03 EQ PUSH2 0x206 JUMPI DUP1 PUSH4 0x397BE6B5 EQ PUSH2 0x224 JUMPI DUP1 PUSH4 0x3991F069 EQ PUSH2 0x242 JUMPI DUP1 PUSH4 0x3DA4E6B8 EQ PUSH2 0x260 JUMPI DUP1 PUSH4 0x4352B962 EQ PUSH2 0x27E JUMPI PUSH2 0x14D JUMP JUMPDEST DUP1 PUSH4 0x2923D26 EQ PUSH2 0x152 JUMPI DUP1 PUSH4 0x34AC039 EQ PUSH2 0x170 JUMPI DUP1 PUSH4 0x38F48B6 EQ PUSH2 0x18E JUMPI DUP1 PUSH4 0x5B9138E EQ PUSH2 0x1AC JUMPI DUP1 PUSH4 0x6DFD115 EQ PUSH2 0x1CA JUMPI JUMPDEST PUSH1 0x0 DUP1 REVERT JUMPDEST PUSH2 0x15A PUSH2 0x404 JUMP JUMPDEST PUSH1 0x40 MLOAD PUSH2 0x167 SWAP2 SWAP1 PUSH2 0xDE6 JUMP JUMPDEST PUSH1 0x40 MLOAD DUP1 SWAP2 SUB SWAP1 RETURN JUMPDEST PUSH2 0x178 PUSH2 0x41A JUMP JUMPDEST PUSH1 0x40 MLOAD PUSH2 0x185 SWAP2 SWAP1 PUSH2 0xDE6 JUMP JUMPDEST PUSH1 0x40 MLOAD DUP1 SWAP2 SUB SWAP1 RETURN JUMPDEST PUSH2 0x196 PUSH2 0x430 JUMP JUMPDEST PUSH1 0x40 MLOAD PUSH2 0x1A3 SWAP2 SWAP1 PUSH2 0xDE6 JUMP JUMPDEST PUSH1 0x40 MLOAD DUP1 SWAP2 SUB SWAP1 RETURN JUMPDEST PUSH2 0x1B4 PUSH2 0x446 JUMP JUMPDEST PUSH1 0x40 MLOAD PUSH2 0x1C1 SWAP2 SWAP1 PUSH2 0xDE6 JUMP JUMPDEST PUSH1 0x40 MLOAD DUP1 SWAP2 SUB SWAP1 RETURN JUMPDEST PUSH2 0x1D2 PUSH2 0x57E JUMP JUMPDEST PUSH1 0x40 MLOAD PUSH2 0x1DF SWAP2 SWAP1 PUSH2 0xDE6 JUMP JUMPDEST PUSH1 0x40 MLOAD DUP1 SWAP2 SUB SWAP1 RETURN JUMPDEST PUSH2 0x1F0 PUSH2 0x73E JUMP JUMPDEST PUSH1 0x40 MLOAD PUSH2 0x1FD SWAP2 SWAP1 PUSH2 0xDE6 JUMP JUMPDEST PUSH1 0x40 MLOAD DUP1 SWAP2 SUB SWAP1 RETURN JUMPDEST PUSH2 0x20E PUSH2 0x9CA JUMP JUMPDEST PUSH1 0x40 MLOAD PUSH2 0x21B SWAP2 SWAP1 PUSH2 0xDE6 JUMP JUMPDEST PUSH1 0x40 MLOAD DUP1 SWAP2 SUB SWAP1 RETURN JUMPDEST PUSH2 0x22C PUSH2 0x9DD JUMP JUMPDEST PUSH1 0x40 MLOAD PUSH2 0x239 SWAP2 SWAP1 PUSH2 0xDE6 JUMP JUMPDEST PUSH1 0x40 MLOAD DUP1 SWAP2 SUB SWAP1 RETURN JUMPDEST PUSH2 0x24A PUSH2 0x9F3 JUMP JUMPDEST PUSH1 0x40 MLOAD PUSH2 0x257 SWAP2 SWAP1 PUSH2 0xDE6 JUMP JUMPDEST PUSH1 0x40 MLOAD DUP1 SWAP2 SUB SWAP1 RETURN JUMPDEST PUSH2 0x268 PUSH2 0xA16 JUMP JUMPDEST PUSH1 0x40 MLOAD PUSH2 0x275 SWAP2 SWAP1 PUSH2 0xDE6 JUMP JUMPDEST PUSH1 0x40 MLOAD DUP1 SWAP2 SUB SWAP1 RETURN JUMPDEST PUSH2 0x286 PUSH2 0xA39 JUMP JUMPDEST PUSH1 0x40 MLOAD PUSH2 0x293 SWAP2 SWAP1 PUSH2 0xDE6 JUMP JUMPDEST PUSH1 0x40 MLOAD DUP1 SWAP2 SUB SWAP1 RETURN JUMPDEST PUSH2 0x2A4 PUSH2 0xA4C JUMP JUMPDEST PUSH1 0x40 MLOAD PUSH2 0x2B1 SWAP2 SWAP1 PUSH2 0xDE6 JUMP JUMPDEST PUSH1 0x40 MLOAD DUP1 SWAP2 SUB SWAP1 RETURN JUMPDEST PUSH2 0x2C2 PUSH2 0xA62 JUMP JUMPDEST PUSH1 0x40 MLOAD PUSH2 0x2CF SWAP2 SWAP1 PUSH2 0xDE6 JUMP JUMPDEST PUSH1 0x40 MLOAD DUP1 SWAP2 SUB SWAP1 RETURN JUMPDEST PUSH2 0x2E0 PUSH2 0xA75 JUMP JUMPDEST PUSH1 0x40 MLOAD PUSH2 0x2ED SWAP2 SWAP1 PUSH2 0xDE6 JUMP JUMPDEST PUSH1 0x40 MLOAD DUP1 SWAP2 SUB SWAP1 RETURN JUMPDEST PUSH2 0x2FE PUSH2 0xA88 JUMP JUMPDEST PUSH1 0x40 MLOAD PUSH2 0x30B SWAP2 SWAP1 PUSH2 0xDE6 JUMP JUMPDEST PUSH1 0x40 MLOAD DUP1 SWAP2 SUB SWAP1 RETURN JUMPDEST PUSH2 0x31C PUSH2 0xA9E JUMP JUMPDEST PUSH1 0x40 MLOAD PUSH2 0x329 SWAP2 SWAP1 PUSH2 0xDE6 JUMP JUMPDEST PUSH1 0x40 MLOAD DUP1 SWAP2 SUB SWAP1 RETURN JUMPDEST PUSH2 0x33A PUSH2 0xAAF JUMP JUMPDEST PUSH1 0x40 MLOAD PUSH2 0x347 SWAP2 SWAP1 PUSH2 0xDE6 JUMP JUMPDEST PUSH1 0x40 MLOAD DUP1 SWAP2 SUB SWAP1 RETURN JUMPDEST PUSH2 0x358 PUSH2 0xBC5 JUMP JUMPDEST PUSH1 0x40 MLOAD PUSH2 0x365 SWAP2 SWAP1 PUSH2 0xDE6 JUMP JUMPDEST PUSH1 0x40 MLOAD DUP1 SWAP2 SUB SWAP1 RETURN JUMPDEST PUSH2 0x376 PUSH2 0xD3E JUMP JUMPDEST PUSH1 0x40 MLOAD PUSH2 0x383 SWAP2 SWAP1 PUSH2 0xDE6 JUMP JUMPDEST PUSH1 0x40 MLOAD DUP1 SWAP2 SUB SWAP1 RETURN JUMPDEST PUSH2 0x394 PUSH2 0xD54 JUMP JUMPDEST PUSH1 0x40 MLOAD PUSH2 0x3A1 SWAP2 SWAP1 PUSH2 0xDE6 JUMP JUMPDEST PUSH1 0x40 MLOAD DUP1 SWAP2 SUB SWAP1 RETURN JUMPDEST PUSH2 0x3B2 PUSH2 0xD9E JUMP JUMPDEST PUSH1 0x40 MLOAD PUSH2 0x3BF SWAP2 SWAP1 PUSH2 0xDE6 JUMP JUMPDEST PUSH1 0x40 MLOAD DUP1 SWAP2 SUB SWAP1 RETURN JUMPDEST PUSH2 0x3D0 PUSH2 0xDB1 JUMP JUMPDEST PUSH1 0x40 MLOAD PUSH2 0x3DD SWAP2 SWAP1 PUSH2 0xDE6 JUMP JUMPDEST PUSH1 0x40 MLOAD DUP1 SWAP2 SUB SWAP1 RETURN JUMPDEST PUSH2 0x3EE PUSH2 0xDC4 JUMP JUMPDEST PUSH1 0x40 MLOAD PUSH2 0x3FB SWAP2 SWAP1 PUSH2 0xDE6 JUMP JUMPDEST PUSH1 0x40 MLOAD DUP1 SWAP2 SUB SWAP1 RETURN JUMPDEST PUSH1 0x0 DUP1 PUSH1 0xC SWAP1 SLOAD SWAP1 PUSH2 0x100 EXP SWAP1 DIV PUSH1 0xE0 SHL SWAP1 POP SWAP1 JUMP JUMPDEST PUSH1 0x0 DUP1 PUSH1 0x0 SWAP1 SLOAD SWAP1 PUSH2 0x100 EXP SWAP1 DIV PUSH1 0xE0 SHL SWAP1 POP SWAP1 JUMP JUMPDEST PUSH1 0x0 DUP1 PUSH1 0x14 SWAP1 SLOAD SWAP1 PUSH2 0x100 EXP SWAP1 DIV PUSH1 0xE0 SHL SWAP1 POP SWAP1 JUMP JUMPDEST PUSH1 0x0 PUSH32 0xB88D4FDE60196325A28BB7F99A2582E0B46DE55B18761E960C14AD7A32099465 PUSH32 0x42842E0EB38857A7775B4E7364B2775DF7325074D088E7FB39590CD6281184ED PUSH32 0x23B872DD7302113369CDA2901243429419BEC145408FA8B352B3DD92B66C680B PUSH32 0xE985E9C5C6636C6879256001057B28CCAC7718EF0AC56553FF9B926452CAB8A3 PUSH32 0xA22CB4651AB9570F89BB516380C40CE76762284FB1F21337CEAF6ADAB99E7D4A PUSH32 0x81812FC55E34FDC7CF5D8B5CF4E3621FA6423FDE952EC6AB24AFDC0D85C0B2E PUSH32 0x95EA7B334AE44009AA867BFB386F5C3B4B443AC6F0EE573FA91C4608FBADFBA PUSH32 0x6352211E6566AA027E75AC9DBF2423197FBD9B82B9D981A3AB367D355866AA1C PUSH32 0x70A08231B98EF4CA268C9CC3F6B4590E4BFEC28280DB06BB5D45E689F2A360BE XOR XOR XOR XOR XOR XOR XOR XOR SWAP1 POP SWAP1 JUMP JUMPDEST PUSH1 0x0 PUSH32 0x93B95FA37E2B504D9F042B44DCC52CC6347296D3DA90D1A2CB2E3CEB3D28F873 PUSH32 0x56D9540CE37FBB8341334C8AF1DC5CFACFAA658B18311ED2D73F4A83FFE7FA40 PUSH32 0xDFF5B8C20FA3793C2CD19344E5256CB6B4F8D98BA36F2086EDEEC7475F9EC1ED PUSH32 0x6635C8934FE5741A0F5A494F722D8A8E70E1062C2DB82B2D918FF3D83D5BC22A PUSH32 0x8A24BE7B1951A9B9325E4E558462E2D24DC6B227FDD9120BF64189016236F452 PUSH32 0x2938BB9ED87F9E9CAABFF06E6863F35E7988E8398BBB319528E672FFAE1461BF PUSH32 0xC7CF859F43AC850B3B07F46CB048C25B406FE32430E6165B399803F2914B452 PUSH32 0xD9A845D8344727F86915DAEAC0E80ED5785BBB96C2E9F78D4A28FF1C6393AB13 PUSH32 0xCAC643667AE643A191DB8D029DF6B45B7DADC1FF158E4CA000BD244690A8DEC9 PUSH32 0xD87DDF26E21BFE53875B57D29A8FF0F178E0AD5F0343D4EB4AEF1537F9446632 PUSH32 0xAC5E35FFA27D495D14E90F49FC2221593EB1EC540BA770607A778C50112F228C PUSH32 0xA2781335C8F5069F815690A3196BD1C17B9D958FCF277A5228E39FB275B6CCFB PUSH32 0xFC0C546A8DCE9D6E9B97C086302918C9106D97A17809F6BCACFE02124763CB39 XOR XOR XOR XOR XOR XOR XOR XOR XOR XOR XOR XOR SWAP1 POP SWAP1 JUMP JUMPDEST PUSH1 0x0 PUSH32 0x1FFC9A7A5CEF8BAA21ED3C5C0D7E23ACCB804B619E9333B597F47A0D84076E2 PUSH32 0xA9C2E36C7CE8108AF1C569E707D0E34A32DC70E8DEA2B72D6EACEA8FA190369E PUSH32 0x551EE5708A56A4F75048E3538BD1989EE4D3DF01ECC228F9C7F3910D58D69E72 PUSH32 0x31CFAC845529C480E20D0635017758F2EF653848F25B2CC9B207E588D3D71F0F PUSH32 0xC0036EB3A7FAC75E325AE441E4F75882099F33AE524A5D4A86AFF4528FDDC95C PUSH32 0x2412EE17055BDED517D780A351D7C59B2AAFFD0E865A167244E4FB5579BDB6A PUSH32 0x132787E9B7A663D85EEAD18DEEBB19F37D247B484A4A717EAF621453A500A47F PUSH32 0x5EF2A5B58633D6BEC8248CB7F6878480C90DD2A13657887C8C57AC27A1C3EB9B PUSH32 0xE304D887D47C2FCE9409D38EE7C04767BBB64B0F7AB01790B57CB46D77D27A1 PUSH32 0x9E004BA89285D4100397FF4DCBD4CE2CDCEBA57B58D0C15CAFB2D7A967A6908B PUSH32 0xB88D4FDE60196325A28BB7F99A2582E0B46DE55B18761E960C14AD7A32099465 PUSH32 0x42842E0EB38857A7775B4E7364B2775DF7325074D088E7FB39590CD6281184ED PUSH32 0x23B872DD7302113369CDA2901243429419BEC145408FA8B352B3DD92B66C680B PUSH32 0xA21ABCDA8013ABF85CB5BD1CFEEAC68775914B068CCFD82B0D195EEF8FA245A0 PUSH32 0xF6B45C469367C55741244840717501AA08DA90B60C32B2D5F6EDF91B97280C02 PUSH32 0x45EC177B9784D241DD14EA3901BE6B412A4D0B1F8BE5D29B5896C71DD8BC2017 PUSH32 0x239E1D7213A9EBAB407C558949A45A1D1E240A1F5071F7B5DED30CC867783CEE PUSH32 0xF1D121C1F5B3CACD0E4814E1CBAF617A4659223EA34478F64B48876170E3EDC4 PUSH32 0x94FF3ACCEBBA79411D9A31C0FB0BFE26FD72C6A5A149BD5C2EFF9243FD1641F3 XOR XOR XOR XOR XOR XOR XOR XOR XOR XOR XOR XOR XOR XOR XOR XOR XOR XOR SWAP1 POP SWAP1 JUMP JUMPDEST PUSH1 0x0 PUSH1 0x14 SWAP1 SLOAD SWAP1 PUSH2 0x100 EXP SWAP1 DIV PUSH1 0xE0 SHL DUP2 JUMP JUMPDEST PUSH1 0x0 DUP1 PUSH1 0x8 SWAP1 SLOAD SWAP1 PUSH2 0x100 EXP SWAP1 DIV PUSH1 0xE0 SHL SWAP1 POP SWAP1 JUMP JUMPDEST PUSH1 0x0 DUP1 PUSH4 0x4F6CCCE7 PUSH1 0xE0 SHL PUSH4 0x2F745C59 PUSH1 0xE0 SHL PUSH4 0x18160DDD PUSH1 0xE0 SHL XOR XOR SWAP2 POP POP SWAP1 JUMP JUMPDEST PUSH1 0x0 DUP1 PUSH4 0xC87B56DD PUSH1 0xE0 SHL PUSH4 0x95D89B41 PUSH1 0xE0 SHL PUSH4 0x6FDDE03 PUSH1 0xE0 SHL XOR XOR SWAP2 POP POP SWAP1 JUMP JUMPDEST PUSH1 0x0 PUSH1 0x8 SWAP1 SLOAD SWAP1 PUSH2 0x100 EXP SWAP1 DIV PUSH1 0xE0 SHL DUP2 JUMP JUMPDEST PUSH1 0x0 DUP1 PUSH1 0x18 SWAP1 SLOAD SWAP1 PUSH2 0x100 EXP SWAP1 DIV PUSH1 0xE0 SHL SWAP1 POP SWAP1 JUMP JUMPDEST PUSH1 0x0 PUSH1 0x18 SWAP1 SLOAD SWAP1 PUSH2 0x100 EXP SWAP1 DIV PUSH1 0xE0 SHL DUP2 JUMP JUMPDEST PUSH1 0x0 PUSH1 0x4 SWAP1 SLOAD SWAP1 PUSH2 0x100 EXP SWAP1 DIV PUSH1 0xE0 SHL DUP2 JUMP JUMPDEST PUSH1 0x0 DUP1 PUSH1 0x10 SWAP1 SLOAD SWAP1 PUSH2 0x100 EXP SWAP1 DIV PUSH1 0xE0 SHL SWAP1 POP SWAP1 JUMP JUMPDEST PUSH1 0x0 DUP1 SLOAD SWAP1 PUSH2 0x100 EXP SWAP1 DIV PUSH1 0xE0 SHL DUP2 JUMP JUMPDEST PUSH1 0x0 PUSH32 0x26AF03D669D43D974F4FB8D2F5D09C4AD870AE1F847EF61717E98226F4CF2D40 PUSH32 0x4015AF49E2A9D21B19B1397E9C2EA346E238685556B1587C8A6EBE02E5D853D9 PUSH32 0xC7486AA8A3AB7DC219366BD4B239BB1C07F9928B5CC47BDE7A943F68CF72DEF0 PUSH32 0xE986C53DB644FBEB209222404C2A78335D0C03F57373AD285FC0EF528117899C PUSH32 0x75B2BF61D107E1348A37494F5D8694CC9C7FCD3714A1B8041695F59905D007A3 PUSH32 0x64F16CDA2CEA3AC8E45B110D4CF6211B345D285F72EC5C0482A588EAED0AEEAB PUSH32 0xE079C4D8E7AC371F584599243A190051327A77B41FDB54BBFAC15A887146B6D PUSH32 0xC2BCC5EBF1F322AB743A58DCFE58E8734C4316923E30845C588BE042A3D88BC7 XOR XOR XOR XOR XOR XOR XOR SWAP1 POP SWAP1 JUMP JUMPDEST PUSH1 0x0 PUSH32 0xC87B56DDA752230262935940D907F047A9F86BB5EE6AA33511FC86DB33FEA6CC PUSH28 0xFFFFFFFFFFFFFFFFFFFFFFFFFFFFFFFFFFFFFFFFFFFFFFFFFFFFFFFF NOT AND PUSH32 0xB88D4FDE60196325A28BB7F99A2582E0B46DE55B18761E960C14AD7A32099465 XOR PUSH32 0x42842E0EB38857A7775B4E7364B2775DF7325074D088E7FB39590CD6281184ED PUSH32 0x23B872DD7302113369CDA2901243429419BEC145408FA8B352B3DD92B66C680B PUSH32 0xE985E9C5C6636C6879256001057B28CCAC7718EF0AC56553FF9B926452CAB8A3 PUSH32 0xA22CB4651AB9570F89BB516380C40CE76762284FB1F21337CEAF6ADAB99E7D4A PUSH32 0x81812FC55E34FDC7CF5D8B5CF4E3621FA6423FDE952EC6AB24AFDC0D85C0B2E PUSH32 0x95EA7B334AE44009AA867BFB386F5C3B4B443AC6F0EE573FA91C4608FBADFBA PUSH32 0x6352211E6566AA027E75AC9DBF2423197FBD9B82B9D981A3AB367D355866AA1C PUSH32 0x70A08231B98EF4CA268C9CC3F6B4590E4BFEC28280DB06BB5D45E689F2A360BE XOR XOR XOR XOR XOR XOR XOR XOR SWAP1 POP SWAP1 JUMP JUMPDEST PUSH1 0x0 DUP1 PUSH1 0x4 SWAP1 SLOAD SWAP1 PUSH2 0x100 EXP SWAP1 DIV PUSH1 0xE0 SHL SWAP1 POP SWAP1 JUMP JUMPDEST PUSH1 0x0 PUSH32 0xEB2EB3655F85E325359CDF1C71CED3324499BFE44AEFB72181AE41AD421208E5 PUSH32 0xE81485D8B2EAA681C007B4D17E4531957D4A2938FFEA0E7E44540E103D14EB2E XOR SWAP1 POP SWAP1 JUMP JUMPDEST PUSH1 0x0 PUSH1 0x10 SWAP1 SLOAD SWAP1 PUSH2 0x100 EXP SWAP1 DIV PUSH1 0xE0 SHL DUP2 JUMP JUMPDEST PUSH1 0x0 PUSH1 0xC SWAP1 SLOAD SWAP1 PUSH2 0x100 EXP SWAP1 DIV PUSH1 0xE0 SHL DUP2 JUMP JUMPDEST PUSH1 0x0 PUSH1 0x1C SWAP1 SLOAD SWAP1 PUSH2 0x100 EXP SWAP1 DIV PUSH1 0xE0 SHL DUP2 JUMP JUMPDEST PUSH2 0xDE0 DUP2 PUSH2 0xE01 JUMP JUMPDEST DUP3 MSTORE POP POP JUMP JUMPDEST PUSH1 0x0 PUSH1 0x20 DUP3 ADD SWAP1 POP PUSH2 0xDFB PUSH1 0x0 DUP4 ADD DUP5 PUSH2 0xDD7 JUMP JUMPDEST SWAP3 SWAP2 POP POP JUMP JUMPDEST PUSH1 0x0 PUSH32 0xFFFFFFFF00000000000000000000000000000000000000000000000000000000 DUP3 AND SWAP1 POP SWAP2 SWAP1 POP JUMP INVALID LOG2 PUSH5 0x6970667358 0x22 SLT KECCAK256 GASLIMIT 0x4B DUP1 0xE3 0xB3 ORIGIN 0xC2 0xAF 0x4B ISZERO OR PUSH26 0x814654667B3A31C916FA011432839DC2ED3F1C3D64736F6C6343 STOP ADDMOD DIV STOP CALLER "},"methodIdentifiers":{"_INTERFACE_ID_CURRENCIES()":"4352b962","_INTERFACE_ID_IERC721()":"58ba1fe4","_INTERFACE_ID_IERC721ENUMERABLE()":"b90f4f14","_INTERFACE_ID_IERC721METADATA()":"28d05c03","_INTERFACE_ID_IERC721URISTORAGE()":"fd0320a1","_INTERFACE_ID_META_MARKETPLACE()":"7f820e3c","_INTERFACE_ID_MSNFT()":"999f523c","_INTERFACE_ID_TOKEN_SALE()":"c43ade14","calculateCurrenciesERC20()":"b567a20d","calculateIERC721()":"05b9138e","calculateIERC721Enumarable()":"3991f069","calculateIERC721Metadata()":"3da4e6b8","calculateIERC721URIStorage()":"a43186d4","calculateMSNFT()":"22a721ca","calculateMetaMarketplace()":"9ec1221b","calculateTokenSaleSingleton()":"06dfd115","getInterface721()":"49a2ddf4","getInterfaceCurrenciesERC20()":"397be6b5","getInterfaceEnumerable()":"83f0ba1d","getInterfaceMSNFT()":"034ac039","getInterfaceMetaMarketplace()":"b4ba4fe7","getInterfaceMetadata()":"038f48b6","getInterfaceTokenSaleSingleton()":"02923d26"}}}}}