{"contracts/FeesCalculator.sol":{"FeesCalculator":{"abi":[{"inputs":[{"internalType":"uint256","name":"amount","type":"uint256"},{"internalType":"uint256","name":"scale","type":"uint256"},{"internalType":"uint256","name":"promille_fee_","type":"uint256"}],"name":"calculateAbstractFee","outputs":[{"internalType":"uint256","name":"","type":"uint256"}],"stateMutability":"pure","type":"function"}],"evm":{"bytecode":{"linkReferences":{},"object":"6103bc610053600b82828239805160001a607314610046577f4e487b7100000000000000000000000000000000000000000000000000000000600052600060045260246000fd5b30600052607381538281f3fe73000000000000000000000000000000000000000030146080604052600436106100355760003560e01c806336ea61781461003a575b600080fd5b610054600480360381019061004f9190610148565b61006a565b60405161006191906101a6565b60405180910390f35b60008083856100799190610217565b90506000848661008991906102e0565b9050600085856100999190610217565b9050600086866100a991906102e0565b90508660018883866100bb9190610248565b6100c591906101c1565b6100cf91906102a2565b6100d99190610217565b82846100e59190610248565b82866100f19190610248565b8985886100fe9190610248565b6101089190610248565b61011291906101c1565b61011c91906101c1565b61012691906101c1565b9450505050509392505050565b6000813590506101428161036f565b92915050565b60008060006060848603121561015d57600080fd5b600061016b86828701610133565b935050602061017c86828701610133565b925050604061018d86828701610133565b9150509250925092565b6101a0816102d6565b82525050565b60006020820190506101bb6000830184610197565b92915050565b60006101cc826102d6565b91506101d7836102d6565b9250827fffffffffffffffffffffffffffffffffffffffffffffffffffffffffffffffff0382111561020c5761020b610311565b5b828201905092915050565b6000610222826102d6565b915061022d836102d6565b92508261023d5761023c610340565b5b828204905092915050565b6000610253826102d6565b915061025e836102d6565b9250817fffffffffffffffffffffffffffffffffffffffffffffffffffffffffffffffff048311821515161561029757610296610311565b5b828202905092915050565b60006102ad826102d6565b91506102b8836102d6565b9250828210156102cb576102ca610311565b5b828203905092915050565b6000819050919050565b60006102eb826102d6565b91506102f6836102d6565b92508261030657610305610340565b5b828206905092915050565b7f4e487b7100000000000000000000000000000000000000000000000000000000600052601160045260246000fd5b7f4e487b7100000000000000000000000000000000000000000000000000000000600052601260045260246000fd5b610378816102d6565b811461038357600080fd5b5056fea264697066735822122061f11dcb80709bea7eaf31c9dd8ddbf388f7ed6c6e6932d47b6fcbf7d786742a64736f6c63430008040033","opcodes":"PUSH2 0x3BC PUSH2 0x53 PUSH1 0xB DUP3 DUP3 DUP3 CODECOPY DUP1 MLOAD PUSH1 0x0 BYTE PUSH1 0x73 EQ PUSH2 0x46 JUMPI PUSH32 0x4E487B7100000000000000000000000000000000000000000000000000000000 PUSH1 0x0 MSTORE PUSH1 0x0 PUSH1 0x4 MSTORE PUSH1 0x24 PUSH1 0x0 REVERT JUMPDEST ADDRESS PUSH1 0x0 MSTORE PUSH1 0x73 DUP2 MSTORE8 DUP3 DUP2 RETURN INVALID PUSH20 0x0 ADDRESS EQ PUSH1 0x80 PUSH1 0x40 MSTORE PUSH1 0x4 CALLDATASIZE LT PUSH2 0x35 JUMPI PUSH1 0x0 CALLDATALOAD PUSH1 0xE0 SHR DUP1 PUSH4 0x36EA6178 EQ PUSH2 0x3A JUMPI JUMPDEST PUSH1 0x0 DUP1 REVERT JUMPDEST PUSH2 0x54 PUSH1 0x4 DUP1 CALLDATASIZE SUB DUP2 ADD SWAP1 PUSH2 0x4F SWAP2 SWAP1 PUSH2 0x148 JUMP JUMPDEST PUSH2 0x6A JUMP JUMPDEST PUSH1 0x40 MLOAD PUSH2 0x61 SWAP2 SWAP1 PUSH2 0x1A6 JUMP JUMPDEST PUSH1 0x40 MLOAD DUP1 SWAP2 SUB SWAP1 RETURN JUMPDEST PUSH1 0x0 DUP1 DUP4 DUP6 PUSH2 0x79 SWAP2 SWAP1 PUSH2 0x217 JUMP JUMPDEST SWAP1 POP PUSH1 0x0 DUP5 DUP7 PUSH2 0x89 SWAP2 SWAP1 PUSH2 0x2E0 JUMP JUMPDEST SWAP1 POP PUSH1 0x0 DUP6 DUP6 PUSH2 0x99 SWAP2 SWAP1 PUSH2 0x217 JUMP JUMPDEST SWAP1 POP PUSH1 0x0 DUP7 DUP7 PUSH2 0xA9 SWAP2 SWAP1 PUSH2 0x2E0 JUMP JUMPDEST SWAP1 POP DUP7 PUSH1 0x1 DUP9 DUP4 DUP7 PUSH2 0xBB SWAP2 SWAP1 PUSH2 0x248 JUMP JUMPDEST PUSH2 0xC5 SWAP2 SWAP1 PUSH2 0x1C1 JUMP JUMPDEST PUSH2 0xCF SWAP2 SWAP1 PUSH2 0x2A2 JUMP JUMPDEST PUSH2 0xD9 SWAP2 SWAP1 PUSH2 0x217 JUMP JUMPDEST DUP3 DUP5 PUSH2 0xE5 SWAP2 SWAP1 PUSH2 0x248 JUMP JUMPDEST DUP3 DUP7 PUSH2 0xF1 SWAP2 SWAP1 PUSH2 0x248 JUMP JUMPDEST DUP10 DUP6 DUP9 PUSH2 0xFE SWAP2 SWAP1 PUSH2 0x248 JUMP JUMPDEST PUSH2 0x108 SWAP2 SWAP1 PUSH2 0x248 JUMP JUMPDEST PUSH2 0x112 SWAP2 SWAP1 PUSH2 0x1C1 JUMP JUMPDEST PUSH2 0x11C SWAP2 SWAP1 PUSH2 0x1C1 JUMP JUMPDEST PUSH2 0x126 SWAP2 SWAP1 PUSH2 0x1C1 JUMP JUMPDEST SWAP5 POP POP POP POP POP SWAP4 SWAP3 POP POP POP JUMP JUMPDEST PUSH1 0x0 DUP2 CALLDATALOAD SWAP1 POP PUSH2 0x142 DUP2 PUSH2 0x36F JUMP JUMPDEST SWAP3 SWAP2 POP POP JUMP JUMPDEST PUSH1 0x0 DUP1 PUSH1 0x0 PUSH1 0x60 DUP5 DUP7 SUB SLT ISZERO PUSH2 0x15D JUMPI PUSH1 0x0 DUP1 REVERT JUMPDEST PUSH1 0x0 PUSH2 0x16B DUP7 DUP3 DUP8 ADD PUSH2 0x133 JUMP JUMPDEST SWAP4 POP POP PUSH1 0x20 PUSH2 0x17C DUP7 DUP3 DUP8 ADD PUSH2 0x133 JUMP JUMPDEST SWAP3 POP POP PUSH1 0x40 PUSH2 0x18D DUP7 DUP3 DUP8 ADD PUSH2 0x133 JUMP JUMPDEST SWAP2 POP POP SWAP3 POP SWAP3 POP SWAP3 JUMP JUMPDEST PUSH2 0x1A0 DUP2 PUSH2 0x2D6 JUMP JUMPDEST DUP3 MSTORE POP POP JUMP JUMPDEST PUSH1 0x0 PUSH1 0x20 DUP3 ADD SWAP1 POP PUSH2 0x1BB PUSH1 0x0 DUP4 ADD DUP5 PUSH2 0x197 JUMP JUMPDEST SWAP3 SWAP2 POP POP JUMP JUMPDEST PUSH1 0x0 PUSH2 0x1CC DUP3 PUSH2 0x2D6 JUMP JUMPDEST SWAP2 POP PUSH2 0x1D7 DUP4 PUSH2 0x2D6 JUMP JUMPDEST SWAP3 POP DUP3 PUSH32 0xFFFFFFFFFFFFFFFFFFFFFFFFFFFFFFFFFFFFFFFFFFFFFFFFFFFFFFFFFFFFFFFF SUB DUP3 GT ISZERO PUSH2 0x20C JUMPI PUSH2 0x20B PUSH2 0x311 JUMP JUMPDEST JUMPDEST DUP3 DUP3 ADD SWAP1 POP SWAP3 SWAP2 POP POP JUMP JUMPDEST PUSH1 0x0 PUSH2 0x222 DUP3 PUSH2 0x2D6 JUMP JUMPDEST SWAP2 POP PUSH2 0x22D DUP4 PUSH2 0x2D6 JUMP JUMPDEST SWAP3 POP DUP3 PUSH2 0x23D JUMPI PUSH2 0x23C PUSH2 0x340 JUMP JUMPDEST JUMPDEST DUP3 DUP3 DIV SWAP1 POP SWAP3 SWAP2 POP POP JUMP JUMPDEST PUSH1 0x0 PUSH2 0x253 DUP3 PUSH2 0x2D6 JUMP JUMPDEST SWAP2 POP PUSH2 0x25E DUP4 PUSH2 0x2D6 JUMP JUMPDEST SWAP3 POP DUP2 PUSH32 0xFFFFFFFFFFFFFFFFFFFFFFFFFFFFFFFFFFFFFFFFFFFFFFFFFFFFFFFFFFFFFFFF DIV DUP4 GT DUP3 ISZERO ISZERO AND ISZERO PUSH2 0x297 JUMPI PUSH2 0x296 PUSH2 0x311 JUMP JUMPDEST JUMPDEST DUP3 DUP3 MUL SWAP1 POP SWAP3 SWAP2 POP POP JUMP JUMPDEST PUSH1 0x0 PUSH2 0x2AD DUP3 PUSH2 0x2D6 JUMP JUMPDEST SWAP2 POP PUSH2 0x2B8 DUP4 PUSH2 0x2D6 JUMP JUMPDEST SWAP3 POP DUP3 DUP3 LT ISZERO PUSH2 0x2CB JUMPI PUSH2 0x2CA PUSH2 0x311 JUMP JUMPDEST JUMPDEST DUP3 DUP3 SUB SWAP1 POP SWAP3 SWAP2 POP POP JUMP JUMPDEST PUSH1 0x0 DUP2 SWAP1 POP SWAP2 SWAP1 POP JUMP JUMPDEST PUSH1 0x0 PUSH2 0x2EB DUP3 PUSH2 0x2D6 JUMP JUMPDEST SWAP2 POP PUSH2 0x2F6 DUP4 PUSH2 0x2D6 JUMP JUMPDEST SWAP3 POP DUP3 PUSH2 0x306 JUMPI PUSH2 0x305 PUSH2 0x340 JUMP JUMPDEST JUMPDEST DUP3 DUP3 MOD SWAP1 POP SWAP3 SWAP2 POP POP JUMP JUMPDEST PUSH32 0x4E487B7100000000000000000000000000000000000000000000000000000000 PUSH1 0x0 MSTORE PUSH1 0x11 PUSH1 0x4 MSTORE PUSH1 0x24 PUSH1 0x0 REVERT JUMPDEST PUSH32 0x4E487B7100000000000000000000000000000000000000000000000000000000 PUSH1 0x0 MSTORE PUSH1 0x12 PUSH1 0x4 MSTORE PUSH1 0x24 PUSH1 0x0 REVERT JUMPDEST PUSH2 0x378 DUP2 PUSH2 0x2D6 JUMP JUMPDEST DUP2 EQ PUSH2 0x383 JUMPI PUSH1 0x0 DUP1 REVERT JUMPDEST POP JUMP INVALID LOG2 PUSH5 0x6970667358 0x22 SLT KECCAK256 PUSH2 0xF11D 0xCB DUP1 PUSH17 0x9BEA7EAF31C9DD8DDBF388F7ED6C6E6932 0xD4 PUSH28 0x6FCBF7D786742A64736F6C6343000804003300000000000000000000 "},"methodIdentifiers":{"calculateAbstractFee(uint256,uint256,uint256)":"36ea6178"}}}}}