{
  "_format": "hh-sol-artifact-1",
  "contractName": "MetaMarketplace",
  "sourceName": "contracts/MetaMarketplace.sol",
  "abi": [
    {
      "inputs": [
        {
          "internalType": "address",
          "name": "currency_contract_",
          "type": "address"
        },
        {
          "internalType": "address",
          "name": "telegram_collection_",
          "type": "address"
        },
        {
          "internalType": "address payable",
          "name": "treasure_fund_",
          "type": "address"
        }
      ],
      "stateMutability": "nonpayable",
      "type": "constructor"
    },
    {
      "anonymous": false,
      "inputs": [
        {
          "indexed": true,
          "internalType": "address",
          "name": "nft_contract_",
          "type": "address"
        },
        {
          "indexed": true,
          "internalType": "uint256",
          "name": "tokenId",
          "type": "uint256"
        },
        {
          "indexed": false,
          "internalType": "address",
          "name": "buyer",
          "type": "address"
        }
      ],
      "name": "BuyOfferWithdrawn",
      "type": "event"
    },
    {
      "anonymous": false,
      "inputs": [
        {
          "indexed": false,
          "internalType": "uint256",
          "name": "initial_value",
          "type": "uint256"
        },
        {
          "indexed": false,
          "internalType": "uint256",
          "name": "fees",
          "type": "uint256"
        },
        {
          "indexed": false,
          "internalType": "uint256",
          "name": "transfered_amount",
          "type": "uint256"
        },
        {
          "indexed": false,
          "internalType": "address",
          "name": "feeAddress",
          "type": "address"
        }
      ],
      "name": "CalculatedFees",
      "type": "event"
    },
    {
      "anonymous": false,
      "inputs": [
        {
          "indexed": false,
          "internalType": "address",
          "name": "nft_contract_",
          "type": "address"
        },
        {
          "indexed": false,
          "internalType": "uint256",
          "name": "tokenId",
          "type": "uint256"
        },
        {
          "indexed": false,
          "internalType": "address",
          "name": "buyer",
          "type": "address"
        },
        {
          "indexed": false,
          "internalType": "uint256",
          "name": "value",
          "type": "uint256"
        }
      ],
      "name": "NewBuyOffer",
      "type": "event"
    },
    {
      "anonymous": false,
      "inputs": [
        {
          "indexed": false,
          "internalType": "address",
          "name": "nft_contract_",
          "type": "address"
        }
      ],
      "name": "NewMarketplace",
      "type": "event"
    },
    {
      "anonymous": false,
      "inputs": [
        {
          "indexed": true,
          "internalType": "string",
          "name": "category",
          "type": "string"
        },
        {
          "indexed": false,
          "internalType": "address",
          "name": "nft_contract_",
          "type": "address"
        },
        {
          "indexed": false,
          "internalType": "uint256",
          "name": "tokenId",
          "type": "uint256"
        }
      ],
      "name": "NewSellCategory",
      "type": "event"
    },
    {
      "anonymous": false,
      "inputs": [
        {
          "indexed": false,
          "internalType": "address",
          "name": "nft_contract_",
          "type": "address"
        },
        {
          "indexed": false,
          "internalType": "uint256",
          "name": "tokenId",
          "type": "uint256"
        },
        {
          "indexed": false,
          "internalType": "address",
          "name": "seller",
          "type": "address"
        },
        {
          "indexed": false,
          "internalType": "uint256",
          "name": "value",
          "type": "uint256"
        }
      ],
      "name": "NewSellOffer",
      "type": "event"
    },
    {
      "anonymous": false,
      "inputs": [
        {
          "indexed": true,
          "internalType": "address",
          "name": "previousOwner",
          "type": "address"
        },
        {
          "indexed": true,
          "internalType": "address",
          "name": "newOwner",
          "type": "address"
        }
      ],
      "name": "OwnershipTransferred",
      "type": "event"
    },
    {
      "anonymous": false,
      "inputs": [
        {
          "indexed": false,
          "internalType": "address",
          "name": "nft_contract_",
          "type": "address"
        },
        {
          "indexed": false,
          "internalType": "uint256",
          "name": "tokenId",
          "type": "uint256"
        },
        {
          "indexed": false,
          "internalType": "address",
          "name": "recepient",
          "type": "address"
        },
        {
          "indexed": false,
          "internalType": "uint256",
          "name": "value",
          "type": "uint256"
        }
      ],
      "name": "RoyaltiesPaid",
      "type": "event"
    },
    {
      "anonymous": false,
      "inputs": [
        {
          "indexed": true,
          "internalType": "address",
          "name": "nft_contract_",
          "type": "address"
        },
        {
          "indexed": true,
          "internalType": "uint256",
          "name": "tokenId",
          "type": "uint256"
        },
        {
          "indexed": false,
          "internalType": "address",
          "name": "seller",
          "type": "address"
        },
        {
          "indexed": false,
          "internalType": "address",
          "name": "buyer",
          "type": "address"
        },
        {
          "indexed": false,
          "internalType": "uint256",
          "name": "value",
          "type": "uint256"
        }
      ],
      "name": "Sale",
      "type": "event"
    },
    {
      "anonymous": false,
      "inputs": [
        {
          "indexed": true,
          "internalType": "address",
          "name": "nft_contract_",
          "type": "address"
        },
        {
          "indexed": true,
          "internalType": "uint256",
          "name": "tokenId",
          "type": "uint256"
        },
        {
          "indexed": false,
          "internalType": "address",
          "name": "seller",
          "type": "address"
        }
      ],
      "name": "SellOfferWithdrawn",
      "type": "event"
    },
    {
      "inputs": [
        {
          "internalType": "address",
          "name": "",
          "type": "address"
        }
      ],
      "name": "Marketplaces",
      "outputs": [
        {
          "internalType": "enum MetaMarketplace.NftType",
          "name": "nft_standard",
          "type": "uint8"
        },
        {
          "internalType": "bool",
          "name": "initialized",
          "type": "bool"
        },
        {
          "internalType": "address payable",
          "name": "collectionOwner",
          "type": "address"
        },
        {
          "internalType": "uint256",
          "name": "ownerFee",
          "type": "uint256"
        }
      ],
      "stateMutability": "view",
      "type": "function"
    },
    {
      "inputs": [
        {
          "internalType": "uint256",
          "name": "promille_fee_",
          "type": "uint256"
        },
        {
          "internalType": "address payable",
          "name": "treasure_fund_",
          "type": "address"
        }
      ],
      "name": "SetServiceFee",
      "outputs": [],
      "stateMutability": "nonpayable",
      "type": "function"
    },
    {
      "inputs": [
        {
          "internalType": "address",
          "name": "nft_contract_",
          "type": "address"
        },
        {
          "internalType": "enum MetaMarketplace.NftType",
          "name": "standard_",
          "type": "uint8"
        },
        {
          "internalType": "address payable",
          "name": "collection_owner_",
          "type": "address"
        },
        {
          "internalType": "uint256",
          "name": "collection_fee_",
          "type": "uint256"
        }
      ],
      "name": "SetUpMarketplace",
      "outputs": [],
      "stateMutability": "nonpayable",
      "type": "function"
    },
    {
      "inputs": [],
      "name": "_treasure_fund",
      "outputs": [
        {
          "internalType": "address payable",
          "name": "",
          "type": "address"
        }
      ],
      "stateMutability": "view",
      "type": "function"
    },
    {
      "inputs": [
        {
          "internalType": "address",
          "name": "token_contract_",
          "type": "address"
        },
        {
          "internalType": "uint256",
          "name": "tokenId",
          "type": "uint256"
        },
        {
          "internalType": "enum CurrenciesERC20.CurrencyERC20",
          "name": "currency_",
          "type": "uint8"
        }
      ],
      "name": "acceptBuyOffer",
      "outputs": [],
      "stateMutability": "nonpayable",
      "type": "function"
    },
    {
      "inputs": [
        {
          "internalType": "uint256",
          "name": "amount",
          "type": "uint256"
        },
        {
          "internalType": "uint256",
          "name": "scale",
          "type": "uint256"
        },
        {
          "internalType": "uint256",
          "name": "promille_fee_",
          "type": "uint256"
        }
      ],
      "name": "calculateAbstractFee",
      "outputs": [
        {
          "internalType": "uint256",
          "name": "",
          "type": "uint256"
        }
      ],
      "stateMutability": "pure",
      "type": "function"
    },
    {
      "inputs": [
        {
          "internalType": "address",
          "name": "nft_contract_",
          "type": "address"
        },
        {
          "internalType": "address payable",
          "name": "collection_owner_",
          "type": "address"
        },
        {
          "internalType": "uint256",
          "name": "collection_fee_",
          "type": "uint256"
        }
      ],
      "name": "editMarketplace",
      "outputs": [],
      "stateMutability": "nonpayable",
      "type": "function"
    },
    {
      "inputs": [
        {
          "internalType": "address",
          "name": "nft_contract",
          "type": "address"
        },
        {
          "internalType": "uint256",
          "name": "token_id",
          "type": "uint256"
        }
      ],
      "name": "getFloorPrices",
      "outputs": [
        {
          "internalType": "uint256[]",
          "name": "",
          "type": "uint256[]"
        }
      ],
      "stateMutability": "view",
      "type": "function"
    },
    {
      "inputs": [
        {
          "internalType": "address",
          "name": "token_contract_",
          "type": "address"
        },
        {
          "internalType": "uint256",
          "name": "_tokenId",
          "type": "uint256"
        }
      ],
      "name": "getLastPrice",
      "outputs": [
        {
          "internalType": "uint256",
          "name": "_lastPrice",
          "type": "uint256"
        },
        {
          "internalType": "enum CurrenciesERC20.CurrencyERC20",
          "name": "currency_",
          "type": "uint8"
        }
      ],
      "stateMutability": "view",
      "type": "function"
    },
    {
      "inputs": [
        {
          "internalType": "address",
          "name": "token_contract_",
          "type": "address"
        },
        {
          "internalType": "uint256",
          "name": "tokenId",
          "type": "uint256"
        },
        {
          "internalType": "enum CurrenciesERC20.CurrencyERC20",
          "name": "currency_",
          "type": "uint8"
        },
        {
          "internalType": "uint256",
          "name": "bid_price_",
          "type": "uint256"
        }
      ],
      "name": "makeBuyOffer",
      "outputs": [],
      "stateMutability": "nonpayable",
      "type": "function"
    },
    {
      "inputs": [
        {
          "internalType": "uint256",
          "name": "tokenId",
          "type": "uint256"
        },
        {
          "internalType": "uint256",
          "name": "minPrice",
          "type": "uint256"
        },
        {
          "internalType": "address",
          "name": "nft_contract_",
          "type": "address"
        },
        {
          "internalType": "enum CurrenciesERC20.CurrencyERC20",
          "name": "currency_",
          "type": "uint8"
        },
        {
          "internalType": "string",
          "name": "category_",
          "type": "string"
        }
      ],
      "name": "makeSellOffer",
      "outputs": [],
      "stateMutability": "nonpayable",
      "type": "function"
    },
    {
      "inputs": [],
      "name": "owner",
      "outputs": [
        {
          "internalType": "address",
          "name": "",
          "type": "address"
        }
      ],
      "stateMutability": "view",
      "type": "function"
    },
    {
      "inputs": [],
      "name": "promille_fee",
      "outputs": [
        {
          "internalType": "uint256",
          "name": "",
          "type": "uint256"
        }
      ],
      "stateMutability": "view",
      "type": "function"
    },
    {
      "inputs": [
        {
          "internalType": "address",
          "name": "token_contract_",
          "type": "address"
        },
        {
          "internalType": "uint256",
          "name": "tokenId",
          "type": "uint256"
        },
        {
          "internalType": "enum CurrenciesERC20.CurrencyERC20",
          "name": "currency_",
          "type": "uint8"
        },
        {
          "internalType": "uint256",
          "name": "bid_price_",
          "type": "uint256"
        }
      ],
      "name": "purchase",
      "outputs": [],
      "stateMutability": "nonpayable",
      "type": "function"
    },
    {
      "inputs": [],
      "name": "renounceOwnership",
      "outputs": [],
      "stateMutability": "nonpayable",
      "type": "function"
    },
    {
      "inputs": [
        {
          "internalType": "bytes4",
          "name": "interfaceId",
          "type": "bytes4"
        }
      ],
      "name": "supportsInterface",
      "outputs": [
        {
          "internalType": "bool",
          "name": "",
          "type": "bool"
        }
      ],
      "stateMutability": "view",
      "type": "function"
    },
    {
      "inputs": [
        {
          "internalType": "address",
          "name": "newOwner",
          "type": "address"
        }
      ],
      "name": "transferOwnership",
      "outputs": [],
      "stateMutability": "nonpayable",
      "type": "function"
    },
    {
      "inputs": [
        {
          "internalType": "address",
          "name": "token_contract_",
          "type": "address"
        },
        {
          "internalType": "uint256",
          "name": "tokenId",
          "type": "uint256"
        },
        {
          "internalType": "enum CurrenciesERC20.CurrencyERC20",
          "name": "currency_",
          "type": "uint8"
        }
      ],
      "name": "withdrawBuyOffer",
      "outputs": [],
      "stateMutability": "nonpayable",
      "type": "function"
    },
    {
      "inputs": [
        {
          "internalType": "address",
          "name": "nft_contract_",
          "type": "address"
        },
        {
          "internalType": "uint256",
          "name": "tokenId",
          "type": "uint256"
        }
      ],
      "name": "withdrawSellOffer",
      "outputs": [],
      "stateMutability": "nonpayable",
      "type": "function"
    }
  ],
  "bytecode": "0x6080604052600f6003553480156200001657600080fd5b5060405162006fd838038062006fd883398181016040528101906200003c9190620009e3565b6200005c620000506200015260201b60201c565b6200015a60201b60201c565b82600260006101000a81548173ffffffffffffffffffffffffffffffffffffffff021916908373ffffffffffffffffffffffffffffffffffffffff160217905550620000b08260006200021e60201b60201c565b620000f2576040517f08c379a0000000000000000000000000000000000000000000000000000000008152600401620000e99062000b31565b60405180910390fd5b6200010882600083601e620007c660201b60201c565b80600460006101000a81548173ffffffffffffffffffffffffffffffffffffffff021916908373ffffffffffffffffffffffffffffffffffffffff16021790555050505062000c84565b600033905090565b60008060009054906101000a900473ffffffffffffffffffffffffffffffffffffffff169050816000806101000a81548173ffffffffffffffffffffffffffffffffffffffff021916908373ffffffffffffffffffffffffffffffffffffffff1602179055508173ffffffffffffffffffffffffffffffffffffffff168173ffffffffffffffffffffffffffffffffffffffff167f8be0079c531659141344cd1fd0a4f28419497f9722a3daafe3b4186f6b6457e060405160405180910390a35050565b6000600160048111156200025b577f4e487b7100000000000000000000000000000000000000000000000000000000600052602160045260246000fd5b82600481111562000295577f4e487b7100000000000000000000000000000000000000000000000000000000600052602160045260246000fd5b1415620003405760008373ffffffffffffffffffffffffffffffffffffffff166301ffc9a763780e9d6360e01b6040518263ffffffff1660e01b8152600401620002e0919062000af2565b60206040518083038186803b158015620002f957600080fd5b505afa1580156200030e573d6000803e3d6000fd5b505050506040513d601f19601f8201168201806040525081019062000334919062000a39565b905080915050620007c0565b600260048111156200037b577f4e487b7100000000000000000000000000000000000000000000000000000000600052602160045260246000fd5b826004811115620003b5577f4e487b7100000000000000000000000000000000000000000000000000000000600052602160045260246000fd5b1415620004605760008373ffffffffffffffffffffffffffffffffffffffff166301ffc9a7635b5e139f60e01b6040518263ffffffff1660e01b815260040162000400919062000af2565b60206040518083038186803b1580156200041957600080fd5b505afa1580156200042e573d6000803e3d6000fd5b505050506040513d601f19601f8201168201806040525081019062000454919062000a39565b905080915050620007c0565b600360048111156200049b577f4e487b7100000000000000000000000000000000000000000000000000000000600052602160045260246000fd5b826004811115620004d5577f4e487b7100000000000000000000000000000000000000000000000000000000600052602160045260246000fd5b1415620005805760008373ffffffffffffffffffffffffffffffffffffffff166301ffc9a76380ac58cd60e01b6040518263ffffffff1660e01b815260040162000520919062000af2565b60206040518083038186803b1580156200053957600080fd5b505afa1580156200054e573d6000803e3d6000fd5b505050506040513d601f19601f8201168201806040525081019062000574919062000a39565b905080915050620007c0565b60006004811115620005bb577f4e487b7100000000000000000000000000000000000000000000000000000000600052602160045260246000fd5b826004811115620005f5577f4e487b7100000000000000000000000000000000000000000000000000000000600052602160045260246000fd5b1415620006a05760008373ffffffffffffffffffffffffffffffffffffffff166301ffc9a7635b5e139f60e01b6040518263ffffffff1660e01b815260040162000640919062000af2565b60206040518083038186803b1580156200065957600080fd5b505afa1580156200066e573d6000803e3d6000fd5b505050506040513d601f19601f8201168201806040525081019062000694919062000a39565b905080915050620007c0565b600480811115620006da577f4e487b7100000000000000000000000000000000000000000000000000000000600052602160045260246000fd5b82600481111562000714577f4e487b7100000000000000000000000000000000000000000000000000000000600052602160045260246000fd5b1415620007bf5760008373ffffffffffffffffffffffffffffffffffffffff166301ffc9a7635b5e139f60e01b6040518263ffffffff1660e01b81526004016200075f919062000af2565b60206040518083038186803b1580156200077857600080fd5b505afa1580156200078d573d6000803e3d6000fd5b505050506040513d601f19601f82011682018060405250810190620007b3919062000a39565b905080915050620007c0565b5b92915050565b60001515600160008673ffffffffffffffffffffffffffffffffffffffff1673ffffffffffffffffffffffffffffffffffffffff16815260200190815260200160002060040160019054906101000a900460ff161515146200085f576040517f08c379a0000000000000000000000000000000000000000000000000000000008152600401620008569062000b0f565b60405180910390fd5b6000600160008673ffffffffffffffffffffffffffffffffffffffff1673ffffffffffffffffffffffffffffffffffffffff1681526020019081526020016000209050838160040160006101000a81548160ff02191690836004811115620008f0577f4e487b7100000000000000000000000000000000000000000000000000000000600052602160045260246000fd5b021790555060018160040160016101000a81548160ff021916908315150217905550828160040160026101000a81548173ffffffffffffffffffffffffffffffffffffffff021916908373ffffffffffffffffffffffffffffffffffffffff1602179055508181600501819055507f11f8cd014e58379583c686140218c2c5d4a9cf8f7c57e152fdfaed66d627c6ed856040516200098f919062000ad5565b60405180910390a15050505050565b600081519050620009af8162000c36565b92915050565b600081519050620009c68162000c50565b92915050565b600081519050620009dd8162000c6a565b92915050565b600080600060608486031215620009f957600080fd5b600062000a09868287016200099e565b935050602062000a1c868287016200099e565b925050604062000a2f86828701620009b5565b9150509250925092565b60006020828403121562000a4c57600080fd5b600062000a5c84828501620009cc565b91505092915050565b62000a708162000b64565b82525050565b62000a818162000b98565b82525050565b600062000a9660208362000b53565b915062000aa38262000be4565b602082019050919050565b600062000abd60168362000b53565b915062000aca8262000c0d565b602082019050919050565b600060208201905062000aec600083018462000a65565b92915050565b600060208201905062000b09600083018462000a76565b92915050565b6000602082019050818103600083015262000b2a8162000a87565b9050919050565b6000602082019050818103600083015262000b4c8162000aae565b9050919050565b600082825260208201905092915050565b600062000b718262000bc4565b9050919050565b600062000b858262000bc4565b9050919050565b60008115159050919050565b60007fffffffff0000000000000000000000000000000000000000000000000000000082169050919050565b600073ffffffffffffffffffffffffffffffffffffffff82169050919050565b7f4d61726b6574706c61636520697320616c726561647920736574746564207570600082015250565b7f5374616e64617264206e6f7420737570706f7274656400000000000000000000600082015250565b62000c418162000b64565b811462000c4d57600080fd5b50565b62000c5b8162000b78565b811462000c6757600080fd5b50565b62000c758162000b8c565b811462000c8157600080fd5b50565b6163448062000c946000396000f3fe608060405234801561001057600080fd5b50600436106101215760003560e01c806357194e12116100ad5780639e5fea12116100715780639e5fea12146102df578063f2fde38b1461030f578063f82ffff21461032b578063fa75c8c514610347578063fa7a54051461037a57610121565b806357194e1214610261578063586e55761461027d578063715018a61461029b5780638813a44b146102a55780638da5cb5b146102c157610121565b806336ea6178116100f457806336ea6178146101bf5780633d56bb9f146101ef578063433231f31461020d5780634ee298dd14610229578063505adff41461024557610121565b806301ffc9a7146101265780630e079c4d146101565780631922cb8d1461017257806322bb5fca146101a3575b600080fd5b610140600480360381019061013b9190614bde565b610396565b60405161014d9190615363565b60405180910390f35b610170600480360381019061016b9190614ac7565b610400565b005b61018c60048036038101906101879190614ac7565b610852565b60405161019a929190615719565b60405180910390f35b6101bd60048036038101906101b89190614a15565b6108e3565b005b6101d960048036038101906101d49190614d24565b610a16565b6040516101e691906156fe565b60405180910390f35b6101f7610adf565b60405161020491906156fe565b60405180910390f35b61022760048036038101906102229190614b03565b610ae5565b005b610243600480360381019061023e9190614c95565b611106565b005b61025f600480360381019061025a9190614c59565b611600565b005b61027b60048036038101906102769190614b03565b611654565b005b610285611e80565b604051610292919061522f565b60405180910390f35b6102a3611ea6565b005b6102bf60048036038101906102ba9190614b52565b611eba565b005b6102c961299f565b6040516102d69190615214565b60405180910390f35b6102f960048036038101906102f49190614ac7565b6129c8565b6040516103069190615341565b60405180910390f35b610329600480360381019061032491906149c3565b612f00565b005b61034560048036038101906103409190614a64565b612f84565b005b610361600480360381019061035c91906149c3565b613156565b6040516103719493929190615399565b60405180910390f35b610394600480360381019061038f9190614b52565b6131c0565b005b60007f01ffc9a7000000000000000000000000000000000000000000000000000000007bffffffffffffffffffffffffffffffffffffffffffffffffffffffff1916827bffffffffffffffffffffffffffffffffffffffffffffffffffffffff1916149050919050565b8160011515600160008373ffffffffffffffffffffffffffffffffffffffff1673ffffffffffffffffffffffffffffffffffffffff16815260200190815260200160002060040160019054906101000a900460ff16151514610497576040517f08c379a000000000000000000000000000000000000000000000000000000000815260040161048e9061553e565b60405180910390fd5b818360011515600160008373ffffffffffffffffffffffffffffffffffffffff1673ffffffffffffffffffffffffffffffffffffffff16815260200190815260200160002060040160019054906101000a900460ff1615151461052f576040517f08c379a00000000000000000000000000000000000000000000000000000000081526004016105269061553e565b60405180910390fd5b60008190503073ffffffffffffffffffffffffffffffffffffffff168173ffffffffffffffffffffffffffffffffffffffff1663081812fc856040518263ffffffff1660e01b815260040161058491906156fe565b60206040518083038186803b15801561059c57600080fd5b505afa1580156105b0573d6000803e3d6000fd5b505050506040513d601f19601f820116820180604052508101906105d491906149ec565b73ffffffffffffffffffffffffffffffffffffffff161461062a576040517f08c379a0000000000000000000000000000000000000000000000000000000008152600401610621906154fe565b60405180910390fd5b6000600160008873ffffffffffffffffffffffffffffffffffffffff1673ffffffffffffffffffffffffffffffffffffffff1681526020019081526020016000209050600073ffffffffffffffffffffffffffffffffffffffff1681600001600088815260200190815260200160002060000160009054906101000a900473ffffffffffffffffffffffffffffffffffffffff1673ffffffffffffffffffffffffffffffffffffffff161415610715576040517f08c379a000000000000000000000000000000000000000000000000000000000815260040161070c9061545e565b60405180910390fd5b3373ffffffffffffffffffffffffffffffffffffffff1681600001600088815260200190815260200160002060000160009054906101000a900473ffffffffffffffffffffffffffffffffffffffff1673ffffffffffffffffffffffffffffffffffffffff16146107bb576040517f08c379a00000000000000000000000000000000000000000000000000000000081526004016107b29061569e565b60405180910390fd5b806000016000878152602001908152602001600020600080820160006101000a81549073ffffffffffffffffffffffffffffffffffffffff02191690555050858773ffffffffffffffffffffffffffffffffffffffff167fce00375f5a3b9c4a857fc9fa1b243f1af9b10a7db9d2d47227fe8217003c9ad4336040516108419190615214565b60405180910390a350505050505050565b6000806000600160008673ffffffffffffffffffffffffffffffffffffffff1673ffffffffffffffffffffffffffffffffffffffff168152602001908152602001600020905080600201600085815260200190815260200160002060000154925080600201600085815260200190815260200160002060010160009054906101000a900460ff169150509250929050565b6108eb61396c565b60011515600160008573ffffffffffffffffffffffffffffffffffffffff1673ffffffffffffffffffffffffffffffffffffffff16815260200190815260200160002060040160019054906101000a900460ff16151514610981576040517f08c379a00000000000000000000000000000000000000000000000000000000081526004016109789061551e565b60405180910390fd5b6000600160008573ffffffffffffffffffffffffffffffffffffffff1673ffffffffffffffffffffffffffffffffffffffff1681526020019081526020016000209050828160040160026101000a81548173ffffffffffffffffffffffffffffffffffffffff021916908373ffffffffffffffffffffffffffffffffffffffff16021790555081816005018190555050505050565b6000808385610a259190615893565b905060008486610a359190615add565b905060008585610a459190615893565b905060008686610a559190615add565b9050866001888386610a6791906158c4565b610a71919061583d565b610a7b919061591e565b610a859190615893565b8284610a9191906158c4565b8286610a9d91906158c4565b898588610aaa91906158c4565b610ab491906158c4565b610abe919061583d565b610ac8919061583d565b610ad2919061583d565b9450505050509392505050565b60035481565b8260011515600160008373ffffffffffffffffffffffffffffffffffffffff1673ffffffffffffffffffffffffffffffffffffffff16815260200190815260200160002060040160019054906101000a900460ff16151514610b7c576040517f08c379a0000000000000000000000000000000000000000000000000000000008152600401610b739061553e565b60405180910390fd5b8284836000600160008473ffffffffffffffffffffffffffffffffffffffff1673ffffffffffffffffffffffffffffffffffffffff16815260200190815260200160002090506201518042610bd1919061591e565b8160010160008681526020019081526020016000206000846005811115610c21577f4e487b7100000000000000000000000000000000000000000000000000000000600052602160045260246000fd5b6005811115610c59577f4e487b7100000000000000000000000000000000000000000000000000000000600052602160045260246000fd5b81526020019081526020016000206002015410610cab576040517f08c379a0000000000000000000000000000000000000000000000000000000008152600401610ca29061561e565b60405180910390fd5b6000600160008a73ffffffffffffffffffffffffffffffffffffffff1673ffffffffffffffffffffffffffffffffffffffff16815260200190815260200160002090503373ffffffffffffffffffffffffffffffffffffffff168160010160008a81526020019081526020016000206000896005811115610d55577f4e487b7100000000000000000000000000000000000000000000000000000000600052602160045260246000fd5b6005811115610d8d577f4e487b7100000000000000000000000000000000000000000000000000000000600052602160045260246000fd5b815260200190815260200160002060000160009054906101000a900473ffffffffffffffffffffffffffffffffffffffff1673ffffffffffffffffffffffffffffffffffffffff1614610e15576040517f08c379a0000000000000000000000000000000000000000000000000000000008152600401610e0c9061567e565b60405180910390fd5b60008160030160003373ffffffffffffffffffffffffffffffffffffffff1673ffffffffffffffffffffffffffffffffffffffff16815260200190815260200160002060008a81526020019081526020016000206000896005811115610ea4577f4e487b7100000000000000000000000000000000000000000000000000000000600052602160045260246000fd5b6005811115610edc577f4e487b7100000000000000000000000000000000000000000000000000000000600052602160045260246000fd5b81526020019081526020016000205490506000811115610f0257610f018833836139ea565b5b60008260030160003373ffffffffffffffffffffffffffffffffffffffff1673ffffffffffffffffffffffffffffffffffffffff16815260200190815260200160002060008b815260200190815260200160002060008a6005811115610f91577f4e487b7100000000000000000000000000000000000000000000000000000000600052602160045260246000fd5b6005811115610fc9577f4e487b7100000000000000000000000000000000000000000000000000000000600052602160045260246000fd5b8152602001908152602001600020819055508160010160008a8152602001908152602001600020600089600581111561102b577f4e487b7100000000000000000000000000000000000000000000000000000000600052602160045260246000fd5b6005811115611063577f4e487b7100000000000000000000000000000000000000000000000000000000600052602160045260246000fd5b8152602001908152602001600020600080820160006101000a81549073ffffffffffffffffffffffffffffffffffffffff0219169055600182016000905560028201600090555050888a73ffffffffffffffffffffffffffffffffffffffff167fe3805436fa14d9349d05b8c9a073e53c4502637d37ec34b3f050d3946faea1da336040516110f29190615214565b60405180910390a350505050505050505050565b8260011515600160008373ffffffffffffffffffffffffffffffffffffffff1673ffffffffffffffffffffffffffffffffffffffff16815260200190815260200160002060040160019054906101000a900460ff1615151461119d576040517f08c379a00000000000000000000000000000000000000000000000000000000081526004016111949061553e565b60405180910390fd5b858460011515600160008373ffffffffffffffffffffffffffffffffffffffff1673ffffffffffffffffffffffffffffffffffffffff16815260200190815260200160002060040160019054906101000a900460ff16151514611235576040517f08c379a000000000000000000000000000000000000000000000000000000000815260040161122c9061553e565b60405180910390fd5b60008190503073ffffffffffffffffffffffffffffffffffffffff168173ffffffffffffffffffffffffffffffffffffffff1663081812fc856040518263ffffffff1660e01b815260040161128a91906156fe565b60206040518083038186803b1580156112a257600080fd5b505afa1580156112b6573d6000803e3d6000fd5b505050506040513d601f19601f820116820180604052508101906112da91906149ec565b73ffffffffffffffffffffffffffffffffffffffff1614611330576040517f08c379a0000000000000000000000000000000000000000000000000000000008152600401611327906154fe565b60405180910390fd5b888760008190503373ffffffffffffffffffffffffffffffffffffffff168173ffffffffffffffffffffffffffffffffffffffff16636352211e856040518263ffffffff1660e01b815260040161138791906156fe565b60206040518083038186803b15801561139f57600080fd5b505afa1580156113b3573d6000803e3d6000fd5b505050506040513d601f19601f820116820180604052508101906113d791906149ec565b73ffffffffffffffffffffffffffffffffffffffff161461142d576040517f08c379a0000000000000000000000000000000000000000000000000000000008152600401611424906156be565b60405180910390fd5b6000600160008c73ffffffffffffffffffffffffffffffffffffffff1673ffffffffffffffffffffffffffffffffffffffff16815260200190815260200160002090508b8160000160008f815260200190815260200160002060010160008c60058111156114c4577f4e487b7100000000000000000000000000000000000000000000000000000000600052602160045260246000fd5b60058111156114fc577f4e487b7100000000000000000000000000000000000000000000000000000000600052602160045260246000fd5b815260200190815260200160002081905550338160000160008f815260200190815260200160002060000160006101000a81548173ffffffffffffffffffffffffffffffffffffffff021916908373ffffffffffffffffffffffffffffffffffffffff1602179055507fff04060fdb1ade3f35e2fbbdae70256ab6294fe60ce3e63dfcd01d39a73e462f8b8e338f60405161159a94939291906152fc565b60405180910390a1886040516115b091906151fd565b60405180910390207fa7fa1aea4d0dfc215e51c776b14941c757ea04d91fcbf8a96f84ef37ccd6085a8c8f6040516115e99291906152d3565b60405180910390a250505050505050505050505050565b61160861396c565b8160038190555080600460006101000a81548173ffffffffffffffffffffffffffffffffffffffff021916908373ffffffffffffffffffffffffffffffffffffffff1602179055505050565b818360011515600160008373ffffffffffffffffffffffffffffffffffffffff1673ffffffffffffffffffffffffffffffffffffffff16815260200190815260200160002060040160019054906101000a900460ff161515146116ec576040517f08c379a00000000000000000000000000000000000000000000000000000000081526004016116e39061553e565b60405180910390fd5b60008190503073ffffffffffffffffffffffffffffffffffffffff168173ffffffffffffffffffffffffffffffffffffffff1663081812fc856040518263ffffffff1660e01b815260040161174191906156fe565b60206040518083038186803b15801561175957600080fd5b505afa15801561176d573d6000803e3d6000fd5b505050506040513d601f19601f8201168201806040525081019061179191906149ec565b73ffffffffffffffffffffffffffffffffffffffff16146117e7576040517f08c379a00000000000000000000000000000000000000000000000000000000081526004016117de906154fe565b60405180910390fd5b848660008190503373ffffffffffffffffffffffffffffffffffffffff168173ffffffffffffffffffffffffffffffffffffffff16636352211e856040518263ffffffff1660e01b815260040161183e91906156fe565b60206040518083038186803b15801561185657600080fd5b505afa15801561186a573d6000803e3d6000fd5b505050506040513d601f19601f8201168201806040525081019061188e91906149ec565b73ffffffffffffffffffffffffffffffffffffffff16146118e4576040517f08c379a00000000000000000000000000000000000000000000000000000000081526004016118db906156be565b60405180910390fd5b6000600160008b73ffffffffffffffffffffffffffffffffffffffff1673ffffffffffffffffffffffffffffffffffffffff168152602001908152602001600020905060008160010160008b815260200190815260200160002060008a6005811115611979577f4e487b7100000000000000000000000000000000000000000000000000000000600052602160045260246000fd5b60058111156119b1577f4e487b7100000000000000000000000000000000000000000000000000000000600052602160045260246000fd5b815260200190815260200160002060000160009054906101000a900473ffffffffffffffffffffffffffffffffffffffff169050600073ffffffffffffffffffffffffffffffffffffffff168173ffffffffffffffffffffffffffffffffffffffff161415611a55576040517f08c379a0000000000000000000000000000000000000000000000000000000008152600401611a4c906155fe565b60405180910390fd5b60008260010160008c815260200190815260200160002060008b6005811115611aa7577f4e487b7100000000000000000000000000000000000000000000000000000000600052602160045260246000fd5b6005811115611adf577f4e487b7100000000000000000000000000000000000000000000000000000000600052602160045260246000fd5b81526020019081526020016000206001015490508260000160008c8152602001908152602001600020600080820160006101000a81549073ffffffffffffffffffffffffffffffffffffffff021916905550508260010160008c815260200190815260200160002060008b6005811115611b82577f4e487b7100000000000000000000000000000000000000000000000000000000600052602160045260246000fd5b6005811115611bba577f4e487b7100000000000000000000000000000000000000000000000000000000600052602160045260246000fd5b8152602001908152602001600020600080820160006101000a81549073ffffffffffffffffffffffffffffffffffffffff021916905560018201600090556002820160009055505060008360030160008473ffffffffffffffffffffffffffffffffffffffff1673ffffffffffffffffffffffffffffffffffffffff16815260200190815260200160002060008d815260200190815260200160002060008c6005811115611c91577f4e487b7100000000000000000000000000000000000000000000000000000000600052602160045260246000fd5b6005811115611cc9577f4e487b7100000000000000000000000000000000000000000000000000000000600052602160045260246000fd5b815260200190815260200160002081905550611ce88c8c8c3385613b6b565b611d27576040517f08c379a0000000000000000000000000000000000000000000000000000000008152600401611d1e906154de565b60405180910390fd5b808360020160008d815260200190815260200160002060000181905550898360020160008d815260200190815260200160002060010160006101000a81548160ff02191690836005811115611da5577f4e487b7100000000000000000000000000000000000000000000000000000000600052602160045260246000fd5b021790555060008c90508073ffffffffffffffffffffffffffffffffffffffff166342842e0e33858f6040518463ffffffff1660e01b8152600401611dec9392919061529c565b600060405180830381600087803b158015611e0657600080fd5b505af1158015611e1a573d6000803e3d6000fd5b505050508b8d73ffffffffffffffffffffffffffffffffffffffff167f3644379fe03acf3b2db463b2b1fb79bfa0a162795d0e7bb0c8a999bd98db8135338686604051611e699392919061529c565b60405180910390a350505050505050505050505050565b600460009054906101000a900473ffffffffffffffffffffffffffffffffffffffff1681565b611eae61396c565b611eb86000613ee5565b565b8360011515600160008373ffffffffffffffffffffffffffffffffffffffff1673ffffffffffffffffffffffffffffffffffffffff16815260200190815260200160002060040160019054906101000a900460ff16151514611f51576040517f08c379a0000000000000000000000000000000000000000000000000000000008152600401611f489061553e565b60405180910390fd5b838560008190503373ffffffffffffffffffffffffffffffffffffffff168173ffffffffffffffffffffffffffffffffffffffff16636352211e856040518263ffffffff1660e01b8152600401611fa891906156fe565b60206040518083038186803b158015611fc057600080fd5b505afa158015611fd4573d6000803e3d6000fd5b505050506040513d601f19601f82011682018060405250810190611ff891906149ec565b73ffffffffffffffffffffffffffffffffffffffff16141561204f576040517f08c379a00000000000000000000000000000000000000000000000000000000081526004016120469061549e565b60405180910390fd5b6000600160008a73ffffffffffffffffffffffffffffffffffffffff1673ffffffffffffffffffffffffffffffffffffffff168152602001908152602001600020905060008160000160008a815260200190815260200160002060010160008960058111156120e7577f4e487b7100000000000000000000000000000000000000000000000000000000600052602160045260246000fd5b600581111561211f577f4e487b7100000000000000000000000000000000000000000000000000000000600052602160045260246000fd5b8152602001908152602001600020541461220f578060000160008981526020019081526020016000206001016000886005811115612186577f4e487b7100000000000000000000000000000000000000000000000000000000600052602160045260246000fd5b60058111156121be577f4e487b7100000000000000000000000000000000000000000000000000000000600052602160045260246000fd5b815260200190815260200160002054861161220e576040517f08c379a00000000000000000000000000000000000000000000000000000000081526004016122059061543e565b60405180910390fd5b5b620151804261221e919061591e565b8160010160008a8152602001908152602001600020600089600581111561226e577f4e487b7100000000000000000000000000000000000000000000000000000000600052602160045260246000fd5b60058111156122a6577f4e487b7100000000000000000000000000000000000000000000000000000000600052602160045260246000fd5b815260200190815260200160002060020154108061235c5750806001016000898152602001908152602001600020600088600581111561230f577f4e487b7100000000000000000000000000000000000000000000000000000000600052602160045260246000fd5b6005811115612347577f4e487b7100000000000000000000000000000000000000000000000000000000600052602160045260246000fd5b81526020019081526020016000206001015486115b61239b576040517f08c379a0000000000000000000000000000000000000000000000000000000008152600401612392906154be565b60405180910390fd5b60008160010160008a815260200190815260200160002060008960058111156123ed577f4e487b7100000000000000000000000000000000000000000000000000000000600052602160045260246000fd5b6005811115612425577f4e487b7100000000000000000000000000000000000000000000000000000000600052602160045260246000fd5b815260200190815260200160002060000160009054906101000a900473ffffffffffffffffffffffffffffffffffffffff16905060008260030160008373ffffffffffffffffffffffffffffffffffffffff1673ffffffffffffffffffffffffffffffffffffffff16815260200190815260200160002060008b815260200190815260200160002060008a60058111156124e8577f4e487b7100000000000000000000000000000000000000000000000000000000600052602160045260246000fd5b6005811115612520577f4e487b7100000000000000000000000000000000000000000000000000000000600052602160045260246000fd5b81526020019081526020016000205490506000811115612546576125458983836139ea565b5b60008360030160008473ffffffffffffffffffffffffffffffffffffffff1673ffffffffffffffffffffffffffffffffffffffff16815260200190815260200160002060008c815260200190815260200160002060008b60058111156125d5577f4e487b7100000000000000000000000000000000000000000000000000000000600052602160045260246000fd5b600581111561260d577f4e487b7100000000000000000000000000000000000000000000000000000000600052602160045260246000fd5b81526020019081526020016000208190555061262a89338a613fa9565b612669576040517f08c379a00000000000000000000000000000000000000000000000000000000081526004016126609061541e565b60405180910390fd5b338360010160008c815260200190815260200160002060008b60058111156126ba577f4e487b7100000000000000000000000000000000000000000000000000000000600052602160045260246000fd5b60058111156126f2577f4e487b7100000000000000000000000000000000000000000000000000000000600052602160045260246000fd5b815260200190815260200160002060000160006101000a81548173ffffffffffffffffffffffffffffffffffffffff021916908373ffffffffffffffffffffffffffffffffffffffff160217905550878360010160008c815260200190815260200160002060008b6005811115612792577f4e487b7100000000000000000000000000000000000000000000000000000000600052602160045260246000fd5b60058111156127ca577f4e487b7100000000000000000000000000000000000000000000000000000000600052602160045260246000fd5b815260200190815260200160002060010181905550428360010160008c815260200190815260200160002060008b6005811115612830577f4e487b7100000000000000000000000000000000000000000000000000000000600052602160045260246000fd5b6005811115612868577f4e487b7100000000000000000000000000000000000000000000000000000000600052602160045260246000fd5b815260200190815260200160002060020181905550878360030160003373ffffffffffffffffffffffffffffffffffffffff1673ffffffffffffffffffffffffffffffffffffffff16815260200190815260200160002060008c815260200190815260200160002060008b600581111561290b577f4e487b7100000000000000000000000000000000000000000000000000000000600052602160045260246000fd5b6005811115612943577f4e487b7100000000000000000000000000000000000000000000000000000000600052602160045260246000fd5b8152602001908152602001600020819055507f61e99c5925f0917c808d292f464c28394c472db57c537b76eb60db90a49420ed8b8b338b60405161298a94939291906152fc565b60405180910390a15050505050505050505050565b60008060009054906101000a900473ffffffffffffffffffffffffffffffffffffffff16905090565b60606000600160008573ffffffffffffffffffffffffffffffffffffffff1673ffffffffffffffffffffffffffffffffffffffff1681526020019081526020016000209050600081600001600085815260200190815260200160002090506060816001016000806005811115612a67577f4e487b7100000000000000000000000000000000000000000000000000000000600052602160045260246000fd5b6005811115612a9f577f4e487b7100000000000000000000000000000000000000000000000000000000600052602160045260246000fd5b81526020019081526020016000205481600081518110612ae8577f4e487b7100000000000000000000000000000000000000000000000000000000600052603260045260246000fd5b60200260200101818152505081600101600060016005811115612b34577f4e487b7100000000000000000000000000000000000000000000000000000000600052602160045260246000fd5b6005811115612b6c577f4e487b7100000000000000000000000000000000000000000000000000000000600052602160045260246000fd5b81526020019081526020016000205481600181518110612bb5577f4e487b7100000000000000000000000000000000000000000000000000000000600052603260045260246000fd5b60200260200101818152505081600101600060026005811115612c01577f4e487b7100000000000000000000000000000000000000000000000000000000600052602160045260246000fd5b6005811115612c39577f4e487b7100000000000000000000000000000000000000000000000000000000600052602160045260246000fd5b81526020019081526020016000205481600281518110612c82577f4e487b7100000000000000000000000000000000000000000000000000000000600052603260045260246000fd5b60200260200101818152505081600101600060036005811115612cce577f4e487b7100000000000000000000000000000000000000000000000000000000600052602160045260246000fd5b6005811115612d06577f4e487b7100000000000000000000000000000000000000000000000000000000600052602160045260246000fd5b81526020019081526020016000205481600381518110612d4f577f4e487b7100000000000000000000000000000000000000000000000000000000600052603260045260246000fd5b60200260200101818152505081600101600060046005811115612d9b577f4e487b7100000000000000000000000000000000000000000000000000000000600052602160045260246000fd5b6005811115612dd3577f4e487b7100000000000000000000000000000000000000000000000000000000600052602160045260246000fd5b81526020019081526020016000205481600481518110612e1c577f4e487b7100000000000000000000000000000000000000000000000000000000600052603260045260246000fd5b602002602001018181525050816001016000600580811115612e67577f4e487b7100000000000000000000000000000000000000000000000000000000600052602160045260246000fd5b6005811115612e9f577f4e487b7100000000000000000000000000000000000000000000000000000000600052602160045260246000fd5b81526020019081526020016000205481600581518110612ee8577f4e487b7100000000000000000000000000000000000000000000000000000000600052603260045260246000fd5b60200260200101818152505080935050505092915050565b612f0861396c565b600073ffffffffffffffffffffffffffffffffffffffff168173ffffffffffffffffffffffffffffffffffffffff161415612f78576040517f08c379a0000000000000000000000000000000000000000000000000000000008152600401612f6f9061547e565b60405180910390fd5b612f8181613ee5565b50565b60001515600160008673ffffffffffffffffffffffffffffffffffffffff1673ffffffffffffffffffffffffffffffffffffffff16815260200190815260200160002060040160019054906101000a900460ff1615151461301a576040517f08c379a0000000000000000000000000000000000000000000000000000000008152600401613011906153fe565b60405180910390fd5b6000600160008673ffffffffffffffffffffffffffffffffffffffff1673ffffffffffffffffffffffffffffffffffffffff1681526020019081526020016000209050838160040160006101000a81548160ff021916908360048111156130aa577f4e487b7100000000000000000000000000000000000000000000000000000000600052602160045260246000fd5b021790555060018160040160016101000a81548160ff021916908315150217905550828160040160026101000a81548173ffffffffffffffffffffffffffffffffffffffff021916908373ffffffffffffffffffffffffffffffffffffffff1602179055508181600501819055507f11f8cd014e58379583c686140218c2c5d4a9cf8f7c57e152fdfaed66d627c6ed856040516131479190615214565b60405180910390a15050505050565b60016020528060005260406000206000915090508060040160009054906101000a900460ff16908060040160019054906101000a900460ff16908060040160029054906101000a900473ffffffffffffffffffffffffffffffffffffffff16908060050154905084565b8360011515600160008373ffffffffffffffffffffffffffffffffffffffff1673ffffffffffffffffffffffffffffffffffffffff16815260200190815260200160002060040160019054906101000a900460ff16151514613257576040517f08c379a000000000000000000000000000000000000000000000000000000000815260040161324e9061553e565b60405180910390fd5b838560008190503373ffffffffffffffffffffffffffffffffffffffff168173ffffffffffffffffffffffffffffffffffffffff16636352211e856040518263ffffffff1660e01b81526004016132ae91906156fe565b60206040518083038186803b1580156132c657600080fd5b505afa1580156132da573d6000803e3d6000fd5b505050506040513d601f19601f820116820180604052508101906132fe91906149ec565b73ffffffffffffffffffffffffffffffffffffffff161415613355576040517f08c379a000000000000000000000000000000000000000000000000000000000815260040161334c9061549e565b60405180910390fd5b6000600160008a73ffffffffffffffffffffffffffffffffffffffff1673ffffffffffffffffffffffffffffffffffffffff168152602001908152602001600020905060008160000160008a815260200190815260200160002060000160009054906101000a900473ffffffffffffffffffffffffffffffffffffffff169050600073ffffffffffffffffffffffffffffffffffffffff168173ffffffffffffffffffffffffffffffffffffffff161415613445576040517f08c379a000000000000000000000000000000000000000000000000000000000815260040161343c906155de565b60405180910390fd5b60008a90503073ffffffffffffffffffffffffffffffffffffffff168173ffffffffffffffffffffffffffffffffffffffff1663081812fc8c6040518263ffffffff1660e01b815260040161349a91906156fe565b60206040518083038186803b1580156134b257600080fd5b505afa1580156134c6573d6000803e3d6000fd5b505050506040513d601f19601f820116820180604052508101906134ea91906149ec565b73ffffffffffffffffffffffffffffffffffffffff16146135ce578260000160008b8152602001908152602001600020600080820160006101000a81549073ffffffffffffffffffffffffffffffffffffffff02191690555050898b73ffffffffffffffffffffffffffffffffffffffff167fce00375f5a3b9c4a857fc9fa1b243f1af9b10a7db9d2d47227fe8217003c9ad48460405161358b9190615214565b60405180910390a36040517f08c379a00000000000000000000000000000000000000000000000000000000081526004016135c59061559e565b60405180910390fd5b60008360000160008c815260200190815260200160002060010160008b6005811115613623577f4e487b7100000000000000000000000000000000000000000000000000000000600052602160045260246000fd5b600581111561365b577f4e487b7100000000000000000000000000000000000000000000000000000000600052602160045260246000fd5b815260200190815260200160002054116136aa576040517f08c379a00000000000000000000000000000000000000000000000000000000081526004016136a19061563e565b60405180910390fd5b8260000160008b815260200190815260200160002060010160008a60058111156136fd577f4e487b7100000000000000000000000000000000000000000000000000000000600052602160045260246000fd5b6005811115613735577f4e487b7100000000000000000000000000000000000000000000000000000000600052602160045260246000fd5b815260200190815260200160002054881015613786576040517f08c379a000000000000000000000000000000000000000000000000000000000815260040161377d906156de565b60405180910390fd5b600015156137988c8c8c33878e614133565b151514156137db576040517f08c379a00000000000000000000000000000000000000000000000000000000081526004016137d29061565e565b60405180910390fd5b878360020160008c815260200190815260200160002060000181905550888360020160008c815260200190815260200160002060010160006101000a81548160ff02191690836005811115613859577f4e487b7100000000000000000000000000000000000000000000000000000000600052602160045260246000fd5b02179055508073ffffffffffffffffffffffffffffffffffffffff166342842e0e83338d6040518463ffffffff1660e01b815260040161389b9392919061529c565b600060405180830381600087803b1580156138b557600080fd5b505af11580156138c9573d6000803e3d6000fd5b505050508260000160008b8152602001908152602001600020600080820160006101000a81549073ffffffffffffffffffffffffffffffffffffffff02191690555050898b73ffffffffffffffffffffffffffffffffffffffff167f3644379fe03acf3b2db463b2b1fb79bfa0a162795d0e7bb0c8a999bd98db813584338c6040516139579392919061529c565b60405180910390a35050505050505050505050565b613974614620565b73ffffffffffffffffffffffffffffffffffffffff1661399261299f565b73ffffffffffffffffffffffffffffffffffffffff16146139e8576040517f08c379a00000000000000000000000000000000000000000000000000000000081526004016139df906155be565b60405180910390fd5b565b6000600260009054906101000a900473ffffffffffffffffffffffffffffffffffffffff1673ffffffffffffffffffffffffffffffffffffffff1663dcaf421b856040518263ffffffff1660e01b8152600401613a47919061537e565b60206040518083038186803b158015613a5f57600080fd5b505afa158015613a73573d6000803e3d6000fd5b505050506040513d601f19601f82011682018060405250810190613a979190614c07565b90508073ffffffffffffffffffffffffffffffffffffffff1663a9059cbb84846040518363ffffffff1660e01b8152600401613ad49291906152d3565b602060405180830381600087803b158015613aee57600080fd5b505af1158015613b02573d6000803e3d6000fd5b505050506040513d601f19601f82011682018060405250810190613b269190614bb5565b613b65576040517f08c379a0000000000000000000000000000000000000000000000000000000008152600401613b5c906153de565b60405180910390fd5b50505050565b600080600260009054906101000a900473ffffffffffffffffffffffffffffffffffffffff1673ffffffffffffffffffffffffffffffffffffffff1663dcaf421b866040518263ffffffff1660e01b8152600401613bc9919061537e565b60206040518083038186803b158015613be157600080fd5b505afa158015613bf5573d6000803e3d6000fd5b505050506040513d601f19601f82011682018060405250810190613c199190614c07565b905060006103e890506000613c2e8583614628565b9050600080613c3d8b886146f4565b80925081935050506000818489613c54919061591e565b613c5e919061591e565b90508573ffffffffffffffffffffffffffffffffffffffff1663a9059cbb8a836040518363ffffffff1660e01b8152600401613c9b9291906152d3565b602060405180830381600087803b158015613cb557600080fd5b505af1158015613cc9573d6000803e3d6000fd5b505050506040513d601f19601f82011682018060405250810190613ced9190614bb5565b508573ffffffffffffffffffffffffffffffffffffffff1663a9059cbb600460009054906101000a900473ffffffffffffffffffffffffffffffffffffffff16866040518363ffffffff1660e01b8152600401613d4b92919061524a565b602060405180830381600087803b158015613d6557600080fd5b505af1158015613d79573d6000803e3d6000fd5b505050506040513d601f19601f82011682018060405250810190613d9d9190614bb5565b506000821115613e73578573ffffffffffffffffffffffffffffffffffffffff1663a9059cbb84846040518363ffffffff1660e01b8152600401613de29291906152d3565b602060405180830381600087803b158015613dfc57600080fd5b505af1158015613e10573d6000803e3d6000fd5b505050506040513d601f19601f82011682018060405250810190613e349190614bb5565b507f5825d7670ca9035e2d333fd7f1cfca7d8e476c3522beb6447f33885ca68a5ed18c8c8585604051613e6a94939291906152fc565b60405180910390a15b7fe1ac6cda82b822e7f388493f39f37748308acbc0a4c3044861e00a2ffaa46f9e888583600460009054906101000a900473ffffffffffffffffffffffffffffffffffffffff16604051613eca9493929190615742565b60405180910390a16001965050505050505095945050505050565b60008060009054906101000a900473ffffffffffffffffffffffffffffffffffffffff169050816000806101000a81548173ffffffffffffffffffffffffffffffffffffffff021916908373ffffffffffffffffffffffffffffffffffffffff1602179055508173ffffffffffffffffffffffffffffffffffffffff168173ffffffffffffffffffffffffffffffffffffffff167f8be0079c531659141344cd1fd0a4f28419497f9722a3daafe3b4186f6b6457e060405160405180910390a35050565b600080600260009054906101000a900473ffffffffffffffffffffffffffffffffffffffff1673ffffffffffffffffffffffffffffffffffffffff1663dcaf421b866040518263ffffffff1660e01b8152600401614007919061537e565b60206040518083038186803b15801561401f57600080fd5b505afa158015614033573d6000803e3d6000fd5b505050506040513d601f19601f820116820180604052508101906140579190614c07565b90508073ffffffffffffffffffffffffffffffffffffffff166323b872dd8530866040518463ffffffff1660e01b81526004016140969392919061529c565b602060405180830381600087803b1580156140b057600080fd5b505af11580156140c4573d6000803e3d6000fd5b505050506040513d601f19601f820116820180604052508101906140e89190614bb5565b614127576040517f08c379a000000000000000000000000000000000000000000000000000000000815260040161411e9061557e565b60405180910390fd5b60019150509392505050565b600080600260009054906101000a900473ffffffffffffffffffffffffffffffffffffffff1673ffffffffffffffffffffffffffffffffffffffff1663dcaf421b876040518263ffffffff1660e01b8152600401614191919061537e565b60206040518083038186803b1580156141a957600080fd5b505afa1580156141bd573d6000803e3d6000fd5b505050506040513d601f19601f820116820180604052508101906141e19190614c07565b905060008173ffffffffffffffffffffffffffffffffffffffff1663dd62ed3e87306040518363ffffffff1660e01b8152600401614220929190615273565b60206040518083038186803b15801561423857600080fd5b505afa15801561424c573d6000803e3d6000fd5b505050506040513d601f19601f820116820180604052508101906142709190614c30565b90508381101561428557600092505050614616565b60006103e8905060006142988683614628565b90506000806142a78d896146f4565b8092508193505050600081848a6142be919061591e565b6142c8919061591e565b90508673ffffffffffffffffffffffffffffffffffffffff166323b872dd8c308c6040518463ffffffff1660e01b81526004016143079392919061529c565b602060405180830381600087803b15801561432157600080fd5b505af1158015614335573d6000803e3d6000fd5b505050506040513d601f19601f820116820180604052508101906143599190614bb5565b614398576040517f08c379a000000000000000000000000000000000000000000000000000000000815260040161438f9061555e565b60405180910390fd5b8673ffffffffffffffffffffffffffffffffffffffff1663a9059cbb8b836040518363ffffffff1660e01b81526004016143d39291906152d3565b602060405180830381600087803b1580156143ed57600080fd5b505af1158015614401573d6000803e3d6000fd5b505050506040513d601f19601f820116820180604052508101906144259190614bb5565b508673ffffffffffffffffffffffffffffffffffffffff1663a9059cbb600460009054906101000a900473ffffffffffffffffffffffffffffffffffffffff16866040518363ffffffff1660e01b815260040161448392919061524a565b602060405180830381600087803b15801561449d57600080fd5b505af11580156144b1573d6000803e3d6000fd5b505050506040513d601f19601f820116820180604052508101906144d59190614bb5565b5060008211156145ab578673ffffffffffffffffffffffffffffffffffffffff1663a9059cbb84846040518363ffffffff1660e01b815260040161451a9291906152d3565b602060405180830381600087803b15801561453457600080fd5b505af1158015614548573d6000803e3d6000fd5b505050506040513d601f19601f8201168201806040525081019061456c9190614bb5565b507f5825d7670ca9035e2d333fd7f1cfca7d8e476c3522beb6447f33885ca68a5ed18e8e85856040516145a294939291906152fc565b60405180910390a15b7fe1ac6cda82b822e7f388493f39f37748308acbc0a4c3044861e00a2ffaa46f9e898583600460009054906101000a900473ffffffffffffffffffffffffffffffffffffffff166040516146029493929190615742565b60405180910390a160019750505050505050505b9695505050505050565b600033905090565b60008082846146379190615893565b9050600083856146479190615add565b90506000846003546146599190615893565b905060008560035461466b9190615add565b905085600187838661467d91906158c4565b614687919061583d565b614691919061591e565b61469b9190615893565b82846146a791906158c4565b82866146b391906158c4565b8885886146c091906158c4565b6146ca91906158c4565b6146d4919061583d565b6146de919061583d565b6146e8919061583d565b94505050505092915050565b6000806000600160008673ffffffffffffffffffffffffffffffffffffffff1673ffffffffffffffffffffffffffffffffffffffff16815260200190815260200160002060040160009054906101000a900460ff16905060006004811115614785577f4e487b7100000000000000000000000000000000000000000000000000000000600052602160045260246000fd5b8160048111156147be577f4e487b7100000000000000000000000000000000000000000000000000000000600052602160045260246000fd5b14156147fc57600460009054906101000a900473ffffffffffffffffffffffffffffffffffffffff1692506147f5846103e8614628565b9150614881565b6000600160008773ffffffffffffffffffffffffffffffffffffffff1673ffffffffffffffffffffffffffffffffffffffff16815260200190815260200160002090508060040160029054906101000a900473ffffffffffffffffffffffffffffffffffffffff16935060008160050154905061487c866103e883610a16565b935050505b509250929050565b600061489c614897846157ac565b615787565b9050828152602081018484840111156148b457600080fd5b6148bf848285615a6a565b509392505050565b6000813590506148d681616264565b92915050565b6000815190506148eb81616264565b92915050565b6000813590506149008161627b565b92915050565b60008151905061491581616292565b92915050565b60008135905061492a816162a9565b92915050565b60008151905061493f816162c0565b92915050565b600081359050614954816162d7565b92915050565b600081359050614969816162e7565b92915050565b600082601f83011261498057600080fd5b8135614990848260208601614889565b91505092915050565b6000813590506149a8816162f7565b92915050565b6000815190506149bd816162f7565b92915050565b6000602082840312156149d557600080fd5b60006149e3848285016148c7565b91505092915050565b6000602082840312156149fe57600080fd5b6000614a0c848285016148dc565b91505092915050565b600080600060608486031215614a2a57600080fd5b6000614a38868287016148c7565b9350506020614a49868287016148f1565b9250506040614a5a86828701614999565b9150509250925092565b60008060008060808587031215614a7a57600080fd5b6000614a88878288016148c7565b9450506020614a998782880161495a565b9350506040614aaa878288016148f1565b9250506060614abb87828801614999565b91505092959194509250565b60008060408385031215614ada57600080fd5b6000614ae8858286016148c7565b9250506020614af985828601614999565b9150509250929050565b600080600060608486031215614b1857600080fd5b6000614b26868287016148c7565b9350506020614b3786828701614999565b9250506040614b4886828701614945565b9150509250925092565b60008060008060808587031215614b6857600080fd5b6000614b76878288016148c7565b9450506020614b8787828801614999565b9350506040614b9887828801614945565b9250506060614ba987828801614999565b91505092959194509250565b600060208284031215614bc757600080fd5b6000614bd584828501614906565b91505092915050565b600060208284031215614bf057600080fd5b6000614bfe8482850161491b565b91505092915050565b600060208284031215614c1957600080fd5b6000614c2784828501614930565b91505092915050565b600060208284031215614c4257600080fd5b6000614c50848285016149ae565b91505092915050565b60008060408385031215614c6c57600080fd5b6000614c7a85828601614999565b9250506020614c8b858286016148f1565b9150509250929050565b600080600080600060a08688031215614cad57600080fd5b6000614cbb88828901614999565b9550506020614ccc88828901614999565b9450506040614cdd888289016148c7565b9350506060614cee88828901614945565b925050608086013567ffffffffffffffff811115614d0b57600080fd5b614d178882890161496f565b9150509295509295909350565b600080600060608486031215614d3957600080fd5b6000614d4786828701614999565b9350506020614d5886828701614999565b9250506040614d6986828701614999565b9150509250925092565b6000614d7f83836151df565b60208301905092915050565b614d9481615a10565b82525050565b614da381615964565b82525050565b614db281615952565b82525050565b6000614dc3826157ed565b614dcd8185615810565b9350614dd8836157dd565b8060005b83811015614e09578151614df08882614d73565b9750614dfb83615803565b925050600181019050614ddc565b5085935050505092915050565b614e1f81615976565b82525050565b614e2e81615a22565b82525050565b614e3d81615a34565b82525050565b6000614e4e826157f8565b614e588185615832565b9350614e68818560208601615a79565b80840191505092915050565b6000614e81601183615821565b9150614e8c82615bdb565b602082019050919050565b6000614ea4602083615821565b9150614eaf82615c04565b602082019050919050565b6000614ec7604483615821565b9150614ed282615c2d565b606082019050919050565b6000614eea602883615821565b9150614ef582615ca2565b604082019050919050565b6000614f0d600d83615821565b9150614f1882615cf1565b602082019050919050565b6000614f30602683615821565b9150614f3b82615d1a565b604082019050919050565b6000614f53602283615821565b9150614f5e82615d69565b604082019050919050565b6000614f76602883615821565b9150614f8182615db8565b604082019050919050565b6000614f99602e83615821565b9150614fa482615e07565b604082019050919050565b6000614fbc600c83615821565b9150614fc782615e56565b602082019050919050565b6000614fdf601c83615821565b9150614fea82615e7f565b602082019050919050565b6000615002602c83615821565b915061500d82615ea8565b604082019050919050565b6000615025604e83615821565b915061503082615ef7565b606082019050919050565b6000615048605e83615821565b915061505382615f6c565b606082019050919050565b600061506b601283615821565b915061507682615fe1565b602082019050919050565b600061508e602083615821565b91506150998261600a565b602082019050919050565b60006150b1601483615821565b91506150bc82616033565b602082019050919050565b60006150d4600c83615821565b91506150df8261605c565b602082019050919050565b60006150f7601583615821565b915061510282616085565b602082019050919050565b600061511a604783615821565b9150615125826160ae565b606082019050919050565b600061513d603a83615821565b915061514882616123565b604082019050919050565b6000615160600983615821565b915061516b82616172565b602082019050919050565b6000615183600a83615821565b915061518e8261619b565b602082019050919050565b60006151a6600f83615821565b91506151b1826161c4565b602082019050919050565b60006151c9602583615821565b91506151d4826161ed565b604082019050919050565b6151e881615a06565b82525050565b6151f781615a06565b82525050565b60006152098284614e43565b915081905092915050565b60006020820190506152296000830184614da9565b92915050565b60006020820190506152446000830184614d9a565b92915050565b600060408201905061525f6000830185614d8b565b61526c60208301846151ee565b9392505050565b60006040820190506152886000830185614da9565b6152956020830184614da9565b9392505050565b60006060820190506152b16000830186614da9565b6152be6020830185614da9565b6152cb60408301846151ee565b949350505050565b60006040820190506152e86000830185614da9565b6152f560208301846151ee565b9392505050565b60006080820190506153116000830187614da9565b61531e60208301866151ee565b61532b6040830185614da9565b61533860608301846151ee565b95945050505050565b6000602082019050818103600083015261535b8184614db8565b905092915050565b60006020820190506153786000830184614e16565b92915050565b60006020820190506153936000830184614e25565b92915050565b60006080820190506153ae6000830187614e34565b6153bb6020830186614e16565b6153c86040830185614d9a565b6153d560608301846151ee565b95945050505050565b600060208201905081810360008301526153f781614e74565b9050919050565b6000602082019050818103600083015261541781614e97565b9050919050565b6000602082019050818103600083015261543781614eba565b9050919050565b6000602082019050818103600083015261545781614edd565b9050919050565b6000602082019050818103600083015261547781614f00565b9050919050565b6000602082019050818103600083015261549781614f23565b9050919050565b600060208201905081810360008301526154b781614f46565b9050919050565b600060208201905081810360008301526154d781614f69565b9050919050565b600060208201905081810360008301526154f781614f8c565b9050919050565b6000602082019050818103600083015261551781614faf565b9050919050565b6000602082019050818103600083015261553781614fd2565b9050919050565b6000602082019050818103600083015261555781614ff5565b9050919050565b6000602082019050818103600083015261557781615018565b9050919050565b600060208201905081810360008301526155978161503b565b9050919050565b600060208201905081810360008301526155b78161505e565b9050919050565b600060208201905081810360008301526155d781615081565b9050919050565b600060208201905081810360008301526155f7816150a4565b9050919050565b60006020820190508181036000830152615617816150c7565b9050919050565b60006020820190508181036000830152615637816150ea565b9050919050565b600060208201905081810360008301526156578161510d565b9050919050565b6000602082019050818103600083015261567781615130565b9050919050565b6000602082019050818103600083015261569781615153565b9050919050565b600060208201905081810360008301526156b781615176565b9050919050565b600060208201905081810360008301526156d781615199565b9050919050565b600060208201905081810360008301526156f7816151bc565b9050919050565b600060208201905061571360008301846151ee565b92915050565b600060408201905061572e60008301856151ee565b61573b6020830184614e25565b9392505050565b600060808201905061575760008301876151ee565b61576460208301866151ee565b61577160408301856151ee565b61577e6060830184614d8b565b95945050505050565b60006157916157a2565b905061579d8282615aac565b919050565b6000604051905090565b600067ffffffffffffffff8211156157c7576157c6615b9b565b5b6157d082615bca565b9050602081019050919050565b6000819050602082019050919050565b600081519050919050565b600081519050919050565b6000602082019050919050565b600082825260208201905092915050565b600082825260208201905092915050565b600081905092915050565b600061584882615a06565b915061585383615a06565b9250827fffffffffffffffffffffffffffffffffffffffffffffffffffffffffffffffff0382111561588857615887615b0e565b5b828201905092915050565b600061589e82615a06565b91506158a983615a06565b9250826158b9576158b8615b3d565b5b828204905092915050565b60006158cf82615a06565b91506158da83615a06565b9250817fffffffffffffffffffffffffffffffffffffffffffffffffffffffffffffffff048311821515161561591357615912615b0e565b5b828202905092915050565b600061592982615a06565b915061593483615a06565b92508282101561594757615946615b0e565b5b828203905092915050565b600061595d826159e6565b9050919050565b600061596f826159e6565b9050919050565b60008115159050919050565b60007fffffffff0000000000000000000000000000000000000000000000000000000082169050919050565b60006159b982615952565b9050919050565b60008190506159ce8261623c565b919050565b60008190506159e182616250565b919050565b600073ffffffffffffffffffffffffffffffffffffffff82169050919050565b6000819050919050565b6000615a1b82615a46565b9050919050565b6000615a2d826159c0565b9050919050565b6000615a3f826159d3565b9050919050565b6000615a5182615a58565b9050919050565b6000615a63826159e6565b9050919050565b82818337600083830152505050565b60005b83811015615a97578082015181840152602081019050615a7c565b83811115615aa6576000848401525b50505050565b615ab582615bca565b810181811067ffffffffffffffff82111715615ad457615ad3615b9b565b5b80604052505050565b6000615ae882615a06565b9150615af383615a06565b925082615b0357615b02615b3d565b5b828206905092915050565b7f4e487b7100000000000000000000000000000000000000000000000000000000600052601160045260246000fd5b7f4e487b7100000000000000000000000000000000000000000000000000000000600052601260045260246000fd5b7f4e487b7100000000000000000000000000000000000000000000000000000000600052602160045260246000fd5b7f4e487b7100000000000000000000000000000000000000000000000000000000600052604160045260246000fd5b6000601f19601f8301169050919050565b7f43616e27742073656e6420726566756e64000000000000000000000000000000600082015250565b7f4d61726b6574706c61636520697320616c726561647920736574746564207570600082015250565b7f4d6574614d61726b6574706c6163653a2063616e27742070756c6c2066756e6460008201527f732066726f6d20627579657220746f204d61726b6574706c61636520636f6e7460208201527f7261637400000000000000000000000000000000000000000000000000000000604082015250565b7f53656c6c206f726465722061742074686973207072696365206f72206c6f776560008201527f7220657869737473000000000000000000000000000000000000000000000000602082015250565b7f4e6f2073616c65206f6666657200000000000000000000000000000000000000600082015250565b7f4f776e61626c653a206e6577206f776e657220697320746865207a65726f206160008201527f6464726573730000000000000000000000000000000000000000000000000000602082015250565b7f596f752063616e27742062757920746f6b656e2066726f6d20796f757273656c60008201527f6621000000000000000000000000000000000000000000000000000000000000602082015250565b7f50726576696f757320627579206f6666657220686967686572206f72206e6f7460008201527f2065787069726564000000000000000000000000000000000000000000000000602082015250565b7f4d6574614d61726b6574706c6163653a2063616e277420666f7277617264206660008201527f756e647320746f2073656c6c6572000000000000000000000000000000000000602082015250565b7f4e6f7420617070726f7665640000000000000000000000000000000000000000600082015250565b7f4d61726b6574706c616365206973206e6f742065786973742079657400000000600082015250565b7f4d61726b6574706c61636520666f72207468697320746f6b656e206973206e6f60008201527f7420736574757020796574210000000000000000000000000000000000000000602082015250565b7f4d6574614d61726b6574706c6163653a2045524332303a207472616e7366657260008201527f46726f6d20627579657220746f206d6574616d61726b6574706c61636520636f60208201527f6e7472616374206661696c656420000000000000000000000000000000000000604082015250565b7f4d6574614d61726b6574706c6163653a2045524332303a207472616e7366657260008201527f46726f6d20627579657220746f206d6574616d61726b6574706c61636520636f60208201527f6e7472616374206661696c65642c20636865636b20617070726f76616c200000604082015250565b7f496e76616c69642073656c6c206f666665720000000000000000000000000000600082015250565b7f4f776e61626c653a2063616c6c6572206973206e6f7420746865206f776e6572600082015250565b7f4e6f206163746976652073656c6c206f66666572000000000000000000000000600082015250565b7f4e6f20627579206f666665720000000000000000000000000000000000000000600082015250565b7f427579206f66666572206e6f7420657870697265640000000000000000000000600082015250565b7f707269636520666f7220746869732063757272656e637920686173206e6f742060008201527f6265656e207365747465642c20757365206d616b654275794f6666657228292060208201527f696e737465616400000000000000000000000000000000000000000000000000604082015250565b7f417070726f76656420616d6f756e74206973206c6573736572207468616e202860008201527f6269645f70726963655f29206e656564656420746f206465616c000000000000602082015250565b7f4e6f742062757965720000000000000000000000000000000000000000000000600082015250565b7f4e6f742073656c6c657200000000000000000000000000000000000000000000600082015250565b7f4e6f7420746f6b656e206f776e65720000000000000000000000000000000000600082015250565b7f42696420616d6f756e74206c6573736572207468616e2064657369726564207060008201527f7269636521000000000000000000000000000000000000000000000000000000602082015250565b6006811061624d5761624c615b6c565b5b50565b6005811061626157616260615b6c565b5b50565b61626d81615952565b811461627857600080fd5b50565b61628481615964565b811461628f57600080fd5b50565b61629b81615976565b81146162a657600080fd5b50565b6162b281615982565b81146162bd57600080fd5b50565b6162c9816159ae565b81146162d457600080fd5b50565b600681106162e457600080fd5b50565b600581106162f457600080fd5b50565b61630081615a06565b811461630b57600080fd5b5056fea26469706673582212200ca4678f8a54aa5b59b32729f4759eb45a0e658dcd978ef449db8aa8c13333e164736f6c63430008040033",
  "linkReferences": {},
  "deployedLinkReferences": {}
}