{
  "_format": "hh-sol-artifact-1",
  "contractName": "MetaMarketplace",
  "sourceName": "contracts/MetaMarketplace.sol",
  "abi": [
    {
      "inputs": [
        {
          "internalType": "address",
          "name": "currency_contract_",
          "type": "address"
        },
        {
          "internalType": "address",
          "name": "telegram_collection_",
          "type": "address"
        },
        {
          "internalType": "address payable",
          "name": "treasure_fund_",
          "type": "address"
        }
      ],
      "stateMutability": "nonpayable",
      "type": "constructor"
    },
    {
      "anonymous": false,
      "inputs": [
        {
          "indexed": true,
          "internalType": "address",
          "name": "nft_contract_",
          "type": "address"
        },
        {
          "indexed": true,
          "internalType": "uint256",
          "name": "tokenId",
          "type": "uint256"
        },
        {
          "indexed": false,
          "internalType": "address",
          "name": "buyer",
          "type": "address"
        }
      ],
      "name": "BuyOfferWithdrawn",
      "type": "event"
    },
    {
      "anonymous": false,
      "inputs": [
        {
          "indexed": false,
          "internalType": "uint256",
          "name": "initial_value",
          "type": "uint256"
        },
        {
          "indexed": false,
          "internalType": "uint256",
          "name": "fees",
          "type": "uint256"
        },
        {
          "indexed": false,
          "internalType": "uint256",
          "name": "transfered_amount",
          "type": "uint256"
        },
        {
          "indexed": false,
          "internalType": "address",
          "name": "feeAddress",
          "type": "address"
        }
      ],
      "name": "CalculatedFees",
      "type": "event"
    },
    {
      "anonymous": false,
      "inputs": [
        {
          "indexed": false,
          "internalType": "address",
          "name": "nft_contract_",
          "type": "address"
        },
        {
          "indexed": false,
          "internalType": "uint256",
          "name": "tokenId",
          "type": "uint256"
        },
        {
          "indexed": false,
          "internalType": "address",
          "name": "buyer",
          "type": "address"
        },
        {
          "indexed": false,
          "internalType": "uint256",
          "name": "value",
          "type": "uint256"
        }
      ],
      "name": "NewBuyOffer",
      "type": "event"
    },
    {
      "anonymous": false,
      "inputs": [
        {
          "indexed": false,
          "internalType": "address",
          "name": "nft_contract_",
          "type": "address"
        }
      ],
      "name": "NewMarketplace",
      "type": "event"
    },
    {
      "anonymous": false,
      "inputs": [
        {
          "indexed": true,
          "internalType": "string",
          "name": "category",
          "type": "string"
        },
        {
          "indexed": false,
          "internalType": "address",
          "name": "nft_contract_",
          "type": "address"
        },
        {
          "indexed": false,
          "internalType": "uint256",
          "name": "tokenId",
          "type": "uint256"
        }
      ],
      "name": "NewSellCategory",
      "type": "event"
    },
    {
      "anonymous": false,
      "inputs": [
        {
          "indexed": false,
          "internalType": "address",
          "name": "nft_contract_",
          "type": "address"
        },
        {
          "indexed": false,
          "internalType": "uint256",
          "name": "tokenId",
          "type": "uint256"
        },
        {
          "indexed": false,
          "internalType": "address",
          "name": "seller",
          "type": "address"
        },
        {
          "indexed": false,
          "internalType": "uint256",
          "name": "value",
          "type": "uint256"
        }
      ],
      "name": "NewSellOffer",
      "type": "event"
    },
    {
      "anonymous": false,
      "inputs": [
        {
          "indexed": true,
          "internalType": "address",
          "name": "previousOwner",
          "type": "address"
        },
        {
          "indexed": true,
          "internalType": "address",
          "name": "newOwner",
          "type": "address"
        }
      ],
      "name": "OwnershipTransferred",
      "type": "event"
    },
    {
      "anonymous": false,
      "inputs": [
        {
          "indexed": false,
          "internalType": "address",
          "name": "nft_contract_",
          "type": "address"
        },
        {
          "indexed": false,
          "internalType": "uint256",
          "name": "tokenId",
          "type": "uint256"
        },
        {
          "indexed": false,
          "internalType": "address",
          "name": "recepient",
          "type": "address"
        },
        {
          "indexed": false,
          "internalType": "uint256",
          "name": "value",
          "type": "uint256"
        }
      ],
      "name": "RoyaltiesPaid",
      "type": "event"
    },
    {
      "anonymous": false,
      "inputs": [
        {
          "indexed": true,
          "internalType": "address",
          "name": "nft_contract_",
          "type": "address"
        },
        {
          "indexed": true,
          "internalType": "uint256",
          "name": "tokenId",
          "type": "uint256"
        },
        {
          "indexed": false,
          "internalType": "address",
          "name": "seller",
          "type": "address"
        },
        {
          "indexed": false,
          "internalType": "address",
          "name": "buyer",
          "type": "address"
        },
        {
          "indexed": false,
          "internalType": "uint256",
          "name": "value",
          "type": "uint256"
        }
      ],
      "name": "Sale",
      "type": "event"
    },
    {
      "anonymous": false,
      "inputs": [
        {
          "indexed": true,
          "internalType": "address",
          "name": "nft_contract_",
          "type": "address"
        },
        {
          "indexed": true,
          "internalType": "uint256",
          "name": "tokenId",
          "type": "uint256"
        },
        {
          "indexed": false,
          "internalType": "address",
          "name": "seller",
          "type": "address"
        }
      ],
      "name": "SellOfferWithdrawn",
      "type": "event"
    },
    {
      "inputs": [
        {
          "internalType": "address",
          "name": "",
          "type": "address"
        }
      ],
      "name": "Marketplaces",
      "outputs": [
        {
          "internalType": "enum MetaMarketplace.NftType",
          "name": "nft_standard",
          "type": "uint8"
        },
        {
          "internalType": "bool",
          "name": "initialized",
          "type": "bool"
        },
        {
          "internalType": "address payable",
          "name": "collectionOwner",
          "type": "address"
        },
        {
          "internalType": "uint256",
          "name": "ownerFee",
          "type": "uint256"
        }
      ],
      "stateMutability": "view",
      "type": "function"
    },
    {
      "inputs": [
        {
          "internalType": "uint256",
          "name": "promille_fee_",
          "type": "uint256"
        },
        {
          "internalType": "address payable",
          "name": "treasure_fund_",
          "type": "address"
        }
      ],
      "name": "SetServiceFee",
      "outputs": [],
      "stateMutability": "nonpayable",
      "type": "function"
    },
    {
      "inputs": [
        {
          "internalType": "address",
          "name": "nft_contract_",
          "type": "address"
        },
        {
          "internalType": "enum MetaMarketplace.NftType",
          "name": "standard_",
          "type": "uint8"
        },
        {
          "internalType": "address payable",
          "name": "collection_owner_",
          "type": "address"
        },
        {
          "internalType": "uint256",
          "name": "collection_fee_",
          "type": "uint256"
        }
      ],
      "name": "SetUpMarketplace",
      "outputs": [],
      "stateMutability": "nonpayable",
      "type": "function"
    },
    {
      "inputs": [],
      "name": "_treasure_fund",
      "outputs": [
        {
          "internalType": "address payable",
          "name": "",
          "type": "address"
        }
      ],
      "stateMutability": "view",
      "type": "function"
    },
    {
      "inputs": [
        {
          "internalType": "address",
          "name": "token_contract_",
          "type": "address"
        },
        {
          "internalType": "uint256",
          "name": "tokenId",
          "type": "uint256"
        },
        {
          "internalType": "enum CurrenciesERC20.CurrencyERC20",
          "name": "currency_",
          "type": "uint8"
        }
      ],
      "name": "acceptBuyOffer",
      "outputs": [],
      "stateMutability": "nonpayable",
      "type": "function"
    },
    {
      "inputs": [
        {
          "internalType": "uint256",
          "name": "amount",
          "type": "uint256"
        },
        {
          "internalType": "uint256",
          "name": "scale",
          "type": "uint256"
        },
        {
          "internalType": "uint256",
          "name": "promille_fee_",
          "type": "uint256"
        }
      ],
      "name": "calculateAbstractFee",
      "outputs": [
        {
          "internalType": "uint256",
          "name": "",
          "type": "uint256"
        }
      ],
      "stateMutability": "pure",
      "type": "function"
    },
    {
      "inputs": [
        {
          "internalType": "address",
          "name": "nft_contract_",
          "type": "address"
        },
        {
          "internalType": "address payable",
          "name": "collection_owner_",
          "type": "address"
        },
        {
          "internalType": "uint256",
          "name": "collection_fee_",
          "type": "uint256"
        }
      ],
      "name": "editMarketplace",
      "outputs": [],
      "stateMutability": "nonpayable",
      "type": "function"
    },
    {
      "inputs": [
        {
          "internalType": "address",
          "name": "token_contract_",
          "type": "address"
        },
        {
          "internalType": "uint256",
          "name": "_tokenId",
          "type": "uint256"
        }
      ],
      "name": "getLastPrice",
      "outputs": [
        {
          "internalType": "uint256",
          "name": "_lastPrice",
          "type": "uint256"
        },
        {
          "internalType": "enum CurrenciesERC20.CurrencyERC20",
          "name": "currency_",
          "type": "uint8"
        }
      ],
      "stateMutability": "view",
      "type": "function"
    },
    {
      "inputs": [
        {
          "internalType": "address",
          "name": "token_contract_",
          "type": "address"
        },
        {
          "internalType": "uint256",
          "name": "tokenId",
          "type": "uint256"
        },
        {
          "internalType": "enum CurrenciesERC20.CurrencyERC20",
          "name": "currency_",
          "type": "uint8"
        },
        {
          "internalType": "uint256",
          "name": "bid_price_",
          "type": "uint256"
        }
      ],
      "name": "makeBuyOffer",
      "outputs": [],
      "stateMutability": "nonpayable",
      "type": "function"
    },
    {
      "inputs": [
        {
          "internalType": "uint256",
          "name": "tokenId",
          "type": "uint256"
        },
        {
          "internalType": "uint256",
          "name": "minPrice",
          "type": "uint256"
        },
        {
          "internalType": "address",
          "name": "nft_contract_",
          "type": "address"
        },
        {
          "internalType": "enum CurrenciesERC20.CurrencyERC20",
          "name": "currency_",
          "type": "uint8"
        },
        {
          "internalType": "string",
          "name": "category_",
          "type": "string"
        }
      ],
      "name": "makeSellOffer",
      "outputs": [],
      "stateMutability": "nonpayable",
      "type": "function"
    },
    {
      "inputs": [],
      "name": "owner",
      "outputs": [
        {
          "internalType": "address",
          "name": "",
          "type": "address"
        }
      ],
      "stateMutability": "view",
      "type": "function"
    },
    {
      "inputs": [],
      "name": "promille_fee",
      "outputs": [
        {
          "internalType": "uint256",
          "name": "",
          "type": "uint256"
        }
      ],
      "stateMutability": "view",
      "type": "function"
    },
    {
      "inputs": [
        {
          "internalType": "address",
          "name": "token_contract_",
          "type": "address"
        },
        {
          "internalType": "uint256",
          "name": "tokenId",
          "type": "uint256"
        },
        {
          "internalType": "enum CurrenciesERC20.CurrencyERC20",
          "name": "currency_",
          "type": "uint8"
        },
        {
          "internalType": "uint256",
          "name": "bid_price_",
          "type": "uint256"
        }
      ],
      "name": "purchase",
      "outputs": [],
      "stateMutability": "nonpayable",
      "type": "function"
    },
    {
      "inputs": [],
      "name": "renounceOwnership",
      "outputs": [],
      "stateMutability": "nonpayable",
      "type": "function"
    },
    {
      "inputs": [
        {
          "internalType": "bytes4",
          "name": "interfaceId",
          "type": "bytes4"
        }
      ],
      "name": "supportsInterface",
      "outputs": [
        {
          "internalType": "bool",
          "name": "",
          "type": "bool"
        }
      ],
      "stateMutability": "view",
      "type": "function"
    },
    {
      "inputs": [
        {
          "internalType": "address",
          "name": "newOwner",
          "type": "address"
        }
      ],
      "name": "transferOwnership",
      "outputs": [],
      "stateMutability": "nonpayable",
      "type": "function"
    },
    {
      "inputs": [
        {
          "internalType": "address",
          "name": "token_contract_",
          "type": "address"
        },
        {
          "internalType": "uint256",
          "name": "tokenId",
          "type": "uint256"
        },
        {
          "internalType": "enum CurrenciesERC20.CurrencyERC20",
          "name": "currency_",
          "type": "uint8"
        }
      ],
      "name": "withdrawBuyOffer",
      "outputs": [],
      "stateMutability": "nonpayable",
      "type": "function"
    },
    {
      "inputs": [
        {
          "internalType": "address",
          "name": "nft_contract_",
          "type": "address"
        },
        {
          "internalType": "uint256",
          "name": "tokenId",
          "type": "uint256"
        }
      ],
      "name": "withdrawSellOffer",
      "outputs": [],
      "stateMutability": "nonpayable",
      "type": "function"
    }
  ],
  "bytecode": "0x6080604052600f6003553480156200001657600080fd5b50604051620069d9380380620069d983398181016040528101906200003c9190620009e3565b6200005c620000506200015260201b60201c565b6200015a60201b60201c565b82600260006101000a81548173ffffffffffffffffffffffffffffffffffffffff021916908373ffffffffffffffffffffffffffffffffffffffff160217905550620000b08260006200021e60201b60201c565b620000f2576040517f08c379a0000000000000000000000000000000000000000000000000000000008152600401620000e99062000b31565b60405180910390fd5b6200010882600083601e620007c660201b60201c565b80600460006101000a81548173ffffffffffffffffffffffffffffffffffffffff021916908373ffffffffffffffffffffffffffffffffffffffff16021790555050505062000c84565b600033905090565b60008060009054906101000a900473ffffffffffffffffffffffffffffffffffffffff169050816000806101000a81548173ffffffffffffffffffffffffffffffffffffffff021916908373ffffffffffffffffffffffffffffffffffffffff1602179055508173ffffffffffffffffffffffffffffffffffffffff168173ffffffffffffffffffffffffffffffffffffffff167f8be0079c531659141344cd1fd0a4f28419497f9722a3daafe3b4186f6b6457e060405160405180910390a35050565b6000600160048111156200025b577f4e487b7100000000000000000000000000000000000000000000000000000000600052602160045260246000fd5b82600481111562000295577f4e487b7100000000000000000000000000000000000000000000000000000000600052602160045260246000fd5b1415620003405760008373ffffffffffffffffffffffffffffffffffffffff166301ffc9a763780e9d6360e01b6040518263ffffffff1660e01b8152600401620002e0919062000af2565b60206040518083038186803b158015620002f957600080fd5b505afa1580156200030e573d6000803e3d6000fd5b505050506040513d601f19601f8201168201806040525081019062000334919062000a39565b905080915050620007c0565b600260048111156200037b577f4e487b7100000000000000000000000000000000000000000000000000000000600052602160045260246000fd5b826004811115620003b5577f4e487b7100000000000000000000000000000000000000000000000000000000600052602160045260246000fd5b1415620004605760008373ffffffffffffffffffffffffffffffffffffffff166301ffc9a7635b5e139f60e01b6040518263ffffffff1660e01b815260040162000400919062000af2565b60206040518083038186803b1580156200041957600080fd5b505afa1580156200042e573d6000803e3d6000fd5b505050506040513d601f19601f8201168201806040525081019062000454919062000a39565b905080915050620007c0565b600360048111156200049b577f4e487b7100000000000000000000000000000000000000000000000000000000600052602160045260246000fd5b826004811115620004d5577f4e487b7100000000000000000000000000000000000000000000000000000000600052602160045260246000fd5b1415620005805760008373ffffffffffffffffffffffffffffffffffffffff166301ffc9a76380ac58cd60e01b6040518263ffffffff1660e01b815260040162000520919062000af2565b60206040518083038186803b1580156200053957600080fd5b505afa1580156200054e573d6000803e3d6000fd5b505050506040513d601f19601f8201168201806040525081019062000574919062000a39565b905080915050620007c0565b60006004811115620005bb577f4e487b7100000000000000000000000000000000000000000000000000000000600052602160045260246000fd5b826004811115620005f5577f4e487b7100000000000000000000000000000000000000000000000000000000600052602160045260246000fd5b1415620006a05760008373ffffffffffffffffffffffffffffffffffffffff166301ffc9a7635b5e139f60e01b6040518263ffffffff1660e01b815260040162000640919062000af2565b60206040518083038186803b1580156200065957600080fd5b505afa1580156200066e573d6000803e3d6000fd5b505050506040513d601f19601f8201168201806040525081019062000694919062000a39565b905080915050620007c0565b600480811115620006da577f4e487b7100000000000000000000000000000000000000000000000000000000600052602160045260246000fd5b82600481111562000714577f4e487b7100000000000000000000000000000000000000000000000000000000600052602160045260246000fd5b1415620007bf5760008373ffffffffffffffffffffffffffffffffffffffff166301ffc9a7635b5e139f60e01b6040518263ffffffff1660e01b81526004016200075f919062000af2565b60206040518083038186803b1580156200077857600080fd5b505afa1580156200078d573d6000803e3d6000fd5b505050506040513d601f19601f82011682018060405250810190620007b3919062000a39565b905080915050620007c0565b5b92915050565b60001515600160008673ffffffffffffffffffffffffffffffffffffffff1673ffffffffffffffffffffffffffffffffffffffff16815260200190815260200160002060040160019054906101000a900460ff161515146200085f576040517f08c379a0000000000000000000000000000000000000000000000000000000008152600401620008569062000b0f565b60405180910390fd5b6000600160008673ffffffffffffffffffffffffffffffffffffffff1673ffffffffffffffffffffffffffffffffffffffff1681526020019081526020016000209050838160040160006101000a81548160ff02191690836004811115620008f0577f4e487b7100000000000000000000000000000000000000000000000000000000600052602160045260246000fd5b021790555060018160040160016101000a81548160ff021916908315150217905550828160040160026101000a81548173ffffffffffffffffffffffffffffffffffffffff021916908373ffffffffffffffffffffffffffffffffffffffff1602179055508181600501819055507f11f8cd014e58379583c686140218c2c5d4a9cf8f7c57e152fdfaed66d627c6ed856040516200098f919062000ad5565b60405180910390a15050505050565b600081519050620009af8162000c36565b92915050565b600081519050620009c68162000c50565b92915050565b600081519050620009dd8162000c6a565b92915050565b600080600060608486031215620009f957600080fd5b600062000a09868287016200099e565b935050602062000a1c868287016200099e565b925050604062000a2f86828701620009b5565b9150509250925092565b60006020828403121562000a4c57600080fd5b600062000a5c84828501620009cc565b91505092915050565b62000a708162000b64565b82525050565b62000a818162000b98565b82525050565b600062000a9660208362000b53565b915062000aa38262000be4565b602082019050919050565b600062000abd60168362000b53565b915062000aca8262000c0d565b602082019050919050565b600060208201905062000aec600083018462000a65565b92915050565b600060208201905062000b09600083018462000a76565b92915050565b6000602082019050818103600083015262000b2a8162000a87565b9050919050565b6000602082019050818103600083015262000b4c8162000aae565b9050919050565b600082825260208201905092915050565b600062000b718262000bc4565b9050919050565b600062000b858262000bc4565b9050919050565b60008115159050919050565b60007fffffffff0000000000000000000000000000000000000000000000000000000082169050919050565b600073ffffffffffffffffffffffffffffffffffffffff82169050919050565b7f4d61726b6574706c61636520697320616c726561647920736574746564207570600082015250565b7f5374616e64617264206e6f7420737570706f7274656400000000000000000000600082015250565b62000c418162000b64565b811462000c4d57600080fd5b50565b62000c5b8162000b78565b811462000c6757600080fd5b50565b62000c758162000b8c565b811462000c8157600080fd5b50565b615d458062000c946000396000f3fe608060405234801561001057600080fd5b50600436106101165760003560e01c806357194e12116100a25780638da5cb5b116100715780638da5cb5b146102b6578063f2fde38b146102d4578063f82ffff2146102f0578063fa75c8c51461030c578063fa7a54051461033f57610116565b806357194e1214610256578063586e557614610272578063715018a6146102905780638813a44b1461029a57610116565b806336ea6178116100e957806336ea6178146101b45780633d56bb9f146101e4578063433231f3146102025780634ee298dd1461021e578063505adff41461023a57610116565b806301ffc9a71461011b5780630e079c4d1461014b5780631922cb8d1461016757806322bb5fca14610198575b600080fd5b610135600480360381019061013091906146e5565b61035b565b6040516101429190614dc3565b60405180910390f35b610165600480360381019061016091906145ce565b6103d5565b005b610181600480360381019061017c91906145ce565b610827565b60405161018f929190615179565b60405180910390f35b6101b260048036038101906101ad919061451c565b6108b8565b005b6101ce60048036038101906101c9919061482b565b6109eb565b6040516101db919061515e565b60405180910390f35b6101ec610ab4565b6040516101f9919061515e565b60405180910390f35b61021c6004803603810190610217919061460a565b610aba565b005b6102386004803603810190610233919061479c565b6110db565b005b610254600480360381019061024f9190614760565b6115d5565b005b610270600480360381019061026b919061460a565b611629565b005b61027a611e55565b6040516102879190614cb1565b60405180910390f35b610298611e7b565b005b6102b460048036038101906102af9190614659565b611e8f565b005b6102be612974565b6040516102cb9190614c96565b60405180910390f35b6102ee60048036038101906102e991906144ca565b61299d565b005b61030a6004803603810190610305919061456b565b612a21565b005b610326600480360381019061032191906144ca565b612bf3565b6040516103369493929190614df9565b60405180910390f35b61035960048036038101906103549190614659565b612c5d565b005b60007f3fc2cc11000000000000000000000000000000000000000000000000000000007bffffffffffffffffffffffffffffffffffffffffffffffffffffffff1916827bffffffffffffffffffffffffffffffffffffffffffffffffffffffff191614806103ce57506103cd82613409565b5b9050919050565b8160011515600160008373ffffffffffffffffffffffffffffffffffffffff1673ffffffffffffffffffffffffffffffffffffffff16815260200190815260200160002060040160019054906101000a900460ff1615151461046c576040517f08c379a000000000000000000000000000000000000000000000000000000000815260040161046390614f9e565b60405180910390fd5b818360011515600160008373ffffffffffffffffffffffffffffffffffffffff1673ffffffffffffffffffffffffffffffffffffffff16815260200190815260200160002060040160019054906101000a900460ff16151514610504576040517f08c379a00000000000000000000000000000000000000000000000000000000081526004016104fb90614f9e565b60405180910390fd5b60008190503073ffffffffffffffffffffffffffffffffffffffff168173ffffffffffffffffffffffffffffffffffffffff1663081812fc856040518263ffffffff1660e01b8152600401610559919061515e565b60206040518083038186803b15801561057157600080fd5b505afa158015610585573d6000803e3d6000fd5b505050506040513d601f19601f820116820180604052508101906105a991906144f3565b73ffffffffffffffffffffffffffffffffffffffff16146105ff576040517f08c379a00000000000000000000000000000000000000000000000000000000081526004016105f690614f3e565b60405180910390fd5b6000600160008873ffffffffffffffffffffffffffffffffffffffff1673ffffffffffffffffffffffffffffffffffffffff1681526020019081526020016000209050600073ffffffffffffffffffffffffffffffffffffffff1681600001600088815260200190815260200160002060000160009054906101000a900473ffffffffffffffffffffffffffffffffffffffff1673ffffffffffffffffffffffffffffffffffffffff1614156106ea576040517f08c379a00000000000000000000000000000000000000000000000000000000081526004016106e190614ebe565b60405180910390fd5b3373ffffffffffffffffffffffffffffffffffffffff1681600001600088815260200190815260200160002060000160009054906101000a900473ffffffffffffffffffffffffffffffffffffffff1673ffffffffffffffffffffffffffffffffffffffff1614610790576040517f08c379a0000000000000000000000000000000000000000000000000000000008152600401610787906150fe565b60405180910390fd5b806000016000878152602001908152602001600020600080820160006101000a81549073ffffffffffffffffffffffffffffffffffffffff02191690555050858773ffffffffffffffffffffffffffffffffffffffff167fce00375f5a3b9c4a857fc9fa1b243f1af9b10a7db9d2d47227fe8217003c9ad4336040516108169190614c96565b60405180910390a350505050505050565b6000806000600160008673ffffffffffffffffffffffffffffffffffffffff1673ffffffffffffffffffffffffffffffffffffffff168152602001908152602001600020905080600201600085815260200190815260200160002060000154925080600201600085815260200190815260200160002060010160009054906101000a900460ff169150509250929050565b6108c0613473565b60011515600160008573ffffffffffffffffffffffffffffffffffffffff1673ffffffffffffffffffffffffffffffffffffffff16815260200190815260200160002060040160019054906101000a900460ff16151514610956576040517f08c379a000000000000000000000000000000000000000000000000000000000815260040161094d90614f5e565b60405180910390fd5b6000600160008573ffffffffffffffffffffffffffffffffffffffff1673ffffffffffffffffffffffffffffffffffffffff1681526020019081526020016000209050828160040160026101000a81548173ffffffffffffffffffffffffffffffffffffffff021916908373ffffffffffffffffffffffffffffffffffffffff16021790555081816005018190555050505050565b60008083856109fa91906152ba565b905060008486610a0a9190615504565b905060008585610a1a91906152ba565b905060008686610a2a9190615504565b9050866001888386610a3c91906152eb565b610a469190615264565b610a509190615345565b610a5a91906152ba565b8284610a6691906152eb565b8286610a7291906152eb565b898588610a7f91906152eb565b610a8991906152eb565b610a939190615264565b610a9d9190615264565b610aa79190615264565b9450505050509392505050565b60035481565b8260011515600160008373ffffffffffffffffffffffffffffffffffffffff1673ffffffffffffffffffffffffffffffffffffffff16815260200190815260200160002060040160019054906101000a900460ff16151514610b51576040517f08c379a0000000000000000000000000000000000000000000000000000000008152600401610b4890614f9e565b60405180910390fd5b8284836000600160008473ffffffffffffffffffffffffffffffffffffffff1673ffffffffffffffffffffffffffffffffffffffff16815260200190815260200160002090506201518042610ba69190615345565b8160010160008681526020019081526020016000206000846005811115610bf6577f4e487b7100000000000000000000000000000000000000000000000000000000600052602160045260246000fd5b6005811115610c2e577f4e487b7100000000000000000000000000000000000000000000000000000000600052602160045260246000fd5b81526020019081526020016000206002015410610c80576040517f08c379a0000000000000000000000000000000000000000000000000000000008152600401610c779061507e565b60405180910390fd5b6000600160008a73ffffffffffffffffffffffffffffffffffffffff1673ffffffffffffffffffffffffffffffffffffffff16815260200190815260200160002090503373ffffffffffffffffffffffffffffffffffffffff168160010160008a81526020019081526020016000206000896005811115610d2a577f4e487b7100000000000000000000000000000000000000000000000000000000600052602160045260246000fd5b6005811115610d62577f4e487b7100000000000000000000000000000000000000000000000000000000600052602160045260246000fd5b815260200190815260200160002060000160009054906101000a900473ffffffffffffffffffffffffffffffffffffffff1673ffffffffffffffffffffffffffffffffffffffff1614610dea576040517f08c379a0000000000000000000000000000000000000000000000000000000008152600401610de1906150de565b60405180910390fd5b60008160030160003373ffffffffffffffffffffffffffffffffffffffff1673ffffffffffffffffffffffffffffffffffffffff16815260200190815260200160002060008a81526020019081526020016000206000896005811115610e79577f4e487b7100000000000000000000000000000000000000000000000000000000600052602160045260246000fd5b6005811115610eb1577f4e487b7100000000000000000000000000000000000000000000000000000000600052602160045260246000fd5b81526020019081526020016000205490506000811115610ed757610ed68833836134f1565b5b60008260030160003373ffffffffffffffffffffffffffffffffffffffff1673ffffffffffffffffffffffffffffffffffffffff16815260200190815260200160002060008b815260200190815260200160002060008a6005811115610f66577f4e487b7100000000000000000000000000000000000000000000000000000000600052602160045260246000fd5b6005811115610f9e577f4e487b7100000000000000000000000000000000000000000000000000000000600052602160045260246000fd5b8152602001908152602001600020819055508160010160008a81526020019081526020016000206000896005811115611000577f4e487b7100000000000000000000000000000000000000000000000000000000600052602160045260246000fd5b6005811115611038577f4e487b7100000000000000000000000000000000000000000000000000000000600052602160045260246000fd5b8152602001908152602001600020600080820160006101000a81549073ffffffffffffffffffffffffffffffffffffffff0219169055600182016000905560028201600090555050888a73ffffffffffffffffffffffffffffffffffffffff167fe3805436fa14d9349d05b8c9a073e53c4502637d37ec34b3f050d3946faea1da336040516110c79190614c96565b60405180910390a350505050505050505050565b8260011515600160008373ffffffffffffffffffffffffffffffffffffffff1673ffffffffffffffffffffffffffffffffffffffff16815260200190815260200160002060040160019054906101000a900460ff16151514611172576040517f08c379a000000000000000000000000000000000000000000000000000000000815260040161116990614f9e565b60405180910390fd5b858460011515600160008373ffffffffffffffffffffffffffffffffffffffff1673ffffffffffffffffffffffffffffffffffffffff16815260200190815260200160002060040160019054906101000a900460ff1615151461120a576040517f08c379a000000000000000000000000000000000000000000000000000000000815260040161120190614f9e565b60405180910390fd5b60008190503073ffffffffffffffffffffffffffffffffffffffff168173ffffffffffffffffffffffffffffffffffffffff1663081812fc856040518263ffffffff1660e01b815260040161125f919061515e565b60206040518083038186803b15801561127757600080fd5b505afa15801561128b573d6000803e3d6000fd5b505050506040513d601f19601f820116820180604052508101906112af91906144f3565b73ffffffffffffffffffffffffffffffffffffffff1614611305576040517f08c379a00000000000000000000000000000000000000000000000000000000081526004016112fc90614f3e565b60405180910390fd5b888760008190503373ffffffffffffffffffffffffffffffffffffffff168173ffffffffffffffffffffffffffffffffffffffff16636352211e856040518263ffffffff1660e01b815260040161135c919061515e565b60206040518083038186803b15801561137457600080fd5b505afa158015611388573d6000803e3d6000fd5b505050506040513d601f19601f820116820180604052508101906113ac91906144f3565b73ffffffffffffffffffffffffffffffffffffffff1614611402576040517f08c379a00000000000000000000000000000000000000000000000000000000081526004016113f99061511e565b60405180910390fd5b6000600160008c73ffffffffffffffffffffffffffffffffffffffff1673ffffffffffffffffffffffffffffffffffffffff16815260200190815260200160002090508b8160000160008f815260200190815260200160002060010160008c6005811115611499577f4e487b7100000000000000000000000000000000000000000000000000000000600052602160045260246000fd5b60058111156114d1577f4e487b7100000000000000000000000000000000000000000000000000000000600052602160045260246000fd5b815260200190815260200160002081905550338160000160008f815260200190815260200160002060000160006101000a81548173ffffffffffffffffffffffffffffffffffffffff021916908373ffffffffffffffffffffffffffffffffffffffff1602179055507fff04060fdb1ade3f35e2fbbdae70256ab6294fe60ce3e63dfcd01d39a73e462f8b8e338f60405161156f9493929190614d7e565b60405180910390a1886040516115859190614c7f565b60405180910390207fa7fa1aea4d0dfc215e51c776b14941c757ea04d91fcbf8a96f84ef37ccd6085a8c8f6040516115be929190614d55565b60405180910390a250505050505050505050505050565b6115dd613473565b8160038190555080600460006101000a81548173ffffffffffffffffffffffffffffffffffffffff021916908373ffffffffffffffffffffffffffffffffffffffff1602179055505050565b818360011515600160008373ffffffffffffffffffffffffffffffffffffffff1673ffffffffffffffffffffffffffffffffffffffff16815260200190815260200160002060040160019054906101000a900460ff161515146116c1576040517f08c379a00000000000000000000000000000000000000000000000000000000081526004016116b890614f9e565b60405180910390fd5b60008190503073ffffffffffffffffffffffffffffffffffffffff168173ffffffffffffffffffffffffffffffffffffffff1663081812fc856040518263ffffffff1660e01b8152600401611716919061515e565b60206040518083038186803b15801561172e57600080fd5b505afa158015611742573d6000803e3d6000fd5b505050506040513d601f19601f8201168201806040525081019061176691906144f3565b73ffffffffffffffffffffffffffffffffffffffff16146117bc576040517f08c379a00000000000000000000000000000000000000000000000000000000081526004016117b390614f3e565b60405180910390fd5b848660008190503373ffffffffffffffffffffffffffffffffffffffff168173ffffffffffffffffffffffffffffffffffffffff16636352211e856040518263ffffffff1660e01b8152600401611813919061515e565b60206040518083038186803b15801561182b57600080fd5b505afa15801561183f573d6000803e3d6000fd5b505050506040513d601f19601f8201168201806040525081019061186391906144f3565b73ffffffffffffffffffffffffffffffffffffffff16146118b9576040517f08c379a00000000000000000000000000000000000000000000000000000000081526004016118b09061511e565b60405180910390fd5b6000600160008b73ffffffffffffffffffffffffffffffffffffffff1673ffffffffffffffffffffffffffffffffffffffff168152602001908152602001600020905060008160010160008b815260200190815260200160002060008a600581111561194e577f4e487b7100000000000000000000000000000000000000000000000000000000600052602160045260246000fd5b6005811115611986577f4e487b7100000000000000000000000000000000000000000000000000000000600052602160045260246000fd5b815260200190815260200160002060000160009054906101000a900473ffffffffffffffffffffffffffffffffffffffff169050600073ffffffffffffffffffffffffffffffffffffffff168173ffffffffffffffffffffffffffffffffffffffff161415611a2a576040517f08c379a0000000000000000000000000000000000000000000000000000000008152600401611a219061505e565b60405180910390fd5b60008260010160008c815260200190815260200160002060008b6005811115611a7c577f4e487b7100000000000000000000000000000000000000000000000000000000600052602160045260246000fd5b6005811115611ab4577f4e487b7100000000000000000000000000000000000000000000000000000000600052602160045260246000fd5b81526020019081526020016000206001015490508260000160008c8152602001908152602001600020600080820160006101000a81549073ffffffffffffffffffffffffffffffffffffffff021916905550508260010160008c815260200190815260200160002060008b6005811115611b57577f4e487b7100000000000000000000000000000000000000000000000000000000600052602160045260246000fd5b6005811115611b8f577f4e487b7100000000000000000000000000000000000000000000000000000000600052602160045260246000fd5b8152602001908152602001600020600080820160006101000a81549073ffffffffffffffffffffffffffffffffffffffff021916905560018201600090556002820160009055505060008360030160008473ffffffffffffffffffffffffffffffffffffffff1673ffffffffffffffffffffffffffffffffffffffff16815260200190815260200160002060008d815260200190815260200160002060008c6005811115611c66577f4e487b7100000000000000000000000000000000000000000000000000000000600052602160045260246000fd5b6005811115611c9e577f4e487b7100000000000000000000000000000000000000000000000000000000600052602160045260246000fd5b815260200190815260200160002081905550611cbd8c8c8c3385613672565b611cfc576040517f08c379a0000000000000000000000000000000000000000000000000000000008152600401611cf390614f1e565b60405180910390fd5b808360020160008d815260200190815260200160002060000181905550898360020160008d815260200190815260200160002060010160006101000a81548160ff02191690836005811115611d7a577f4e487b7100000000000000000000000000000000000000000000000000000000600052602160045260246000fd5b021790555060008c90508073ffffffffffffffffffffffffffffffffffffffff166342842e0e33858f6040518463ffffffff1660e01b8152600401611dc193929190614d1e565b600060405180830381600087803b158015611ddb57600080fd5b505af1158015611def573d6000803e3d6000fd5b505050508b8d73ffffffffffffffffffffffffffffffffffffffff167f3644379fe03acf3b2db463b2b1fb79bfa0a162795d0e7bb0c8a999bd98db8135338686604051611e3e93929190614d1e565b60405180910390a350505050505050505050505050565b600460009054906101000a900473ffffffffffffffffffffffffffffffffffffffff1681565b611e83613473565b611e8d60006139ec565b565b8360011515600160008373ffffffffffffffffffffffffffffffffffffffff1673ffffffffffffffffffffffffffffffffffffffff16815260200190815260200160002060040160019054906101000a900460ff16151514611f26576040517f08c379a0000000000000000000000000000000000000000000000000000000008152600401611f1d90614f9e565b60405180910390fd5b838560008190503373ffffffffffffffffffffffffffffffffffffffff168173ffffffffffffffffffffffffffffffffffffffff16636352211e856040518263ffffffff1660e01b8152600401611f7d919061515e565b60206040518083038186803b158015611f9557600080fd5b505afa158015611fa9573d6000803e3d6000fd5b505050506040513d601f19601f82011682018060405250810190611fcd91906144f3565b73ffffffffffffffffffffffffffffffffffffffff161415612024576040517f08c379a000000000000000000000000000000000000000000000000000000000815260040161201b90614f7e565b60405180910390fd5b6000600160008a73ffffffffffffffffffffffffffffffffffffffff1673ffffffffffffffffffffffffffffffffffffffff168152602001908152602001600020905060008160000160008a815260200190815260200160002060010160008960058111156120bc577f4e487b7100000000000000000000000000000000000000000000000000000000600052602160045260246000fd5b60058111156120f4577f4e487b7100000000000000000000000000000000000000000000000000000000600052602160045260246000fd5b815260200190815260200160002054146121e457806000016000898152602001908152602001600020600101600088600581111561215b577f4e487b7100000000000000000000000000000000000000000000000000000000600052602160045260246000fd5b6005811115612193577f4e487b7100000000000000000000000000000000000000000000000000000000600052602160045260246000fd5b81526020019081526020016000205486116121e3576040517f08c379a00000000000000000000000000000000000000000000000000000000081526004016121da90614e9e565b60405180910390fd5b5b62015180426121f39190615345565b8160010160008a81526020019081526020016000206000896005811115612243577f4e487b7100000000000000000000000000000000000000000000000000000000600052602160045260246000fd5b600581111561227b577f4e487b7100000000000000000000000000000000000000000000000000000000600052602160045260246000fd5b8152602001908152602001600020600201541080612331575080600101600089815260200190815260200160002060008860058111156122e4577f4e487b7100000000000000000000000000000000000000000000000000000000600052602160045260246000fd5b600581111561231c577f4e487b7100000000000000000000000000000000000000000000000000000000600052602160045260246000fd5b81526020019081526020016000206001015486115b612370576040517f08c379a000000000000000000000000000000000000000000000000000000000815260040161236790614efe565b60405180910390fd5b60008160010160008a815260200190815260200160002060008960058111156123c2577f4e487b7100000000000000000000000000000000000000000000000000000000600052602160045260246000fd5b60058111156123fa577f4e487b7100000000000000000000000000000000000000000000000000000000600052602160045260246000fd5b815260200190815260200160002060000160009054906101000a900473ffffffffffffffffffffffffffffffffffffffff16905060008260030160008373ffffffffffffffffffffffffffffffffffffffff1673ffffffffffffffffffffffffffffffffffffffff16815260200190815260200160002060008b815260200190815260200160002060008a60058111156124bd577f4e487b7100000000000000000000000000000000000000000000000000000000600052602160045260246000fd5b60058111156124f5577f4e487b7100000000000000000000000000000000000000000000000000000000600052602160045260246000fd5b8152602001908152602001600020549050600081111561251b5761251a8983836134f1565b5b60008360030160008473ffffffffffffffffffffffffffffffffffffffff1673ffffffffffffffffffffffffffffffffffffffff16815260200190815260200160002060008c815260200190815260200160002060008b60058111156125aa577f4e487b7100000000000000000000000000000000000000000000000000000000600052602160045260246000fd5b60058111156125e2577f4e487b7100000000000000000000000000000000000000000000000000000000600052602160045260246000fd5b8152602001908152602001600020819055506125ff89338a613ab0565b61263e576040517f08c379a000000000000000000000000000000000000000000000000000000000815260040161263590614e7e565b60405180910390fd5b338360010160008c815260200190815260200160002060008b600581111561268f577f4e487b7100000000000000000000000000000000000000000000000000000000600052602160045260246000fd5b60058111156126c7577f4e487b7100000000000000000000000000000000000000000000000000000000600052602160045260246000fd5b815260200190815260200160002060000160006101000a81548173ffffffffffffffffffffffffffffffffffffffff021916908373ffffffffffffffffffffffffffffffffffffffff160217905550878360010160008c815260200190815260200160002060008b6005811115612767577f4e487b7100000000000000000000000000000000000000000000000000000000600052602160045260246000fd5b600581111561279f577f4e487b7100000000000000000000000000000000000000000000000000000000600052602160045260246000fd5b815260200190815260200160002060010181905550428360010160008c815260200190815260200160002060008b6005811115612805577f4e487b7100000000000000000000000000000000000000000000000000000000600052602160045260246000fd5b600581111561283d577f4e487b7100000000000000000000000000000000000000000000000000000000600052602160045260246000fd5b815260200190815260200160002060020181905550878360030160003373ffffffffffffffffffffffffffffffffffffffff1673ffffffffffffffffffffffffffffffffffffffff16815260200190815260200160002060008c815260200190815260200160002060008b60058111156128e0577f4e487b7100000000000000000000000000000000000000000000000000000000600052602160045260246000fd5b6005811115612918577f4e487b7100000000000000000000000000000000000000000000000000000000600052602160045260246000fd5b8152602001908152602001600020819055507f61e99c5925f0917c808d292f464c28394c472db57c537b76eb60db90a49420ed8b8b338b60405161295f9493929190614d7e565b60405180910390a15050505050505050505050565b60008060009054906101000a900473ffffffffffffffffffffffffffffffffffffffff16905090565b6129a5613473565b600073ffffffffffffffffffffffffffffffffffffffff168173ffffffffffffffffffffffffffffffffffffffff161415612a15576040517f08c379a0000000000000000000000000000000000000000000000000000000008152600401612a0c90614ede565b60405180910390fd5b612a1e816139ec565b50565b60001515600160008673ffffffffffffffffffffffffffffffffffffffff1673ffffffffffffffffffffffffffffffffffffffff16815260200190815260200160002060040160019054906101000a900460ff16151514612ab7576040517f08c379a0000000000000000000000000000000000000000000000000000000008152600401612aae90614e5e565b60405180910390fd5b6000600160008673ffffffffffffffffffffffffffffffffffffffff1673ffffffffffffffffffffffffffffffffffffffff1681526020019081526020016000209050838160040160006101000a81548160ff02191690836004811115612b47577f4e487b7100000000000000000000000000000000000000000000000000000000600052602160045260246000fd5b021790555060018160040160016101000a81548160ff021916908315150217905550828160040160026101000a81548173ffffffffffffffffffffffffffffffffffffffff021916908373ffffffffffffffffffffffffffffffffffffffff1602179055508181600501819055507f11f8cd014e58379583c686140218c2c5d4a9cf8f7c57e152fdfaed66d627c6ed85604051612be49190614c96565b60405180910390a15050505050565b60016020528060005260406000206000915090508060040160009054906101000a900460ff16908060040160019054906101000a900460ff16908060040160029054906101000a900473ffffffffffffffffffffffffffffffffffffffff16908060050154905084565b8360011515600160008373ffffffffffffffffffffffffffffffffffffffff1673ffffffffffffffffffffffffffffffffffffffff16815260200190815260200160002060040160019054906101000a900460ff16151514612cf4576040517f08c379a0000000000000000000000000000000000000000000000000000000008152600401612ceb90614f9e565b60405180910390fd5b838560008190503373ffffffffffffffffffffffffffffffffffffffff168173ffffffffffffffffffffffffffffffffffffffff16636352211e856040518263ffffffff1660e01b8152600401612d4b919061515e565b60206040518083038186803b158015612d6357600080fd5b505afa158015612d77573d6000803e3d6000fd5b505050506040513d601f19601f82011682018060405250810190612d9b91906144f3565b73ffffffffffffffffffffffffffffffffffffffff161415612df2576040517f08c379a0000000000000000000000000000000000000000000000000000000008152600401612de990614f7e565b60405180910390fd5b6000600160008a73ffffffffffffffffffffffffffffffffffffffff1673ffffffffffffffffffffffffffffffffffffffff168152602001908152602001600020905060008160000160008a815260200190815260200160002060000160009054906101000a900473ffffffffffffffffffffffffffffffffffffffff169050600073ffffffffffffffffffffffffffffffffffffffff168173ffffffffffffffffffffffffffffffffffffffff161415612ee2576040517f08c379a0000000000000000000000000000000000000000000000000000000008152600401612ed99061503e565b60405180910390fd5b60008a90503073ffffffffffffffffffffffffffffffffffffffff168173ffffffffffffffffffffffffffffffffffffffff1663081812fc8c6040518263ffffffff1660e01b8152600401612f37919061515e565b60206040518083038186803b158015612f4f57600080fd5b505afa158015612f63573d6000803e3d6000fd5b505050506040513d601f19601f82011682018060405250810190612f8791906144f3565b73ffffffffffffffffffffffffffffffffffffffff161461306b578260000160008b8152602001908152602001600020600080820160006101000a81549073ffffffffffffffffffffffffffffffffffffffff02191690555050898b73ffffffffffffffffffffffffffffffffffffffff167fce00375f5a3b9c4a857fc9fa1b243f1af9b10a7db9d2d47227fe8217003c9ad4846040516130289190614c96565b60405180910390a36040517f08c379a000000000000000000000000000000000000000000000000000000000815260040161306290614ffe565b60405180910390fd5b60008360000160008c815260200190815260200160002060010160008b60058111156130c0577f4e487b7100000000000000000000000000000000000000000000000000000000600052602160045260246000fd5b60058111156130f8577f4e487b7100000000000000000000000000000000000000000000000000000000600052602160045260246000fd5b81526020019081526020016000205411613147576040517f08c379a000000000000000000000000000000000000000000000000000000000815260040161313e9061509e565b60405180910390fd5b8260000160008b815260200190815260200160002060010160008a600581111561319a577f4e487b7100000000000000000000000000000000000000000000000000000000600052602160045260246000fd5b60058111156131d2577f4e487b7100000000000000000000000000000000000000000000000000000000600052602160045260246000fd5b815260200190815260200160002054881015613223576040517f08c379a000000000000000000000000000000000000000000000000000000000815260040161321a9061513e565b60405180910390fd5b600015156132358c8c8c33878e613c3a565b15151415613278576040517f08c379a000000000000000000000000000000000000000000000000000000000815260040161326f906150be565b60405180910390fd5b878360020160008c815260200190815260200160002060000181905550888360020160008c815260200190815260200160002060010160006101000a81548160ff021916908360058111156132f6577f4e487b7100000000000000000000000000000000000000000000000000000000600052602160045260246000fd5b02179055508073ffffffffffffffffffffffffffffffffffffffff166342842e0e83338d6040518463ffffffff1660e01b815260040161333893929190614d1e565b600060405180830381600087803b15801561335257600080fd5b505af1158015613366573d6000803e3d6000fd5b505050508260000160008b8152602001908152602001600020600080820160006101000a81549073ffffffffffffffffffffffffffffffffffffffff02191690555050898b73ffffffffffffffffffffffffffffffffffffffff167f3644379fe03acf3b2db463b2b1fb79bfa0a162795d0e7bb0c8a999bd98db813584338c6040516133f493929190614d1e565b60405180910390a35050505050505050505050565b60007f01ffc9a7000000000000000000000000000000000000000000000000000000007bffffffffffffffffffffffffffffffffffffffffffffffffffffffff1916827bffffffffffffffffffffffffffffffffffffffffffffffffffffffff1916149050919050565b61347b614127565b73ffffffffffffffffffffffffffffffffffffffff16613499612974565b73ffffffffffffffffffffffffffffffffffffffff16146134ef576040517f08c379a00000000000000000000000000000000000000000000000000000000081526004016134e69061501e565b60405180910390fd5b565b6000600260009054906101000a900473ffffffffffffffffffffffffffffffffffffffff1673ffffffffffffffffffffffffffffffffffffffff1663dcaf421b856040518263ffffffff1660e01b815260040161354e9190614dde565b60206040518083038186803b15801561356657600080fd5b505afa15801561357a573d6000803e3d6000fd5b505050506040513d601f19601f8201168201806040525081019061359e919061470e565b90508073ffffffffffffffffffffffffffffffffffffffff1663a9059cbb84846040518363ffffffff1660e01b81526004016135db929190614d55565b602060405180830381600087803b1580156135f557600080fd5b505af1158015613609573d6000803e3d6000fd5b505050506040513d601f19601f8201168201806040525081019061362d91906146bc565b61366c576040517f08c379a000000000000000000000000000000000000000000000000000000000815260040161366390614e3e565b60405180910390fd5b50505050565b600080600260009054906101000a900473ffffffffffffffffffffffffffffffffffffffff1673ffffffffffffffffffffffffffffffffffffffff1663dcaf421b866040518263ffffffff1660e01b81526004016136d09190614dde565b60206040518083038186803b1580156136e857600080fd5b505afa1580156136fc573d6000803e3d6000fd5b505050506040513d601f19601f82011682018060405250810190613720919061470e565b905060006103e890506000613735858361412f565b90506000806137448b886141fb565b8092508193505050600081848961375b9190615345565b6137659190615345565b90508573ffffffffffffffffffffffffffffffffffffffff1663a9059cbb8a836040518363ffffffff1660e01b81526004016137a2929190614d55565b602060405180830381600087803b1580156137bc57600080fd5b505af11580156137d0573d6000803e3d6000fd5b505050506040513d601f19601f820116820180604052508101906137f491906146bc565b508573ffffffffffffffffffffffffffffffffffffffff1663a9059cbb600460009054906101000a900473ffffffffffffffffffffffffffffffffffffffff16866040518363ffffffff1660e01b8152600401613852929190614ccc565b602060405180830381600087803b15801561386c57600080fd5b505af1158015613880573d6000803e3d6000fd5b505050506040513d601f19601f820116820180604052508101906138a491906146bc565b50600082111561397a578573ffffffffffffffffffffffffffffffffffffffff1663a9059cbb84846040518363ffffffff1660e01b81526004016138e9929190614d55565b602060405180830381600087803b15801561390357600080fd5b505af1158015613917573d6000803e3d6000fd5b505050506040513d601f19601f8201168201806040525081019061393b91906146bc565b507f5825d7670ca9035e2d333fd7f1cfca7d8e476c3522beb6447f33885ca68a5ed18c8c85856040516139719493929190614d7e565b60405180910390a15b7fe1ac6cda82b822e7f388493f39f37748308acbc0a4c3044861e00a2ffaa46f9e888583600460009054906101000a900473ffffffffffffffffffffffffffffffffffffffff166040516139d194939291906151a2565b60405180910390a16001965050505050505095945050505050565b60008060009054906101000a900473ffffffffffffffffffffffffffffffffffffffff169050816000806101000a81548173ffffffffffffffffffffffffffffffffffffffff021916908373ffffffffffffffffffffffffffffffffffffffff1602179055508173ffffffffffffffffffffffffffffffffffffffff168173ffffffffffffffffffffffffffffffffffffffff167f8be0079c531659141344cd1fd0a4f28419497f9722a3daafe3b4186f6b6457e060405160405180910390a35050565b600080600260009054906101000a900473ffffffffffffffffffffffffffffffffffffffff1673ffffffffffffffffffffffffffffffffffffffff1663dcaf421b866040518263ffffffff1660e01b8152600401613b0e9190614dde565b60206040518083038186803b158015613b2657600080fd5b505afa158015613b3a573d6000803e3d6000fd5b505050506040513d601f19601f82011682018060405250810190613b5e919061470e565b90508073ffffffffffffffffffffffffffffffffffffffff166323b872dd8530866040518463ffffffff1660e01b8152600401613b9d93929190614d1e565b602060405180830381600087803b158015613bb757600080fd5b505af1158015613bcb573d6000803e3d6000fd5b505050506040513d601f19601f82011682018060405250810190613bef91906146bc565b613c2e576040517f08c379a0000000000000000000000000000000000000000000000000000000008152600401613c2590614fde565b60405180910390fd5b60019150509392505050565b600080600260009054906101000a900473ffffffffffffffffffffffffffffffffffffffff1673ffffffffffffffffffffffffffffffffffffffff1663dcaf421b876040518263ffffffff1660e01b8152600401613c989190614dde565b60206040518083038186803b158015613cb057600080fd5b505afa158015613cc4573d6000803e3d6000fd5b505050506040513d601f19601f82011682018060405250810190613ce8919061470e565b905060008173ffffffffffffffffffffffffffffffffffffffff1663dd62ed3e87306040518363ffffffff1660e01b8152600401613d27929190614cf5565b60206040518083038186803b158015613d3f57600080fd5b505afa158015613d53573d6000803e3d6000fd5b505050506040513d601f19601f82011682018060405250810190613d779190614737565b905083811015613d8c5760009250505061411d565b60006103e890506000613d9f868361412f565b9050600080613dae8d896141fb565b8092508193505050600081848a613dc59190615345565b613dcf9190615345565b90508673ffffffffffffffffffffffffffffffffffffffff166323b872dd8c308c6040518463ffffffff1660e01b8152600401613e0e93929190614d1e565b602060405180830381600087803b158015613e2857600080fd5b505af1158015613e3c573d6000803e3d6000fd5b505050506040513d601f19601f82011682018060405250810190613e6091906146bc565b613e9f576040517f08c379a0000000000000000000000000000000000000000000000000000000008152600401613e9690614fbe565b60405180910390fd5b8673ffffffffffffffffffffffffffffffffffffffff1663a9059cbb8b836040518363ffffffff1660e01b8152600401613eda929190614d55565b602060405180830381600087803b158015613ef457600080fd5b505af1158015613f08573d6000803e3d6000fd5b505050506040513d601f19601f82011682018060405250810190613f2c91906146bc565b508673ffffffffffffffffffffffffffffffffffffffff1663a9059cbb600460009054906101000a900473ffffffffffffffffffffffffffffffffffffffff16866040518363ffffffff1660e01b8152600401613f8a929190614ccc565b602060405180830381600087803b158015613fa457600080fd5b505af1158015613fb8573d6000803e3d6000fd5b505050506040513d601f19601f82011682018060405250810190613fdc91906146bc565b5060008211156140b2578673ffffffffffffffffffffffffffffffffffffffff1663a9059cbb84846040518363ffffffff1660e01b8152600401614021929190614d55565b602060405180830381600087803b15801561403b57600080fd5b505af115801561404f573d6000803e3d6000fd5b505050506040513d601f19601f8201168201806040525081019061407391906146bc565b507f5825d7670ca9035e2d333fd7f1cfca7d8e476c3522beb6447f33885ca68a5ed18e8e85856040516140a99493929190614d7e565b60405180910390a15b7fe1ac6cda82b822e7f388493f39f37748308acbc0a4c3044861e00a2ffaa46f9e898583600460009054906101000a900473ffffffffffffffffffffffffffffffffffffffff1660405161410994939291906151a2565b60405180910390a160019750505050505050505b9695505050505050565b600033905090565b600080828461413e91906152ba565b90506000838561414e9190615504565b905060008460035461416091906152ba565b90506000856003546141729190615504565b905085600187838661418491906152eb565b61418e9190615264565b6141989190615345565b6141a291906152ba565b82846141ae91906152eb565b82866141ba91906152eb565b8885886141c791906152eb565b6141d191906152eb565b6141db9190615264565b6141e59190615264565b6141ef9190615264565b94505050505092915050565b6000806000600160008673ffffffffffffffffffffffffffffffffffffffff1673ffffffffffffffffffffffffffffffffffffffff16815260200190815260200160002060040160009054906101000a900460ff1690506000600481111561428c577f4e487b7100000000000000000000000000000000000000000000000000000000600052602160045260246000fd5b8160048111156142c5577f4e487b7100000000000000000000000000000000000000000000000000000000600052602160045260246000fd5b141561430357600460009054906101000a900473ffffffffffffffffffffffffffffffffffffffff1692506142fc846103e861412f565b9150614388565b6000600160008773ffffffffffffffffffffffffffffffffffffffff1673ffffffffffffffffffffffffffffffffffffffff16815260200190815260200160002090508060040160029054906101000a900473ffffffffffffffffffffffffffffffffffffffff169350600081600501549050614383866103e8836109eb565b935050505b509250929050565b60006143a361439e8461520c565b6151e7565b9050828152602081018484840111156143bb57600080fd5b6143c6848285615491565b509392505050565b6000813590506143dd81615c65565b92915050565b6000815190506143f281615c65565b92915050565b60008135905061440781615c7c565b92915050565b60008151905061441c81615c93565b92915050565b60008135905061443181615caa565b92915050565b60008151905061444681615cc1565b92915050565b60008135905061445b81615cd8565b92915050565b60008135905061447081615ce8565b92915050565b600082601f83011261448757600080fd5b8135614497848260208601614390565b91505092915050565b6000813590506144af81615cf8565b92915050565b6000815190506144c481615cf8565b92915050565b6000602082840312156144dc57600080fd5b60006144ea848285016143ce565b91505092915050565b60006020828403121561450557600080fd5b6000614513848285016143e3565b91505092915050565b60008060006060848603121561453157600080fd5b600061453f868287016143ce565b9350506020614550868287016143f8565b9250506040614561868287016144a0565b9150509250925092565b6000806000806080858703121561458157600080fd5b600061458f878288016143ce565b94505060206145a087828801614461565b93505060406145b1878288016143f8565b92505060606145c2878288016144a0565b91505092959194509250565b600080604083850312156145e157600080fd5b60006145ef858286016143ce565b9250506020614600858286016144a0565b9150509250929050565b60008060006060848603121561461f57600080fd5b600061462d868287016143ce565b935050602061463e868287016144a0565b925050604061464f8682870161444c565b9150509250925092565b6000806000806080858703121561466f57600080fd5b600061467d878288016143ce565b945050602061468e878288016144a0565b935050604061469f8782880161444c565b92505060606146b0878288016144a0565b91505092959194509250565b6000602082840312156146ce57600080fd5b60006146dc8482850161440d565b91505092915050565b6000602082840312156146f757600080fd5b600061470584828501614422565b91505092915050565b60006020828403121561472057600080fd5b600061472e84828501614437565b91505092915050565b60006020828403121561474957600080fd5b6000614757848285016144b5565b91505092915050565b6000806040838503121561477357600080fd5b6000614781858286016144a0565b9250506020614792858286016143f8565b9150509250929050565b600080600080600060a086880312156147b457600080fd5b60006147c2888289016144a0565b95505060206147d3888289016144a0565b94505060406147e4888289016143ce565b93505060606147f58882890161444c565b925050608086013567ffffffffffffffff81111561481257600080fd5b61481e88828901614476565b9150509295509295909350565b60008060006060848603121561484057600080fd5b600061484e868287016144a0565b935050602061485f868287016144a0565b9250506040614870868287016144a0565b9150509250925092565b61488381615437565b82525050565b6148928161538b565b82525050565b6148a181615379565b82525050565b6148b08161539d565b82525050565b6148bf81615449565b82525050565b6148ce8161545b565b82525050565b60006148df8261523d565b6148e98185615259565b93506148f98185602086016154a0565b80840191505092915050565b6000614912601183615248565b915061491d82615602565b602082019050919050565b6000614935602083615248565b91506149408261562b565b602082019050919050565b6000614958604483615248565b915061496382615654565b606082019050919050565b600061497b602883615248565b9150614986826156c9565b604082019050919050565b600061499e600d83615248565b91506149a982615718565b602082019050919050565b60006149c1602683615248565b91506149cc82615741565b604082019050919050565b60006149e4602883615248565b91506149ef82615790565b604082019050919050565b6000614a07602e83615248565b9150614a12826157df565b604082019050919050565b6000614a2a600c83615248565b9150614a358261582e565b602082019050919050565b6000614a4d601c83615248565b9150614a5882615857565b602082019050919050565b6000614a70601783615248565b9150614a7b82615880565b602082019050919050565b6000614a93602c83615248565b9150614a9e826158a9565b604082019050919050565b6000614ab6604e83615248565b9150614ac1826158f8565b606082019050919050565b6000614ad9605e83615248565b9150614ae48261596d565b606082019050919050565b6000614afc601283615248565b9150614b07826159e2565b602082019050919050565b6000614b1f602083615248565b9150614b2a82615a0b565b602082019050919050565b6000614b42601483615248565b9150614b4d82615a34565b602082019050919050565b6000614b65600c83615248565b9150614b7082615a5d565b602082019050919050565b6000614b88601583615248565b9150614b9382615a86565b602082019050919050565b6000614bab604783615248565b9150614bb682615aaf565b606082019050919050565b6000614bce603a83615248565b9150614bd982615b24565b604082019050919050565b6000614bf1600983615248565b9150614bfc82615b73565b602082019050919050565b6000614c14600a83615248565b9150614c1f82615b9c565b602082019050919050565b6000614c37600f83615248565b9150614c4282615bc5565b602082019050919050565b6000614c5a602583615248565b9150614c6582615bee565b604082019050919050565b614c798161542d565b82525050565b6000614c8b82846148d4565b915081905092915050565b6000602082019050614cab6000830184614898565b92915050565b6000602082019050614cc66000830184614889565b92915050565b6000604082019050614ce1600083018561487a565b614cee6020830184614c70565b9392505050565b6000604082019050614d0a6000830185614898565b614d176020830184614898565b9392505050565b6000606082019050614d336000830186614898565b614d406020830185614898565b614d4d6040830184614c70565b949350505050565b6000604082019050614d6a6000830185614898565b614d776020830184614c70565b9392505050565b6000608082019050614d936000830187614898565b614da06020830186614c70565b614dad6040830185614898565b614dba6060830184614c70565b95945050505050565b6000602082019050614dd860008301846148a7565b92915050565b6000602082019050614df360008301846148b6565b92915050565b6000608082019050614e0e60008301876148c5565b614e1b60208301866148a7565b614e286040830185614889565b614e356060830184614c70565b95945050505050565b60006020820190508181036000830152614e5781614905565b9050919050565b60006020820190508181036000830152614e7781614928565b9050919050565b60006020820190508181036000830152614e978161494b565b9050919050565b60006020820190508181036000830152614eb78161496e565b9050919050565b60006020820190508181036000830152614ed781614991565b9050919050565b60006020820190508181036000830152614ef7816149b4565b9050919050565b60006020820190508181036000830152614f17816149d7565b9050919050565b60006020820190508181036000830152614f37816149fa565b9050919050565b60006020820190508181036000830152614f5781614a1d565b9050919050565b60006020820190508181036000830152614f7781614a40565b9050919050565b60006020820190508181036000830152614f9781614a63565b9050919050565b60006020820190508181036000830152614fb781614a86565b9050919050565b60006020820190508181036000830152614fd781614aa9565b9050919050565b60006020820190508181036000830152614ff781614acc565b9050919050565b6000602082019050818103600083015261501781614aef565b9050919050565b6000602082019050818103600083015261503781614b12565b9050919050565b6000602082019050818103600083015261505781614b35565b9050919050565b6000602082019050818103600083015261507781614b58565b9050919050565b6000602082019050818103600083015261509781614b7b565b9050919050565b600060208201905081810360008301526150b781614b9e565b9050919050565b600060208201905081810360008301526150d781614bc1565b9050919050565b600060208201905081810360008301526150f781614be4565b9050919050565b6000602082019050818103600083015261511781614c07565b9050919050565b6000602082019050818103600083015261513781614c2a565b9050919050565b6000602082019050818103600083015261515781614c4d565b9050919050565b60006020820190506151736000830184614c70565b92915050565b600060408201905061518e6000830185614c70565b61519b60208301846148b6565b9392505050565b60006080820190506151b76000830187614c70565b6151c46020830186614c70565b6151d16040830185614c70565b6151de606083018461487a565b95945050505050565b60006151f1615202565b90506151fd82826154d3565b919050565b6000604051905090565b600067ffffffffffffffff821115615227576152266155c2565b5b615230826155f1565b9050602081019050919050565b600081519050919050565b600082825260208201905092915050565b600081905092915050565b600061526f8261542d565b915061527a8361542d565b9250827fffffffffffffffffffffffffffffffffffffffffffffffffffffffffffffffff038211156152af576152ae615535565b5b828201905092915050565b60006152c58261542d565b91506152d08361542d565b9250826152e0576152df615564565b5b828204905092915050565b60006152f68261542d565b91506153018361542d565b9250817fffffffffffffffffffffffffffffffffffffffffffffffffffffffffffffffff048311821515161561533a57615339615535565b5b828202905092915050565b60006153508261542d565b915061535b8361542d565b92508282101561536e5761536d615535565b5b828203905092915050565b60006153848261540d565b9050919050565b60006153968261540d565b9050919050565b60008115159050919050565b60007fffffffff0000000000000000000000000000000000000000000000000000000082169050919050565b60006153e082615379565b9050919050565b60008190506153f582615c3d565b919050565b600081905061540882615c51565b919050565b600073ffffffffffffffffffffffffffffffffffffffff82169050919050565b6000819050919050565b60006154428261546d565b9050919050565b6000615454826153e7565b9050919050565b6000615466826153fa565b9050919050565b60006154788261547f565b9050919050565b600061548a8261540d565b9050919050565b82818337600083830152505050565b60005b838110156154be5780820151818401526020810190506154a3565b838111156154cd576000848401525b50505050565b6154dc826155f1565b810181811067ffffffffffffffff821117156154fb576154fa6155c2565b5b80604052505050565b600061550f8261542d565b915061551a8361542d565b92508261552a57615529615564565b5b828206905092915050565b7f4e487b7100000000000000000000000000000000000000000000000000000000600052601160045260246000fd5b7f4e487b7100000000000000000000000000000000000000000000000000000000600052601260045260246000fd5b7f4e487b7100000000000000000000000000000000000000000000000000000000600052602160045260246000fd5b7f4e487b7100000000000000000000000000000000000000000000000000000000600052604160045260246000fd5b6000601f19601f8301169050919050565b7f43616e27742073656e6420726566756e64000000000000000000000000000000600082015250565b7f4d61726b6574706c61636520697320616c726561647920736574746564207570600082015250565b7f4d6574614d61726b6574706c6163653a2063616e27742070756c6c2066756e6460008201527f732066726f6d20627579657220746f204d61726b6574706c61636520636f6e7460208201527f7261637400000000000000000000000000000000000000000000000000000000604082015250565b7f53656c6c206f726465722061742074686973207072696365206f72206c6f776560008201527f7220657869737473000000000000000000000000000000000000000000000000602082015250565b7f4e6f2073616c65206f6666657200000000000000000000000000000000000000600082015250565b7f4f776e61626c653a206e6577206f776e657220697320746865207a65726f206160008201527f6464726573730000000000000000000000000000000000000000000000000000602082015250565b7f50726576696f757320627579206f6666657220686967686572206f72206e6f7460008201527f2065787069726564000000000000000000000000000000000000000000000000602082015250565b7f4d6574614d61726b6574706c6163653a2063616e277420666f7277617264206660008201527f756e647320746f2073656c6c6572000000000000000000000000000000000000602082015250565b7f4e6f7420617070726f7665640000000000000000000000000000000000000000600082015250565b7f4d61726b6574706c616365206973206e6f742065786973742079657400000000600082015250565b7f546f6b656e206f776e6572206e6f7420616c6c6f776564000000000000000000600082015250565b7f4d61726b6574706c61636520666f72207468697320746f6b656e206973206e6f60008201527f7420736574757020796574210000000000000000000000000000000000000000602082015250565b7f4d6574614d61726b6574706c6163653a2045524332303a207472616e7366657260008201527f46726f6d20627579657220746f206d6574616d61726b6574706c61636520636f60208201527f6e7472616374206661696c656420000000000000000000000000000000000000604082015250565b7f4d6574614d61726b6574706c6163653a2045524332303a207472616e7366657260008201527f46726f6d20627579657220746f206d6574616d61726b6574706c61636520636f60208201527f6e7472616374206661696c65642c20636865636b20617070726f76616c200000604082015250565b7f496e76616c69642073656c6c206f666665720000000000000000000000000000600082015250565b7f4f776e61626c653a2063616c6c6572206973206e6f7420746865206f776e6572600082015250565b7f4e6f206163746976652073656c6c206f66666572000000000000000000000000600082015250565b7f4e6f20627579206f666665720000000000000000000000000000000000000000600082015250565b7f427579206f66666572206e6f7420657870697265640000000000000000000000600082015250565b7f707269636520666f7220746869732063757272656e637920686173206e6f742060008201527f6265656e207365747465642c20757365206d616b654275794f6666657228292060208201527f696e737465616400000000000000000000000000000000000000000000000000604082015250565b7f417070726f76656420616d6f756e74206973206c6573736572207468616e202860008201527f6269645f70726963655f29206e656564656420746f206465616c000000000000602082015250565b7f4e6f742062757965720000000000000000000000000000000000000000000000600082015250565b7f4e6f742073656c6c657200000000000000000000000000000000000000000000600082015250565b7f4e6f7420746f6b656e206f776e65720000000000000000000000000000000000600082015250565b7f42696420616d6f756e74206c6573736572207468616e2064657369726564207060008201527f7269636521000000000000000000000000000000000000000000000000000000602082015250565b60068110615c4e57615c4d615593565b5b50565b60058110615c6257615c61615593565b5b50565b615c6e81615379565b8114615c7957600080fd5b50565b615c858161538b565b8114615c9057600080fd5b50565b615c9c8161539d565b8114615ca757600080fd5b50565b615cb3816153a9565b8114615cbe57600080fd5b50565b615cca816153d5565b8114615cd557600080fd5b50565b60068110615ce557600080fd5b50565b60058110615cf557600080fd5b50565b615d018161542d565b8114615d0c57600080fd5b5056fea2646970667358221220bc69fcb0f2303673d3fa4a1c5ae34b6755d4242664b9fadf384ae77c15f4725764736f6c63430008040033",
  "linkReferences": {},
  "deployedLinkReferences": {}
}