{
  "_format": "hh-sol-artifact-1",
  "contractName": "MetaMarketplace",
  "sourceName": "contracts/MetaMarketplace.sol",
  "abi": [
    {
      "inputs": [
        {
          "internalType": "address",
          "name": "currency_contract_",
          "type": "address"
        },
        {
          "internalType": "address",
          "name": "telegram_collection_",
          "type": "address"
        },
        {
          "internalType": "address payable",
          "name": "treasure_fund_",
          "type": "address"
        }
      ],
      "stateMutability": "nonpayable",
      "type": "constructor"
    },
    {
      "anonymous": false,
      "inputs": [
        {
          "indexed": true,
          "internalType": "address",
          "name": "nft_contract_",
          "type": "address"
        },
        {
          "indexed": true,
          "internalType": "uint256",
          "name": "tokenId",
          "type": "uint256"
        },
        {
          "indexed": false,
          "internalType": "address",
          "name": "buyer",
          "type": "address"
        }
      ],
      "name": "BuyOfferWithdrawn",
      "type": "event"
    },
    {
      "anonymous": false,
      "inputs": [
        {
          "indexed": false,
          "internalType": "uint256",
          "name": "initial_value",
          "type": "uint256"
        },
        {
          "indexed": false,
          "internalType": "uint256",
          "name": "fees",
          "type": "uint256"
        },
        {
          "indexed": false,
          "internalType": "uint256",
          "name": "transfered_amount",
          "type": "uint256"
        },
        {
          "indexed": false,
          "internalType": "address",
          "name": "feeAddress",
          "type": "address"
        }
      ],
      "name": "CalculatedFees",
      "type": "event"
    },
    {
      "anonymous": false,
      "inputs": [
        {
          "indexed": false,
          "internalType": "address",
          "name": "nft_contract_",
          "type": "address"
        },
        {
          "indexed": false,
          "internalType": "uint256",
          "name": "tokenId",
          "type": "uint256"
        },
        {
          "indexed": false,
          "internalType": "address",
          "name": "buyer",
          "type": "address"
        },
        {
          "indexed": false,
          "internalType": "uint256",
          "name": "value",
          "type": "uint256"
        }
      ],
      "name": "NewBuyOffer",
      "type": "event"
    },
    {
      "anonymous": false,
      "inputs": [
        {
          "indexed": false,
          "internalType": "address",
          "name": "nft_contract_",
          "type": "address"
        }
      ],
      "name": "NewMarketplace",
      "type": "event"
    },
    {
      "anonymous": false,
      "inputs": [
        {
          "indexed": true,
          "internalType": "string",
          "name": "category",
          "type": "string"
        },
        {
          "indexed": false,
          "internalType": "address",
          "name": "nft_contract_",
          "type": "address"
        },
        {
          "indexed": false,
          "internalType": "uint256",
          "name": "tokenId",
          "type": "uint256"
        }
      ],
      "name": "NewSellCategory",
      "type": "event"
    },
    {
      "anonymous": false,
      "inputs": [
        {
          "indexed": false,
          "internalType": "address",
          "name": "nft_contract_",
          "type": "address"
        },
        {
          "indexed": false,
          "internalType": "uint256",
          "name": "tokenId",
          "type": "uint256"
        },
        {
          "indexed": false,
          "internalType": "address",
          "name": "seller",
          "type": "address"
        },
        {
          "indexed": false,
          "internalType": "uint256",
          "name": "value",
          "type": "uint256"
        }
      ],
      "name": "NewSellOffer",
      "type": "event"
    },
    {
      "anonymous": false,
      "inputs": [
        {
          "indexed": true,
          "internalType": "address",
          "name": "previousOwner",
          "type": "address"
        },
        {
          "indexed": true,
          "internalType": "address",
          "name": "newOwner",
          "type": "address"
        }
      ],
      "name": "OwnershipTransferred",
      "type": "event"
    },
    {
      "anonymous": false,
      "inputs": [
        {
          "indexed": false,
          "internalType": "address",
          "name": "nft_contract_",
          "type": "address"
        },
        {
          "indexed": false,
          "internalType": "uint256",
          "name": "tokenId",
          "type": "uint256"
        },
        {
          "indexed": false,
          "internalType": "address",
          "name": "recepient",
          "type": "address"
        },
        {
          "indexed": false,
          "internalType": "uint256",
          "name": "value",
          "type": "uint256"
        }
      ],
      "name": "RoyaltiesPaid",
      "type": "event"
    },
    {
      "anonymous": false,
      "inputs": [
        {
          "indexed": true,
          "internalType": "address",
          "name": "nft_contract_",
          "type": "address"
        },
        {
          "indexed": true,
          "internalType": "uint256",
          "name": "tokenId",
          "type": "uint256"
        },
        {
          "indexed": false,
          "internalType": "address",
          "name": "seller",
          "type": "address"
        },
        {
          "indexed": false,
          "internalType": "address",
          "name": "buyer",
          "type": "address"
        },
        {
          "indexed": false,
          "internalType": "uint256",
          "name": "value",
          "type": "uint256"
        }
      ],
      "name": "Sale",
      "type": "event"
    },
    {
      "anonymous": false,
      "inputs": [
        {
          "indexed": true,
          "internalType": "address",
          "name": "nft_contract_",
          "type": "address"
        },
        {
          "indexed": true,
          "internalType": "uint256",
          "name": "tokenId",
          "type": "uint256"
        },
        {
          "indexed": false,
          "internalType": "address",
          "name": "seller",
          "type": "address"
        }
      ],
      "name": "SellOfferWithdrawn",
      "type": "event"
    },
    {
      "inputs": [
        {
          "internalType": "address",
          "name": "",
          "type": "address"
        }
      ],
      "name": "Marketplaces",
      "outputs": [
        {
          "internalType": "enum MetaMarketplace.NftType",
          "name": "nft_standard",
          "type": "uint8"
        },
        {
          "internalType": "bool",
          "name": "initialized",
          "type": "bool"
        },
        {
          "internalType": "address payable",
          "name": "collectionOwner",
          "type": "address"
        },
        {
          "internalType": "uint256",
          "name": "ownerFee",
          "type": "uint256"
        }
      ],
      "stateMutability": "view",
      "type": "function"
    },
    {
      "inputs": [
        {
          "internalType": "uint256",
          "name": "promille_fee_",
          "type": "uint256"
        },
        {
          "internalType": "address payable",
          "name": "treasure_fund_",
          "type": "address"
        }
      ],
      "name": "SetServiceFee",
      "outputs": [],
      "stateMutability": "nonpayable",
      "type": "function"
    },
    {
      "inputs": [
        {
          "internalType": "address",
          "name": "nft_contract_",
          "type": "address"
        },
        {
          "internalType": "enum MetaMarketplace.NftType",
          "name": "standard_",
          "type": "uint8"
        },
        {
          "internalType": "address payable",
          "name": "collection_owner_",
          "type": "address"
        },
        {
          "internalType": "uint256",
          "name": "collection_fee_",
          "type": "uint256"
        }
      ],
      "name": "SetUpMarketplace",
      "outputs": [],
      "stateMutability": "nonpayable",
      "type": "function"
    },
    {
      "inputs": [],
      "name": "_treasure_fund",
      "outputs": [
        {
          "internalType": "address payable",
          "name": "",
          "type": "address"
        }
      ],
      "stateMutability": "view",
      "type": "function"
    },
    {
      "inputs": [
        {
          "internalType": "address",
          "name": "token_contract_",
          "type": "address"
        },
        {
          "internalType": "uint256",
          "name": "tokenId",
          "type": "uint256"
        },
        {
          "internalType": "enum CurrenciesERC20.CurrencyERC20",
          "name": "currency_",
          "type": "uint8"
        }
      ],
      "name": "acceptBuyOffer",
      "outputs": [],
      "stateMutability": "nonpayable",
      "type": "function"
    },
    {
      "inputs": [
        {
          "internalType": "address",
          "name": "nft_contract_",
          "type": "address"
        },
        {
          "internalType": "address payable",
          "name": "collection_owner_",
          "type": "address"
        },
        {
          "internalType": "uint256",
          "name": "collection_fee_",
          "type": "uint256"
        }
      ],
      "name": "editMarketplace",
      "outputs": [],
      "stateMutability": "nonpayable",
      "type": "function"
    },
    {
      "inputs": [
        {
          "internalType": "address",
          "name": "nft_contract",
          "type": "address"
        },
        {
          "internalType": "uint256",
          "name": "token_id",
          "type": "uint256"
        },
        {
          "internalType": "enum CurrenciesERC20.CurrencyERC20",
          "name": "currency",
          "type": "uint8"
        }
      ],
      "name": "getBuyOffer",
      "outputs": [
        {
          "components": [
            {
              "internalType": "address",
              "name": "buyer",
              "type": "address"
            },
            {
              "internalType": "uint256",
              "name": "price",
              "type": "uint256"
            },
            {
              "internalType": "uint256",
              "name": "createTime",
              "type": "uint256"
            }
          ],
          "internalType": "struct MetaMarketplace.BuyOffer",
          "name": "b_offer",
          "type": "tuple"
        }
      ],
      "stateMutability": "view",
      "type": "function"
    },
    {
      "inputs": [
        {
          "internalType": "address",
          "name": "nft_contract",
          "type": "address"
        },
        {
          "internalType": "uint256",
          "name": "token_id",
          "type": "uint256"
        },
        {
          "internalType": "enum CurrenciesERC20.CurrencyERC20",
          "name": "currency",
          "type": "uint8"
        }
      ],
      "name": "getFloorPriceByCurrency",
      "outputs": [
        {
          "internalType": "uint256",
          "name": "floor_price",
          "type": "uint256"
        }
      ],
      "stateMutability": "view",
      "type": "function"
    },
    {
      "inputs": [
        {
          "internalType": "address",
          "name": "token_contract_",
          "type": "address"
        },
        {
          "internalType": "uint256",
          "name": "_tokenId",
          "type": "uint256"
        }
      ],
      "name": "getLastPrice",
      "outputs": [
        {
          "internalType": "uint256",
          "name": "_lastPrice",
          "type": "uint256"
        },
        {
          "internalType": "enum CurrenciesERC20.CurrencyERC20",
          "name": "currency_",
          "type": "uint8"
        }
      ],
      "stateMutability": "view",
      "type": "function"
    },
    {
      "inputs": [
        {
          "internalType": "address",
          "name": "nft_contract",
          "type": "address"
        },
        {
          "internalType": "uint256",
          "name": "token_id",
          "type": "uint256"
        }
      ],
      "name": "getSeller",
      "outputs": [
        {
          "internalType": "address",
          "name": "seller",
          "type": "address"
        }
      ],
      "stateMutability": "view",
      "type": "function"
    },
    {
      "inputs": [
        {
          "internalType": "address",
          "name": "token_contract_",
          "type": "address"
        },
        {
          "internalType": "uint256",
          "name": "tokenId",
          "type": "uint256"
        },
        {
          "internalType": "enum CurrenciesERC20.CurrencyERC20",
          "name": "currency_",
          "type": "uint8"
        },
        {
          "internalType": "uint256",
          "name": "bid_price_",
          "type": "uint256"
        }
      ],
      "name": "makeBuyOffer",
      "outputs": [],
      "stateMutability": "nonpayable",
      "type": "function"
    },
    {
      "inputs": [
        {
          "internalType": "uint256",
          "name": "tokenId",
          "type": "uint256"
        },
        {
          "internalType": "uint256",
          "name": "minPrice",
          "type": "uint256"
        },
        {
          "internalType": "address",
          "name": "nft_contract_",
          "type": "address"
        },
        {
          "internalType": "enum CurrenciesERC20.CurrencyERC20",
          "name": "currency_",
          "type": "uint8"
        },
        {
          "internalType": "string",
          "name": "category_",
          "type": "string"
        }
      ],
      "name": "makeSellOffer",
      "outputs": [],
      "stateMutability": "nonpayable",
      "type": "function"
    },
    {
      "inputs": [],
      "name": "owner",
      "outputs": [
        {
          "internalType": "address",
          "name": "",
          "type": "address"
        }
      ],
      "stateMutability": "view",
      "type": "function"
    },
    {
      "inputs": [],
      "name": "promille_fee",
      "outputs": [
        {
          "internalType": "uint256",
          "name": "",
          "type": "uint256"
        }
      ],
      "stateMutability": "view",
      "type": "function"
    },
    {
      "inputs": [
        {
          "internalType": "address",
          "name": "token_contract_",
          "type": "address"
        },
        {
          "internalType": "uint256",
          "name": "tokenId",
          "type": "uint256"
        },
        {
          "internalType": "enum CurrenciesERC20.CurrencyERC20",
          "name": "currency_",
          "type": "uint8"
        },
        {
          "internalType": "uint256",
          "name": "bid_price_",
          "type": "uint256"
        }
      ],
      "name": "purchase",
      "outputs": [],
      "stateMutability": "nonpayable",
      "type": "function"
    },
    {
      "inputs": [],
      "name": "renounceOwnership",
      "outputs": [],
      "stateMutability": "nonpayable",
      "type": "function"
    },
    {
      "inputs": [
        {
          "internalType": "bytes4",
          "name": "interfaceId",
          "type": "bytes4"
        }
      ],
      "name": "supportsInterface",
      "outputs": [
        {
          "internalType": "bool",
          "name": "",
          "type": "bool"
        }
      ],
      "stateMutability": "view",
      "type": "function"
    },
    {
      "inputs": [
        {
          "internalType": "address",
          "name": "newOwner",
          "type": "address"
        }
      ],
      "name": "transferOwnership",
      "outputs": [],
      "stateMutability": "nonpayable",
      "type": "function"
    },
    {
      "inputs": [
        {
          "internalType": "address",
          "name": "token_contract_",
          "type": "address"
        },
        {
          "internalType": "uint256",
          "name": "tokenId",
          "type": "uint256"
        },
        {
          "internalType": "enum CurrenciesERC20.CurrencyERC20",
          "name": "currency_",
          "type": "uint8"
        }
      ],
      "name": "withdrawBuyOffer",
      "outputs": [],
      "stateMutability": "nonpayable",
      "type": "function"
    },
    {
      "inputs": [
        {
          "internalType": "address",
          "name": "nft_contract_",
          "type": "address"
        },
        {
          "internalType": "uint256",
          "name": "tokenId",
          "type": "uint256"
        }
      ],
      "name": "withdrawSellOffer",
      "outputs": [],
      "stateMutability": "nonpayable",
      "type": "function"
    }
  ],
  "bytecode": "0x6080604052600f6003553480156200001657600080fd5b5060405162006c5238038062006c5283398181016040528101906200003c9190620009e3565b6200005c620000506200015260201b60201c565b6200015a60201b60201c565b82600260006101000a81548173ffffffffffffffffffffffffffffffffffffffff021916908373ffffffffffffffffffffffffffffffffffffffff160217905550620000b08260006200021e60201b60201c565b620000f2576040517f08c379a0000000000000000000000000000000000000000000000000000000008152600401620000e99062000b31565b60405180910390fd5b6200010882600083601e620007c660201b60201c565b80600460006101000a81548173ffffffffffffffffffffffffffffffffffffffff021916908373ffffffffffffffffffffffffffffffffffffffff16021790555050505062000c84565b600033905090565b60008060009054906101000a900473ffffffffffffffffffffffffffffffffffffffff169050816000806101000a81548173ffffffffffffffffffffffffffffffffffffffff021916908373ffffffffffffffffffffffffffffffffffffffff1602179055508173ffffffffffffffffffffffffffffffffffffffff168173ffffffffffffffffffffffffffffffffffffffff167f8be0079c531659141344cd1fd0a4f28419497f9722a3daafe3b4186f6b6457e060405160405180910390a35050565b6000600160048111156200025b577f4e487b7100000000000000000000000000000000000000000000000000000000600052602160045260246000fd5b82600481111562000295577f4e487b7100000000000000000000000000000000000000000000000000000000600052602160045260246000fd5b1415620003405760008373ffffffffffffffffffffffffffffffffffffffff166301ffc9a763780e9d6360e01b6040518263ffffffff1660e01b8152600401620002e0919062000af2565b60206040518083038186803b158015620002f957600080fd5b505afa1580156200030e573d6000803e3d6000fd5b505050506040513d601f19601f8201168201806040525081019062000334919062000a39565b905080915050620007c0565b600260048111156200037b577f4e487b7100000000000000000000000000000000000000000000000000000000600052602160045260246000fd5b826004811115620003b5577f4e487b7100000000000000000000000000000000000000000000000000000000600052602160045260246000fd5b1415620004605760008373ffffffffffffffffffffffffffffffffffffffff166301ffc9a7635b5e139f60e01b6040518263ffffffff1660e01b815260040162000400919062000af2565b60206040518083038186803b1580156200041957600080fd5b505afa1580156200042e573d6000803e3d6000fd5b505050506040513d601f19601f8201168201806040525081019062000454919062000a39565b905080915050620007c0565b600360048111156200049b577f4e487b7100000000000000000000000000000000000000000000000000000000600052602160045260246000fd5b826004811115620004d5577f4e487b7100000000000000000000000000000000000000000000000000000000600052602160045260246000fd5b1415620005805760008373ffffffffffffffffffffffffffffffffffffffff166301ffc9a76380ac58cd60e01b6040518263ffffffff1660e01b815260040162000520919062000af2565b60206040518083038186803b1580156200053957600080fd5b505afa1580156200054e573d6000803e3d6000fd5b505050506040513d601f19601f8201168201806040525081019062000574919062000a39565b905080915050620007c0565b60006004811115620005bb577f4e487b7100000000000000000000000000000000000000000000000000000000600052602160045260246000fd5b826004811115620005f5577f4e487b7100000000000000000000000000000000000000000000000000000000600052602160045260246000fd5b1415620006a05760008373ffffffffffffffffffffffffffffffffffffffff166301ffc9a7635b5e139f60e01b6040518263ffffffff1660e01b815260040162000640919062000af2565b60206040518083038186803b1580156200065957600080fd5b505afa1580156200066e573d6000803e3d6000fd5b505050506040513d601f19601f8201168201806040525081019062000694919062000a39565b905080915050620007c0565b600480811115620006da577f4e487b7100000000000000000000000000000000000000000000000000000000600052602160045260246000fd5b82600481111562000714577f4e487b7100000000000000000000000000000000000000000000000000000000600052602160045260246000fd5b1415620007bf5760008373ffffffffffffffffffffffffffffffffffffffff166301ffc9a7635b5e139f60e01b6040518263ffffffff1660e01b81526004016200075f919062000af2565b60206040518083038186803b1580156200077857600080fd5b505afa1580156200078d573d6000803e3d6000fd5b505050506040513d601f19601f82011682018060405250810190620007b3919062000a39565b905080915050620007c0565b5b92915050565b60001515600160008673ffffffffffffffffffffffffffffffffffffffff1673ffffffffffffffffffffffffffffffffffffffff16815260200190815260200160002060040160019054906101000a900460ff161515146200085f576040517f08c379a0000000000000000000000000000000000000000000000000000000008152600401620008569062000b0f565b60405180910390fd5b6000600160008673ffffffffffffffffffffffffffffffffffffffff1673ffffffffffffffffffffffffffffffffffffffff1681526020019081526020016000209050838160040160006101000a81548160ff02191690836004811115620008f0577f4e487b7100000000000000000000000000000000000000000000000000000000600052602160045260246000fd5b021790555060018160040160016101000a81548160ff021916908315150217905550828160040160026101000a81548173ffffffffffffffffffffffffffffffffffffffff021916908373ffffffffffffffffffffffffffffffffffffffff1602179055508181600501819055507f11f8cd014e58379583c686140218c2c5d4a9cf8f7c57e152fdfaed66d627c6ed856040516200098f919062000ad5565b60405180910390a15050505050565b600081519050620009af8162000c36565b92915050565b600081519050620009c68162000c50565b92915050565b600081519050620009dd8162000c6a565b92915050565b600080600060608486031215620009f957600080fd5b600062000a09868287016200099e565b935050602062000a1c868287016200099e565b925050604062000a2f86828701620009b5565b9150509250925092565b60006020828403121562000a4c57600080fd5b600062000a5c84828501620009cc565b91505092915050565b62000a708162000b64565b82525050565b62000a818162000b98565b82525050565b600062000a9660208362000b53565b915062000aa38262000be4565b602082019050919050565b600062000abd60168362000b53565b915062000aca8262000c0d565b602082019050919050565b600060208201905062000aec600083018462000a65565b92915050565b600060208201905062000b09600083018462000a76565b92915050565b6000602082019050818103600083015262000b2a8162000a87565b9050919050565b6000602082019050818103600083015262000b4c8162000aae565b9050919050565b600082825260208201905092915050565b600062000b718262000bc4565b9050919050565b600062000b858262000bc4565b9050919050565b60008115159050919050565b60007fffffffff0000000000000000000000000000000000000000000000000000000082169050919050565b600073ffffffffffffffffffffffffffffffffffffffff82169050919050565b7f4d61726b6574706c61636520697320616c726561647920736574746564207570600082015250565b7f5374616e64617264206e6f7420737570706f7274656400000000000000000000600082015250565b62000c418162000b64565b811462000c4d57600080fd5b50565b62000c5b8162000b78565b811462000c6757600080fd5b50565b62000c758162000b8c565b811462000c8157600080fd5b50565b615fbe8062000c946000396000f3fe608060405234801561001057600080fd5b506004361061012c5760003560e01c8063505adff4116100ad5780638da5cb5b116100715780638da5cb5b1461032c578063f2fde38b1461034a578063f82ffff214610366578063fa75c8c514610382578063fa7a5405146103b55761012c565b8063505adff4146102b057806357194e12146102cc578063586e5576146102e8578063715018a6146103065780638813a44b146103105761012c565b80631922cb8d116100f45780631922cb8d1461020d57806322bb5fca1461023e5780633d56bb9f1461025a578063433231f3146102785780634ee298dd146102945761012c565b806301ffc9a7146101315780630a3621ca146101615780630e079c4d1461019157806316af5a65146101ad578063189ecff1146101dd575b600080fd5b61014b60048036038101906101469190614a38565b6103d1565b6040516101589190615168565b60405180910390f35b61017b6004803603810190610176919061495d565b61043b565b6040516101889190615523565b60405180910390f35b6101ab60048036038101906101a69190614921565b610595565b005b6101c760048036038101906101c2919061495d565b6109e7565b6040516101d4919061553e565b60405180910390f35b6101f760048036038101906101f29190614921565b610aca565b604051610204919061503b565b60405180910390f35b61022760048036038101906102229190614921565b610b4b565b604051610235929190615559565b60405180910390f35b6102586004803603810190610253919061486f565b610bdc565b005b610262610d0f565b60405161026f919061553e565b60405180910390f35b610292600480360381019061028d919061495d565b610d15565b005b6102ae60048036038101906102a99190614aef565b611336565b005b6102ca60048036038101906102c59190614ab3565b611830565b005b6102e660048036038101906102e1919061495d565b611884565b005b6102f06120b0565b6040516102fd9190615056565b60405180910390f35b61030e6120d6565b005b61032a600480360381019061032591906149ac565b6120ea565b005b610334612bcf565b604051610341919061503b565b60405180910390f35b610364600480360381019061035f919061481d565b612bf8565b005b610380600480360381019061037b91906148be565b612c7c565b005b61039c6004803603810190610397919061481d565b612e4e565b6040516103ac949392919061519e565b60405180910390f35b6103cf60048036038101906103ca91906149ac565b612eb8565b005b60007f01ffc9a7000000000000000000000000000000000000000000000000000000007bffffffffffffffffffffffffffffffffffffffffffffffffffffffff1916827bffffffffffffffffffffffffffffffffffffffffffffffffffffffff1916149050919050565b6104436146ac565b600160008573ffffffffffffffffffffffffffffffffffffffff1673ffffffffffffffffffffffffffffffffffffffff168152602001908152602001600020600101600084815260200190815260200160002060008360058111156104d1577f4e487b7100000000000000000000000000000000000000000000000000000000600052602160045260246000fd5b6005811115610509577f4e487b7100000000000000000000000000000000000000000000000000000000600052602160045260246000fd5b81526020019081526020016000206040518060600160405290816000820160009054906101000a900473ffffffffffffffffffffffffffffffffffffffff1673ffffffffffffffffffffffffffffffffffffffff1673ffffffffffffffffffffffffffffffffffffffff1681526020016001820154815260200160028201548152505090509392505050565b8160011515600160008373ffffffffffffffffffffffffffffffffffffffff1673ffffffffffffffffffffffffffffffffffffffff16815260200190815260200160002060040160019054906101000a900460ff1615151461062c576040517f08c379a000000000000000000000000000000000000000000000000000000000815260040161062390615383565b60405180910390fd5b818360011515600160008373ffffffffffffffffffffffffffffffffffffffff1673ffffffffffffffffffffffffffffffffffffffff16815260200190815260200160002060040160019054906101000a900460ff161515146106c4576040517f08c379a00000000000000000000000000000000000000000000000000000000081526004016106bb906153e3565b60405180910390fd5b60008190503073ffffffffffffffffffffffffffffffffffffffff168173ffffffffffffffffffffffffffffffffffffffff1663081812fc856040518263ffffffff1660e01b8152600401610719919061553e565b60206040518083038186803b15801561073157600080fd5b505afa158015610745573d6000803e3d6000fd5b505050506040513d601f19601f820116820180604052508101906107699190614846565b73ffffffffffffffffffffffffffffffffffffffff16146107bf576040517f08c379a00000000000000000000000000000000000000000000000000000000081526004016107b690615343565b60405180910390fd5b6000600160008873ffffffffffffffffffffffffffffffffffffffff1673ffffffffffffffffffffffffffffffffffffffff1681526020019081526020016000209050600073ffffffffffffffffffffffffffffffffffffffff1681600001600088815260200190815260200160002060000160009054906101000a900473ffffffffffffffffffffffffffffffffffffffff1673ffffffffffffffffffffffffffffffffffffffff1614156108aa576040517f08c379a00000000000000000000000000000000000000000000000000000000081526004016108a190615263565b60405180910390fd5b3373ffffffffffffffffffffffffffffffffffffffff1681600001600088815260200190815260200160002060000160009054906101000a900473ffffffffffffffffffffffffffffffffffffffff1673ffffffffffffffffffffffffffffffffffffffff1614610950576040517f08c379a000000000000000000000000000000000000000000000000000000000815260040161094790615483565b60405180910390fd5b806000016000878152602001908152602001600020600080820160006101000a81549073ffffffffffffffffffffffffffffffffffffffff02191690555050858773ffffffffffffffffffffffffffffffffffffffff167fce00375f5a3b9c4a857fc9fa1b243f1af9b10a7db9d2d47227fe8217003c9ad4336040516109d6919061503b565b60405180910390a350505050505050565b6000600160008573ffffffffffffffffffffffffffffffffffffffff1673ffffffffffffffffffffffffffffffffffffffff16815260200190815260200160002060000160008481526020019081526020016000206001016000836005811115610a7a577f4e487b7100000000000000000000000000000000000000000000000000000000600052602160045260246000fd5b6005811115610ab2577f4e487b7100000000000000000000000000000000000000000000000000000000600052602160045260246000fd5b81526020019081526020016000205490509392505050565b6000600160008473ffffffffffffffffffffffffffffffffffffffff1673ffffffffffffffffffffffffffffffffffffffff168152602001908152602001600020600001600083815260200190815260200160002060000160009054906101000a900473ffffffffffffffffffffffffffffffffffffffff16905092915050565b6000806000600160008673ffffffffffffffffffffffffffffffffffffffff1673ffffffffffffffffffffffffffffffffffffffff168152602001908152602001600020905080600201600085815260200190815260200160002060000154925080600201600085815260200190815260200160002060010160009054906101000a900460ff169150509250929050565b610be4613664565b60011515600160008573ffffffffffffffffffffffffffffffffffffffff1673ffffffffffffffffffffffffffffffffffffffff16815260200190815260200160002060040160019054906101000a900460ff16151514610c7a576040517f08c379a0000000000000000000000000000000000000000000000000000000008152600401610c7190615363565b60405180910390fd5b6000600160008573ffffffffffffffffffffffffffffffffffffffff1673ffffffffffffffffffffffffffffffffffffffff1681526020019081526020016000209050828160040160026101000a81548173ffffffffffffffffffffffffffffffffffffffff021916908373ffffffffffffffffffffffffffffffffffffffff16021790555081816005018190555050505050565b60035481565b8260011515600160008373ffffffffffffffffffffffffffffffffffffffff1673ffffffffffffffffffffffffffffffffffffffff16815260200190815260200160002060040160019054906101000a900460ff16151514610dac576040517f08c379a0000000000000000000000000000000000000000000000000000000008152600401610da390615383565b60405180910390fd5b8284836000600160008473ffffffffffffffffffffffffffffffffffffffff1673ffffffffffffffffffffffffffffffffffffffff16815260200190815260200160002090506201518042610e01919061567b565b8160010160008681526020019081526020016000206000846005811115610e51577f4e487b7100000000000000000000000000000000000000000000000000000000600052602160045260246000fd5b6005811115610e89577f4e487b7100000000000000000000000000000000000000000000000000000000600052602160045260246000fd5b81526020019081526020016000206002015410610edb576040517f08c379a0000000000000000000000000000000000000000000000000000000008152600401610ed290615443565b60405180910390fd5b6000600160008a73ffffffffffffffffffffffffffffffffffffffff1673ffffffffffffffffffffffffffffffffffffffff16815260200190815260200160002090503373ffffffffffffffffffffffffffffffffffffffff168160010160008a81526020019081526020016000206000896005811115610f85577f4e487b7100000000000000000000000000000000000000000000000000000000600052602160045260246000fd5b6005811115610fbd577f4e487b7100000000000000000000000000000000000000000000000000000000600052602160045260246000fd5b815260200190815260200160002060000160009054906101000a900473ffffffffffffffffffffffffffffffffffffffff1673ffffffffffffffffffffffffffffffffffffffff1614611045576040517f08c379a000000000000000000000000000000000000000000000000000000000815260040161103c90615463565b60405180910390fd5b60008160030160003373ffffffffffffffffffffffffffffffffffffffff1673ffffffffffffffffffffffffffffffffffffffff16815260200190815260200160002060008a815260200190815260200160002060008960058111156110d4577f4e487b7100000000000000000000000000000000000000000000000000000000600052602160045260246000fd5b600581111561110c577f4e487b7100000000000000000000000000000000000000000000000000000000600052602160045260246000fd5b81526020019081526020016000205490506000811115611132576111318833836136e2565b5b60008260030160003373ffffffffffffffffffffffffffffffffffffffff1673ffffffffffffffffffffffffffffffffffffffff16815260200190815260200160002060008b815260200190815260200160002060008a60058111156111c1577f4e487b7100000000000000000000000000000000000000000000000000000000600052602160045260246000fd5b60058111156111f9577f4e487b7100000000000000000000000000000000000000000000000000000000600052602160045260246000fd5b8152602001908152602001600020819055508160010160008a8152602001908152602001600020600089600581111561125b577f4e487b7100000000000000000000000000000000000000000000000000000000600052602160045260246000fd5b6005811115611293577f4e487b7100000000000000000000000000000000000000000000000000000000600052602160045260246000fd5b8152602001908152602001600020600080820160006101000a81549073ffffffffffffffffffffffffffffffffffffffff0219169055600182016000905560028201600090555050888a73ffffffffffffffffffffffffffffffffffffffff167fe3805436fa14d9349d05b8c9a073e53c4502637d37ec34b3f050d3946faea1da33604051611322919061503b565b60405180910390a350505050505050505050565b8260011515600160008373ffffffffffffffffffffffffffffffffffffffff1673ffffffffffffffffffffffffffffffffffffffff16815260200190815260200160002060040160019054906101000a900460ff161515146113cd576040517f08c379a00000000000000000000000000000000000000000000000000000000081526004016113c490615383565b60405180910390fd5b858460011515600160008373ffffffffffffffffffffffffffffffffffffffff1673ffffffffffffffffffffffffffffffffffffffff16815260200190815260200160002060040160019054906101000a900460ff16151514611465576040517f08c379a000000000000000000000000000000000000000000000000000000000815260040161145c906153e3565b60405180910390fd5b60008190503073ffffffffffffffffffffffffffffffffffffffff168173ffffffffffffffffffffffffffffffffffffffff1663081812fc856040518263ffffffff1660e01b81526004016114ba919061553e565b60206040518083038186803b1580156114d257600080fd5b505afa1580156114e6573d6000803e3d6000fd5b505050506040513d601f19601f8201168201806040525081019061150a9190614846565b73ffffffffffffffffffffffffffffffffffffffff1614611560576040517f08c379a000000000000000000000000000000000000000000000000000000000815260040161155790615343565b60405180910390fd5b888760008190503373ffffffffffffffffffffffffffffffffffffffff168173ffffffffffffffffffffffffffffffffffffffff16636352211e856040518263ffffffff1660e01b81526004016115b7919061553e565b60206040518083038186803b1580156115cf57600080fd5b505afa1580156115e3573d6000803e3d6000fd5b505050506040513d601f19601f820116820180604052508101906116079190614846565b73ffffffffffffffffffffffffffffffffffffffff161461165d576040517f08c379a0000000000000000000000000000000000000000000000000000000008152600401611654906154a3565b60405180910390fd5b6000600160008c73ffffffffffffffffffffffffffffffffffffffff1673ffffffffffffffffffffffffffffffffffffffff16815260200190815260200160002090508b8160000160008f815260200190815260200160002060010160008c60058111156116f4577f4e487b7100000000000000000000000000000000000000000000000000000000600052602160045260246000fd5b600581111561172c577f4e487b7100000000000000000000000000000000000000000000000000000000600052602160045260246000fd5b815260200190815260200160002081905550338160000160008f815260200190815260200160002060000160006101000a81548173ffffffffffffffffffffffffffffffffffffffff021916908373ffffffffffffffffffffffffffffffffffffffff1602179055507fff04060fdb1ade3f35e2fbbdae70256ab6294fe60ce3e63dfcd01d39a73e462f8b8e338f6040516117ca9493929190615123565b60405180910390a1886040516117e09190615024565b60405180910390207fa7fa1aea4d0dfc215e51c776b14941c757ea04d91fcbf8a96f84ef37ccd6085a8c8f6040516118199291906150fa565b60405180910390a250505050505050505050505050565b611838613664565b8160038190555080600460006101000a81548173ffffffffffffffffffffffffffffffffffffffff021916908373ffffffffffffffffffffffffffffffffffffffff1602179055505050565b818360011515600160008373ffffffffffffffffffffffffffffffffffffffff1673ffffffffffffffffffffffffffffffffffffffff16815260200190815260200160002060040160019054906101000a900460ff1615151461191c576040517f08c379a0000000000000000000000000000000000000000000000000000000008152600401611913906153e3565b60405180910390fd5b60008190503073ffffffffffffffffffffffffffffffffffffffff168173ffffffffffffffffffffffffffffffffffffffff1663081812fc856040518263ffffffff1660e01b8152600401611971919061553e565b60206040518083038186803b15801561198957600080fd5b505afa15801561199d573d6000803e3d6000fd5b505050506040513d601f19601f820116820180604052508101906119c19190614846565b73ffffffffffffffffffffffffffffffffffffffff1614611a17576040517f08c379a0000000000000000000000000000000000000000000000000000000008152600401611a0e90615343565b60405180910390fd5b848660008190503373ffffffffffffffffffffffffffffffffffffffff168173ffffffffffffffffffffffffffffffffffffffff16636352211e856040518263ffffffff1660e01b8152600401611a6e919061553e565b60206040518083038186803b158015611a8657600080fd5b505afa158015611a9a573d6000803e3d6000fd5b505050506040513d601f19601f82011682018060405250810190611abe9190614846565b73ffffffffffffffffffffffffffffffffffffffff1614611b14576040517f08c379a0000000000000000000000000000000000000000000000000000000008152600401611b0b906154a3565b60405180910390fd5b6000600160008b73ffffffffffffffffffffffffffffffffffffffff1673ffffffffffffffffffffffffffffffffffffffff168152602001908152602001600020905060008160010160008b815260200190815260200160002060008a6005811115611ba9577f4e487b7100000000000000000000000000000000000000000000000000000000600052602160045260246000fd5b6005811115611be1577f4e487b7100000000000000000000000000000000000000000000000000000000600052602160045260246000fd5b815260200190815260200160002060000160009054906101000a900473ffffffffffffffffffffffffffffffffffffffff169050600073ffffffffffffffffffffffffffffffffffffffff168173ffffffffffffffffffffffffffffffffffffffff161415611c85576040517f08c379a0000000000000000000000000000000000000000000000000000000008152600401611c7c90615423565b60405180910390fd5b60008260010160008c815260200190815260200160002060008b6005811115611cd7577f4e487b7100000000000000000000000000000000000000000000000000000000600052602160045260246000fd5b6005811115611d0f577f4e487b7100000000000000000000000000000000000000000000000000000000600052602160045260246000fd5b81526020019081526020016000206001015490508260000160008c8152602001908152602001600020600080820160006101000a81549073ffffffffffffffffffffffffffffffffffffffff021916905550508260010160008c815260200190815260200160002060008b6005811115611db2577f4e487b7100000000000000000000000000000000000000000000000000000000600052602160045260246000fd5b6005811115611dea577f4e487b7100000000000000000000000000000000000000000000000000000000600052602160045260246000fd5b8152602001908152602001600020600080820160006101000a81549073ffffffffffffffffffffffffffffffffffffffff021916905560018201600090556002820160009055505060008360030160008473ffffffffffffffffffffffffffffffffffffffff1673ffffffffffffffffffffffffffffffffffffffff16815260200190815260200160002060008d815260200190815260200160002060008c6005811115611ec1577f4e487b7100000000000000000000000000000000000000000000000000000000600052602160045260246000fd5b6005811115611ef9577f4e487b7100000000000000000000000000000000000000000000000000000000600052602160045260246000fd5b815260200190815260200160002081905550611f188c8c8c3385613863565b611f57576040517f08c379a0000000000000000000000000000000000000000000000000000000008152600401611f4e90615503565b60405180910390fd5b808360020160008d815260200190815260200160002060000181905550898360020160008d815260200190815260200160002060010160006101000a81548160ff02191690836005811115611fd5577f4e487b7100000000000000000000000000000000000000000000000000000000600052602160045260246000fd5b021790555060008c90508073ffffffffffffffffffffffffffffffffffffffff166342842e0e33858f6040518463ffffffff1660e01b815260040161201c939291906150c3565b600060405180830381600087803b15801561203657600080fd5b505af115801561204a573d6000803e3d6000fd5b505050508b8d73ffffffffffffffffffffffffffffffffffffffff167f3644379fe03acf3b2db463b2b1fb79bfa0a162795d0e7bb0c8a999bd98db8135338686604051612099939291906150c3565b60405180910390a350505050505050505050505050565b600460009054906101000a900473ffffffffffffffffffffffffffffffffffffffff1681565b6120de613664565b6120e86000613c5a565b565b8360011515600160008373ffffffffffffffffffffffffffffffffffffffff1673ffffffffffffffffffffffffffffffffffffffff16815260200190815260200160002060040160019054906101000a900460ff16151514612181576040517f08c379a000000000000000000000000000000000000000000000000000000000815260040161217890615383565b60405180910390fd5b838560008190503373ffffffffffffffffffffffffffffffffffffffff168173ffffffffffffffffffffffffffffffffffffffff16636352211e856040518263ffffffff1660e01b81526004016121d8919061553e565b60206040518083038186803b1580156121f057600080fd5b505afa158015612204573d6000803e3d6000fd5b505050506040513d601f19601f820116820180604052508101906122289190614846565b73ffffffffffffffffffffffffffffffffffffffff16141561227f576040517f08c379a0000000000000000000000000000000000000000000000000000000008152600401612276906152e3565b60405180910390fd5b6000600160008a73ffffffffffffffffffffffffffffffffffffffff1673ffffffffffffffffffffffffffffffffffffffff168152602001908152602001600020905060008160000160008a81526020019081526020016000206001016000896005811115612317577f4e487b7100000000000000000000000000000000000000000000000000000000600052602160045260246000fd5b600581111561234f577f4e487b7100000000000000000000000000000000000000000000000000000000600052602160045260246000fd5b8152602001908152602001600020541461243f5780600001600089815260200190815260200160002060010160008860058111156123b6577f4e487b7100000000000000000000000000000000000000000000000000000000600052602160045260246000fd5b60058111156123ee577f4e487b7100000000000000000000000000000000000000000000000000000000600052602160045260246000fd5b815260200190815260200160002054861161243e576040517f08c379a000000000000000000000000000000000000000000000000000000000815260040161243590615243565b60405180910390fd5b5b620151804261244e919061567b565b8160010160008a8152602001908152602001600020600089600581111561249e577f4e487b7100000000000000000000000000000000000000000000000000000000600052602160045260246000fd5b60058111156124d6577f4e487b7100000000000000000000000000000000000000000000000000000000600052602160045260246000fd5b815260200190815260200160002060020154108061258c5750806001016000898152602001908152602001600020600088600581111561253f577f4e487b7100000000000000000000000000000000000000000000000000000000600052602160045260246000fd5b6005811115612577577f4e487b7100000000000000000000000000000000000000000000000000000000600052602160045260246000fd5b81526020019081526020016000206001015486115b6125cb576040517f08c379a00000000000000000000000000000000000000000000000000000000081526004016125c290615303565b60405180910390fd5b60008160010160008a8152602001908152602001600020600089600581111561261d577f4e487b7100000000000000000000000000000000000000000000000000000000600052602160045260246000fd5b6005811115612655577f4e487b7100000000000000000000000000000000000000000000000000000000600052602160045260246000fd5b815260200190815260200160002060000160009054906101000a900473ffffffffffffffffffffffffffffffffffffffff16905060008260030160008373ffffffffffffffffffffffffffffffffffffffff1673ffffffffffffffffffffffffffffffffffffffff16815260200190815260200160002060008b815260200190815260200160002060008a6005811115612718577f4e487b7100000000000000000000000000000000000000000000000000000000600052602160045260246000fd5b6005811115612750577f4e487b7100000000000000000000000000000000000000000000000000000000600052602160045260246000fd5b81526020019081526020016000205490506000811115612776576127758983836136e2565b5b60008360030160008473ffffffffffffffffffffffffffffffffffffffff1673ffffffffffffffffffffffffffffffffffffffff16815260200190815260200160002060008c815260200190815260200160002060008b6005811115612805577f4e487b7100000000000000000000000000000000000000000000000000000000600052602160045260246000fd5b600581111561283d577f4e487b7100000000000000000000000000000000000000000000000000000000600052602160045260246000fd5b81526020019081526020016000208190555061285a89338a613d1e565b612899576040517f08c379a000000000000000000000000000000000000000000000000000000000815260040161289090615323565b60405180910390fd5b338360010160008c815260200190815260200160002060008b60058111156128ea577f4e487b7100000000000000000000000000000000000000000000000000000000600052602160045260246000fd5b6005811115612922577f4e487b7100000000000000000000000000000000000000000000000000000000600052602160045260246000fd5b815260200190815260200160002060000160006101000a81548173ffffffffffffffffffffffffffffffffffffffff021916908373ffffffffffffffffffffffffffffffffffffffff160217905550878360010160008c815260200190815260200160002060008b60058111156129c2577f4e487b7100000000000000000000000000000000000000000000000000000000600052602160045260246000fd5b60058111156129fa577f4e487b7100000000000000000000000000000000000000000000000000000000600052602160045260246000fd5b815260200190815260200160002060010181905550428360010160008c815260200190815260200160002060008b6005811115612a60577f4e487b7100000000000000000000000000000000000000000000000000000000600052602160045260246000fd5b6005811115612a98577f4e487b7100000000000000000000000000000000000000000000000000000000600052602160045260246000fd5b815260200190815260200160002060020181905550878360030160003373ffffffffffffffffffffffffffffffffffffffff1673ffffffffffffffffffffffffffffffffffffffff16815260200190815260200160002060008c815260200190815260200160002060008b6005811115612b3b577f4e487b7100000000000000000000000000000000000000000000000000000000600052602160045260246000fd5b6005811115612b73577f4e487b7100000000000000000000000000000000000000000000000000000000600052602160045260246000fd5b8152602001908152602001600020819055507f61e99c5925f0917c808d292f464c28394c472db57c537b76eb60db90a49420ed8b8b338b604051612bba9493929190615123565b60405180910390a15050505050505050505050565b60008060009054906101000a900473ffffffffffffffffffffffffffffffffffffffff16905090565b612c00613664565b600073ffffffffffffffffffffffffffffffffffffffff168173ffffffffffffffffffffffffffffffffffffffff161415612c70576040517f08c379a0000000000000000000000000000000000000000000000000000000008152600401612c6790615283565b60405180910390fd5b612c7981613c5a565b50565b60001515600160008673ffffffffffffffffffffffffffffffffffffffff1673ffffffffffffffffffffffffffffffffffffffff16815260200190815260200160002060040160019054906101000a900460ff16151514612d12576040517f08c379a0000000000000000000000000000000000000000000000000000000008152600401612d0990615203565b60405180910390fd5b6000600160008673ffffffffffffffffffffffffffffffffffffffff1673ffffffffffffffffffffffffffffffffffffffff1681526020019081526020016000209050838160040160006101000a81548160ff02191690836004811115612da2577f4e487b7100000000000000000000000000000000000000000000000000000000600052602160045260246000fd5b021790555060018160040160016101000a81548160ff021916908315150217905550828160040160026101000a81548173ffffffffffffffffffffffffffffffffffffffff021916908373ffffffffffffffffffffffffffffffffffffffff1602179055508181600501819055507f11f8cd014e58379583c686140218c2c5d4a9cf8f7c57e152fdfaed66d627c6ed85604051612e3f919061503b565b60405180910390a15050505050565b60016020528060005260406000206000915090508060040160009054906101000a900460ff16908060040160019054906101000a900460ff16908060040160029054906101000a900473ffffffffffffffffffffffffffffffffffffffff16908060050154905084565b8360011515600160008373ffffffffffffffffffffffffffffffffffffffff1673ffffffffffffffffffffffffffffffffffffffff16815260200190815260200160002060040160019054906101000a900460ff16151514612f4f576040517f08c379a0000000000000000000000000000000000000000000000000000000008152600401612f4690615383565b60405180910390fd5b838560008190503373ffffffffffffffffffffffffffffffffffffffff168173ffffffffffffffffffffffffffffffffffffffff16636352211e856040518263ffffffff1660e01b8152600401612fa6919061553e565b60206040518083038186803b158015612fbe57600080fd5b505afa158015612fd2573d6000803e3d6000fd5b505050506040513d601f19601f82011682018060405250810190612ff69190614846565b73ffffffffffffffffffffffffffffffffffffffff16141561304d576040517f08c379a0000000000000000000000000000000000000000000000000000000008152600401613044906152e3565b60405180910390fd5b6000600160008a73ffffffffffffffffffffffffffffffffffffffff1673ffffffffffffffffffffffffffffffffffffffff168152602001908152602001600020905060008160000160008a815260200190815260200160002060000160009054906101000a900473ffffffffffffffffffffffffffffffffffffffff169050600073ffffffffffffffffffffffffffffffffffffffff168173ffffffffffffffffffffffffffffffffffffffff16141561313d576040517f08c379a000000000000000000000000000000000000000000000000000000000815260040161313490615403565b60405180910390fd5b60008a90503073ffffffffffffffffffffffffffffffffffffffff168173ffffffffffffffffffffffffffffffffffffffff1663081812fc8c6040518263ffffffff1660e01b8152600401613192919061553e565b60206040518083038186803b1580156131aa57600080fd5b505afa1580156131be573d6000803e3d6000fd5b505050506040513d601f19601f820116820180604052508101906131e29190614846565b73ffffffffffffffffffffffffffffffffffffffff16146132c6578260000160008b8152602001908152602001600020600080820160006101000a81549073ffffffffffffffffffffffffffffffffffffffff02191690555050898b73ffffffffffffffffffffffffffffffffffffffff167fce00375f5a3b9c4a857fc9fa1b243f1af9b10a7db9d2d47227fe8217003c9ad484604051613283919061503b565b60405180910390a36040517f08c379a00000000000000000000000000000000000000000000000000000000081526004016132bd906153a3565b60405180910390fd5b60008360000160008c815260200190815260200160002060010160008b600581111561331b577f4e487b7100000000000000000000000000000000000000000000000000000000600052602160045260246000fd5b6005811115613353577f4e487b7100000000000000000000000000000000000000000000000000000000600052602160045260246000fd5b815260200190815260200160002054116133a2576040517f08c379a0000000000000000000000000000000000000000000000000000000008152600401613399906154e3565b60405180910390fd5b8260000160008b815260200190815260200160002060010160008a60058111156133f5577f4e487b7100000000000000000000000000000000000000000000000000000000600052602160045260246000fd5b600581111561342d577f4e487b7100000000000000000000000000000000000000000000000000000000600052602160045260246000fd5b81526020019081526020016000205488101561347e576040517f08c379a0000000000000000000000000000000000000000000000000000000008152600401613475906154c3565b60405180910390fd5b600015156134908c8c8c33878e613ea8565b151514156134d3576040517f08c379a00000000000000000000000000000000000000000000000000000000081526004016134ca906152a3565b60405180910390fd5b878360020160008c815260200190815260200160002060000181905550888360020160008c815260200190815260200160002060010160006101000a81548160ff02191690836005811115613551577f4e487b7100000000000000000000000000000000000000000000000000000000600052602160045260246000fd5b02179055508073ffffffffffffffffffffffffffffffffffffffff166342842e0e83338d6040518463ffffffff1660e01b8152600401613593939291906150c3565b600060405180830381600087803b1580156135ad57600080fd5b505af11580156135c1573d6000803e3d6000fd5b505050508260000160008b8152602001908152602001600020600080820160006101000a81549073ffffffffffffffffffffffffffffffffffffffff02191690555050898b73ffffffffffffffffffffffffffffffffffffffff167f3644379fe03acf3b2db463b2b1fb79bfa0a162795d0e7bb0c8a999bd98db813584338c60405161364f939291906150c3565b60405180910390a35050505050505050505050565b61366c614412565b73ffffffffffffffffffffffffffffffffffffffff1661368a612bcf565b73ffffffffffffffffffffffffffffffffffffffff16146136e0576040517f08c379a00000000000000000000000000000000000000000000000000000000081526004016136d7906153c3565b60405180910390fd5b565b6000600260009054906101000a900473ffffffffffffffffffffffffffffffffffffffff1673ffffffffffffffffffffffffffffffffffffffff1663dcaf421b856040518263ffffffff1660e01b815260040161373f9190615183565b60206040518083038186803b15801561375757600080fd5b505afa15801561376b573d6000803e3d6000fd5b505050506040513d601f19601f8201168201806040525081019061378f9190614a61565b90508073ffffffffffffffffffffffffffffffffffffffff1663a9059cbb84846040518363ffffffff1660e01b81526004016137cc9291906150fa565b602060405180830381600087803b1580156137e657600080fd5b505af11580156137fa573d6000803e3d6000fd5b505050506040513d601f19601f8201168201806040525081019061381e9190614a0f565b61385d576040517f08c379a0000000000000000000000000000000000000000000000000000000008152600401613854906151e3565b60405180910390fd5b50505050565b600080600260009054906101000a900473ffffffffffffffffffffffffffffffffffffffff1673ffffffffffffffffffffffffffffffffffffffff1663dcaf421b866040518263ffffffff1660e01b81526004016138c19190615183565b60206040518083038186803b1580156138d957600080fd5b505afa1580156138ed573d6000803e3d6000fd5b505050506040513d601f19601f820116820180604052508101906139119190614a61565b9050600073__$6ca259786bae6b18641118eb2a4c0483c3$__6336ea6178856103e86003546040518463ffffffff1660e01b815260040161395493929190615582565b60206040518083038186803b15801561396c57600080fd5b505af4158015613980573d6000803e3d6000fd5b505050506040513d601f19601f820116820180604052508101906139a49190614a8a565b90506000806139b38a8761441a565b809250819350505060008184886139ca919061567b565b6139d4919061567b565b90508473ffffffffffffffffffffffffffffffffffffffff1663a9059cbb89836040518363ffffffff1660e01b8152600401613a119291906150fa565b602060405180830381600087803b158015613a2b57600080fd5b505af1158015613a3f573d6000803e3d6000fd5b505050506040513d601f19601f82011682018060405250810190613a639190614a0f565b508473ffffffffffffffffffffffffffffffffffffffff1663a9059cbb600460009054906101000a900473ffffffffffffffffffffffffffffffffffffffff16866040518363ffffffff1660e01b8152600401613ac1929190615071565b602060405180830381600087803b158015613adb57600080fd5b505af1158015613aef573d6000803e3d6000fd5b505050506040513d601f19601f82011682018060405250810190613b139190614a0f565b506000821115613be9578473ffffffffffffffffffffffffffffffffffffffff1663a9059cbb84846040518363ffffffff1660e01b8152600401613b589291906150fa565b602060405180830381600087803b158015613b7257600080fd5b505af1158015613b86573d6000803e3d6000fd5b505050506040513d601f19601f82011682018060405250810190613baa9190614a0f565b507f5825d7670ca9035e2d333fd7f1cfca7d8e476c3522beb6447f33885ca68a5ed18b8b8585604051613be09493929190615123565b60405180910390a15b7fe1ac6cda82b822e7f388493f39f37748308acbc0a4c3044861e00a2ffaa46f9e878583600460009054906101000a900473ffffffffffffffffffffffffffffffffffffffff16604051613c4094939291906155b9565b60405180910390a160019550505050505095945050505050565b60008060009054906101000a900473ffffffffffffffffffffffffffffffffffffffff169050816000806101000a81548173ffffffffffffffffffffffffffffffffffffffff021916908373ffffffffffffffffffffffffffffffffffffffff1602179055508173ffffffffffffffffffffffffffffffffffffffff168173ffffffffffffffffffffffffffffffffffffffff167f8be0079c531659141344cd1fd0a4f28419497f9722a3daafe3b4186f6b6457e060405160405180910390a35050565b600080600260009054906101000a900473ffffffffffffffffffffffffffffffffffffffff1673ffffffffffffffffffffffffffffffffffffffff1663dcaf421b866040518263ffffffff1660e01b8152600401613d7c9190615183565b60206040518083038186803b158015613d9457600080fd5b505afa158015613da8573d6000803e3d6000fd5b505050506040513d601f19601f82011682018060405250810190613dcc9190614a61565b90508073ffffffffffffffffffffffffffffffffffffffff166323b872dd8530866040518463ffffffff1660e01b8152600401613e0b939291906150c3565b602060405180830381600087803b158015613e2557600080fd5b505af1158015613e39573d6000803e3d6000fd5b505050506040513d601f19601f82011682018060405250810190613e5d9190614a0f565b613e9c576040517f08c379a0000000000000000000000000000000000000000000000000000000008152600401613e93906152c3565b60405180910390fd5b60019150509392505050565b600080600260009054906101000a900473ffffffffffffffffffffffffffffffffffffffff1673ffffffffffffffffffffffffffffffffffffffff1663dcaf421b876040518263ffffffff1660e01b8152600401613f069190615183565b60206040518083038186803b158015613f1e57600080fd5b505afa158015613f32573d6000803e3d6000fd5b505050506040513d601f19601f82011682018060405250810190613f569190614a61565b905060008173ffffffffffffffffffffffffffffffffffffffff1663dd62ed3e87306040518363ffffffff1660e01b8152600401613f9592919061509a565b60206040518083038186803b158015613fad57600080fd5b505afa158015613fc1573d6000803e3d6000fd5b505050506040513d601f19601f82011682018060405250810190613fe59190614a8a565b905083811015613ffa57600092505050614408565b600073__$6ca259786bae6b18641118eb2a4c0483c3$__6336ea6178866103e86003546040518463ffffffff1660e01b815260040161403b93929190615582565b60206040518083038186803b15801561405357600080fd5b505af4158015614067573d6000803e3d6000fd5b505050506040513d601f19601f8201168201806040525081019061408b9190614a8a565b905060008061409a8c8861441a565b809250819350505060008184896140b1919061567b565b6140bb919061567b565b90508573ffffffffffffffffffffffffffffffffffffffff166323b872dd8b308b6040518463ffffffff1660e01b81526004016140fa939291906150c3565b602060405180830381600087803b15801561411457600080fd5b505af1158015614128573d6000803e3d6000fd5b505050506040513d601f19601f8201168201806040525081019061414c9190614a0f565b61418b576040517f08c379a000000000000000000000000000000000000000000000000000000000815260040161418290615223565b60405180910390fd5b8573ffffffffffffffffffffffffffffffffffffffff1663a9059cbb8a836040518363ffffffff1660e01b81526004016141c69291906150fa565b602060405180830381600087803b1580156141e057600080fd5b505af11580156141f4573d6000803e3d6000fd5b505050506040513d601f19601f820116820180604052508101906142189190614a0f565b508573ffffffffffffffffffffffffffffffffffffffff1663a9059cbb600460009054906101000a900473ffffffffffffffffffffffffffffffffffffffff16866040518363ffffffff1660e01b8152600401614276929190615071565b602060405180830381600087803b15801561429057600080fd5b505af11580156142a4573d6000803e3d6000fd5b505050506040513d601f19601f820116820180604052508101906142c89190614a0f565b50600082111561439e578573ffffffffffffffffffffffffffffffffffffffff1663a9059cbb84846040518363ffffffff1660e01b815260040161430d9291906150fa565b602060405180830381600087803b15801561432757600080fd5b505af115801561433b573d6000803e3d6000fd5b505050506040513d601f19601f8201168201806040525081019061435f9190614a0f565b507f5825d7670ca9035e2d333fd7f1cfca7d8e476c3522beb6447f33885ca68a5ed18d8d85856040516143959493929190615123565b60405180910390a15b7fe1ac6cda82b822e7f388493f39f37748308acbc0a4c3044861e00a2ffaa46f9e888583600460009054906101000a900473ffffffffffffffffffffffffffffffffffffffff166040516143f594939291906155b9565b60405180910390a1600196505050505050505b9695505050505050565b600033905090565b6000806000600160008673ffffffffffffffffffffffffffffffffffffffff1673ffffffffffffffffffffffffffffffffffffffff16815260200190815260200160002060040160009054906101000a900460ff169050600060048111156144ab577f4e487b7100000000000000000000000000000000000000000000000000000000600052602160045260246000fd5b8160048111156144e4577f4e487b7100000000000000000000000000000000000000000000000000000000600052602160045260246000fd5b14156145a557600460009054906101000a900473ffffffffffffffffffffffffffffffffffffffff16925073__$6ca259786bae6b18641118eb2a4c0483c3$__6336ea6178856103e86003546040518463ffffffff1660e01b815260040161454e93929190615582565b60206040518083038186803b15801561456657600080fd5b505af415801561457a573d6000803e3d6000fd5b505050506040513d601f19601f8201168201806040525081019061459e9190614a8a565b91506146a4565b6000600160008773ffffffffffffffffffffffffffffffffffffffff1673ffffffffffffffffffffffffffffffffffffffff16815260200190815260200160002090508060040160029054906101000a900473ffffffffffffffffffffffffffffffffffffffff16935073__$6ca259786bae6b18641118eb2a4c0483c3$__6336ea6178866103e884600501546040518463ffffffff1660e01b815260040161465093929190615582565b60206040518083038186803b15801561466857600080fd5b505af415801561467c573d6000803e3d6000fd5b505050506040513d601f19601f820116820180604052508101906146a09190614a8a565b9250505b509250929050565b6040518060600160405280600073ffffffffffffffffffffffffffffffffffffffff16815260200160008152602001600081525090565b60006146f66146f184615623565b6155fe565b90508281526020810184848401111561470e57600080fd5b6147198482856157d9565b509392505050565b60008135905061473081615ede565b92915050565b60008151905061474581615ede565b92915050565b60008135905061475a81615ef5565b92915050565b60008151905061476f81615f0c565b92915050565b60008135905061478481615f23565b92915050565b60008151905061479981615f3a565b92915050565b6000813590506147ae81615f51565b92915050565b6000813590506147c381615f61565b92915050565b600082601f8301126147da57600080fd5b81356147ea8482602086016146e3565b91505092915050565b60008135905061480281615f71565b92915050565b60008151905061481781615f71565b92915050565b60006020828403121561482f57600080fd5b600061483d84828501614721565b91505092915050565b60006020828403121561485857600080fd5b600061486684828501614736565b91505092915050565b60008060006060848603121561488457600080fd5b600061489286828701614721565b93505060206148a38682870161474b565b92505060406148b4868287016147f3565b9150509250925092565b600080600080608085870312156148d457600080fd5b60006148e287828801614721565b94505060206148f3878288016147b4565b93505060406149048782880161474b565b9250506060614915878288016147f3565b91505092959194509250565b6000806040838503121561493457600080fd5b600061494285828601614721565b9250506020614953858286016147f3565b9150509250929050565b60008060006060848603121561497257600080fd5b600061498086828701614721565b9350506020614991868287016147f3565b92505060406149a28682870161479f565b9150509250925092565b600080600080608085870312156149c257600080fd5b60006149d087828801614721565b94505060206149e1878288016147f3565b93505060406149f28782880161479f565b9250506060614a03878288016147f3565b91505092959194509250565b600060208284031215614a2157600080fd5b6000614a2f84828501614760565b91505092915050565b600060208284031215614a4a57600080fd5b6000614a5884828501614775565b91505092915050565b600060208284031215614a7357600080fd5b6000614a818482850161478a565b91505092915050565b600060208284031215614a9c57600080fd5b6000614aaa84828501614808565b91505092915050565b60008060408385031215614ac657600080fd5b6000614ad4858286016147f3565b9250506020614ae58582860161474b565b9150509250929050565b600080600080600060a08688031215614b0757600080fd5b6000614b15888289016147f3565b9550506020614b26888289016147f3565b9450506040614b3788828901614721565b9350506060614b488882890161479f565b925050608086013567ffffffffffffffff811115614b6557600080fd5b614b71888289016147c9565b9150509295509295909350565b614b878161576d565b82525050565b614b96816156c1565b82525050565b614ba5816156af565b82525050565b614bb4816156af565b82525050565b614bc3816156d3565b82525050565b614bd28161577f565b82525050565b614be181615791565b82525050565b614bf0816157a3565b82525050565b6000614c0182615654565b614c0b8185615670565b9350614c1b8185602086016157e8565b80840191505092915050565b6000614c3460118361565f565b9150614c3f826158ea565b602082019050919050565b6000614c5760208361565f565b9150614c6282615913565b602082019050919050565b6000614c7a60358361565f565b9150614c858261593c565b604082019050919050565b6000614c9d60288361565f565b9150614ca88261598b565b604082019050919050565b6000614cc0600d8361565f565b9150614ccb826159da565b602082019050919050565b6000614ce360268361565f565b9150614cee82615a03565b604082019050919050565b6000614d06602b8361565f565b9150614d1182615a52565b604082019050919050565b6000614d2960418361565f565b9150614d3482615aa1565b606082019050919050565b6000614d4c60208361565f565b9150614d5782615b16565b602082019050919050565b6000614d6f60288361565f565b9150614d7a82615b3f565b604082019050919050565b6000614d9260338361565f565b9150614d9d82615b8e565b604082019050919050565b6000614db5600c8361565f565b9150614dc082615bdd565b602082019050919050565b6000614dd8601c8361565f565b9150614de382615c06565b602082019050919050565b6000614dfb602c8361565f565b9150614e0682615c2f565b604082019050919050565b6000614e1e60128361565f565b9150614e2982615c7e565b602082019050919050565b6000614e4160208361565f565b9150614e4c82615ca7565b602082019050919050565b6000614e6460338361565f565b9150614e6f82615cd0565b604082019050919050565b6000614e8760148361565f565b9150614e9282615d1f565b602082019050919050565b6000614eaa600c8361565f565b9150614eb582615d48565b602082019050919050565b6000614ecd60158361565f565b9150614ed882615d71565b602082019050919050565b6000614ef060098361565f565b9150614efb82615d9a565b602082019050919050565b6000614f13600a8361565f565b9150614f1e82615dc3565b602082019050919050565b6000614f36600f8361565f565b9150614f4182615dec565b602082019050919050565b6000614f5960258361565f565b9150614f6482615e15565b604082019050919050565b6000614f7c60128361565f565b9150614f8782615e64565b602082019050919050565b6000614f9f601d8361565f565b9150614faa82615e8d565b602082019050919050565b606082016000820151614fcb6000850182614b9c565b506020820151614fde6020850182614ff7565b506040820151614ff16040850182614ff7565b50505050565b61500081615763565b82525050565b61500f81615763565b82525050565b61501e81615763565b82525050565b60006150308284614bf6565b915081905092915050565b60006020820190506150506000830184614bab565b92915050565b600060208201905061506b6000830184614b8d565b92915050565b60006040820190506150866000830185614b7e565b6150936020830184615006565b9392505050565b60006040820190506150af6000830185614bab565b6150bc6020830184614bab565b9392505050565b60006060820190506150d86000830186614bab565b6150e56020830185614bab565b6150f26040830184615006565b949350505050565b600060408201905061510f6000830185614bab565b61511c6020830184615006565b9392505050565b60006080820190506151386000830187614bab565b6151456020830186615006565b6151526040830185614bab565b61515f6060830184615006565b95945050505050565b600060208201905061517d6000830184614bba565b92915050565b60006020820190506151986000830184614bc9565b92915050565b60006080820190506151b36000830187614bd8565b6151c06020830186614bba565b6151cd6040830185614b8d565b6151da6060830184615006565b95945050505050565b600060208201905081810360008301526151fc81614c27565b9050919050565b6000602082019050818103600083015261521c81614c4a565b9050919050565b6000602082019050818103600083015261523c81614c6d565b9050919050565b6000602082019050818103600083015261525c81614c90565b9050919050565b6000602082019050818103600083015261527c81614cb3565b9050919050565b6000602082019050818103600083015261529c81614cd6565b9050919050565b600060208201905081810360008301526152bc81614cf9565b9050919050565b600060208201905081810360008301526152dc81614d1c565b9050919050565b600060208201905081810360008301526152fc81614d3f565b9050919050565b6000602082019050818103600083015261531c81614d62565b9050919050565b6000602082019050818103600083015261533c81614d85565b9050919050565b6000602082019050818103600083015261535c81614da8565b9050919050565b6000602082019050818103600083015261537c81614dcb565b9050919050565b6000602082019050818103600083015261539c81614dee565b9050919050565b600060208201905081810360008301526153bc81614e11565b9050919050565b600060208201905081810360008301526153dc81614e34565b9050919050565b600060208201905081810360008301526153fc81614e57565b9050919050565b6000602082019050818103600083015261541c81614e7a565b9050919050565b6000602082019050818103600083015261543c81614e9d565b9050919050565b6000602082019050818103600083015261545c81614ec0565b9050919050565b6000602082019050818103600083015261547c81614ee3565b9050919050565b6000602082019050818103600083015261549c81614f06565b9050919050565b600060208201905081810360008301526154bc81614f29565b9050919050565b600060208201905081810360008301526154dc81614f4c565b9050919050565b600060208201905081810360008301526154fc81614f6f565b9050919050565b6000602082019050818103600083015261551c81614f92565b9050919050565b60006060820190506155386000830184614fb5565b92915050565b60006020820190506155536000830184615006565b92915050565b600060408201905061556e6000830185615006565b61557b6020830184614bc9565b9392505050565b60006060820190506155976000830186615015565b6155a46020830185614be7565b6155b16040830184615015565b949350505050565b60006080820190506155ce6000830187615006565b6155db6020830186615006565b6155e86040830185615006565b6155f56060830184614b7e565b95945050505050565b6000615608615619565b9050615614828261581b565b919050565b6000604051905090565b600067ffffffffffffffff82111561563e5761563d6158aa565b5b615647826158d9565b9050602081019050919050565b600081519050919050565b600082825260208201905092915050565b600081905092915050565b600061568682615763565b915061569183615763565b9250828210156156a4576156a361584c565b5b828203905092915050565b60006156ba82615743565b9050919050565b60006156cc82615743565b9050919050565b60008115159050919050565b60007fffffffff0000000000000000000000000000000000000000000000000000000082169050919050565b6000615716826156af565b9050919050565b600081905061572b82615eb6565b919050565b600081905061573e82615eca565b919050565b600073ffffffffffffffffffffffffffffffffffffffff82169050919050565b6000819050919050565b6000615778826157b5565b9050919050565b600061578a8261571d565b9050919050565b600061579c82615730565b9050919050565b60006157ae82615763565b9050919050565b60006157c0826157c7565b9050919050565b60006157d282615743565b9050919050565b82818337600083830152505050565b60005b838110156158065780820151818401526020810190506157eb565b83811115615815576000848401525b50505050565b615824826158d9565b810181811067ffffffffffffffff82111715615843576158426158aa565b5b80604052505050565b7f4e487b7100000000000000000000000000000000000000000000000000000000600052601160045260246000fd5b7f4e487b7100000000000000000000000000000000000000000000000000000000600052602160045260246000fd5b7f4e487b7100000000000000000000000000000000000000000000000000000000600052604160045260246000fd5b6000601f19601f8301169050919050565b7f43616e27742073656e6420726566756e64000000000000000000000000000000600082015250565b7f4d61726b6574706c61636520697320616c726561647920736574746564207570600082015250565b7f7472616e7366657246726f6d20627579657220746f206d6574616d61726b657460008201527f706c61636520636f6e7472616374206661696c65640000000000000000000000602082015250565b7f53656c6c206f726465722061742074686973207072696365206f72206c6f776560008201527f7220657869737473000000000000000000000000000000000000000000000000602082015250565b7f4e6f2073616c65206f6666657200000000000000000000000000000000000000600082015250565b7f4f776e61626c653a206e6577206f776e657220697320746865207a65726f206160008201527f6464726573730000000000000000000000000000000000000000000000000000602082015250565b7f417070726f76656420616d6f756e74206973206c6573736572207468616e202860008201527f6269645f70726963655f29000000000000000000000000000000000000000000602082015250565b7f7472616e7366657246726f6d20627579657220746f206d61726b6574706c616360008201527f6520636f6e7472616374206661696c65642c20636865636b20617070726f766160208201527f6c00000000000000000000000000000000000000000000000000000000000000604082015250565b7f596f752063616e277420627579206e66742066726f6d20796f757273656c6621600082015250565b7f50726576696f757320627579206f6666657220686967686572206f72206e6f7460008201527f2065787069726564000000000000000000000000000000000000000000000000602082015250565b7f63616e27742070756c6c2066756e64732066726f6d20627579657220746f204d60008201527f61726b6574706c61636520636f6e747261637400000000000000000000000000602082015250565b7f4e6f7420617070726f7665640000000000000000000000000000000000000000600082015250565b7f4d61726b6574706c616365206973206e6f742065786973742079657400000000600082015250565b7f4d61726b6574706c61636520666f72207468697320746f6b656e206973206e6f60008201527f7420736574757020796574210000000000000000000000000000000000000000602082015250565b7f496e76616c69642073656c6c206f666665720000000000000000000000000000600082015250565b7f4f776e61626c653a2063616c6c6572206973206e6f7420746865206f776e6572600082015250565b7f4d61726b6574706c61636520666f722074686973206e66745f636f6e7472616360008201527f74206973206e6f74207365747570207965742100000000000000000000000000602082015250565b7f4e6f206163746976652073656c6c206f66666572000000000000000000000000600082015250565b7f4e6f20627579206f666665720000000000000000000000000000000000000000600082015250565b7f427579206f66666572206e6f7420657870697265640000000000000000000000600082015250565b7f4e6f742062757965720000000000000000000000000000000000000000000000600082015250565b7f4e6f742073656c6c657200000000000000000000000000000000000000000000600082015250565b7f4e6f7420746f6b656e206f776e65720000000000000000000000000000000000600082015250565b7f42696420616d6f756e74206c6573736572207468616e2064657369726564207060008201527f7269636521000000000000000000000000000000000000000000000000000000602082015250565b7f757365206d616b654275794f6666657228290000000000000000000000000000600082015250565b7f43616e277420666f72776172642066756e647320746f2073656c6c6572000000600082015250565b60068110615ec757615ec661587b565b5b50565b60058110615edb57615eda61587b565b5b50565b615ee7816156af565b8114615ef257600080fd5b50565b615efe816156c1565b8114615f0957600080fd5b50565b615f15816156d3565b8114615f2057600080fd5b50565b615f2c816156df565b8114615f3757600080fd5b50565b615f438161570b565b8114615f4e57600080fd5b50565b60068110615f5e57600080fd5b50565b60058110615f6e57600080fd5b50565b615f7a81615763565b8114615f8557600080fd5b5056fea264697066735822122022a83e0c77e0a0b66462e8f244a841bcc42b2229e042e4c23750c152003c620764736f6c63430008040033",
  "linkReferences": {
    "contracts/FeesCalculator.sol": {
      "FeesCalculator": [
        {
          "length": 20,
          "start": 17835
        },
        {
          "length": 20,
          "start": 19602
        },
        {
          "length": 20,
          "start": 20901
        },
        {
          "length": 20,
          "start": 21157
        }
      ]
    }
  },
  "deployedLinkReferences": {
    "contracts/FeesCalculator.sol": {
      "FeesCalculator": [
        {
          "length": 20,
          "start": 14615
        },
        {
          "length": 20,
          "start": 16382
        },
        {
          "length": 20,
          "start": 17681
        },
        {
          "length": 20,
          "start": 17937
        }
      ]
    }
  }
}