{
  "_format": "hh-sol-artifact-1",
  "contractName": "MetaMarketplace",
  "sourceName": "contracts/MetaMarketplace.sol",
  "abi": [
    {
      "inputs": [
        {
          "internalType": "address",
          "name": "currency_contract_",
          "type": "address"
        },
        {
          "internalType": "address",
          "name": "telegram_collection_",
          "type": "address"
        },
        {
          "internalType": "address payable",
          "name": "treasure_fund_",
          "type": "address"
        }
      ],
      "stateMutability": "nonpayable",
      "type": "constructor"
    },
    {
      "anonymous": false,
      "inputs": [
        {
          "indexed": true,
          "internalType": "address",
          "name": "nft_contract_",
          "type": "address"
        },
        {
          "indexed": true,
          "internalType": "uint256",
          "name": "tokenId",
          "type": "uint256"
        },
        {
          "indexed": false,
          "internalType": "address",
          "name": "buyer",
          "type": "address"
        }
      ],
      "name": "BuyOfferWithdrawn",
      "type": "event"
    },
    {
      "anonymous": false,
      "inputs": [
        {
          "indexed": false,
          "internalType": "uint256",
          "name": "initial_value",
          "type": "uint256"
        },
        {
          "indexed": false,
          "internalType": "uint256",
          "name": "fees",
          "type": "uint256"
        },
        {
          "indexed": false,
          "internalType": "uint256",
          "name": "transfered_amount",
          "type": "uint256"
        },
        {
          "indexed": false,
          "internalType": "address",
          "name": "feeAddress",
          "type": "address"
        }
      ],
      "name": "CalculatedFees",
      "type": "event"
    },
    {
      "anonymous": false,
      "inputs": [
        {
          "indexed": false,
          "internalType": "address",
          "name": "nft_contract_",
          "type": "address"
        },
        {
          "indexed": false,
          "internalType": "uint256",
          "name": "tokenId",
          "type": "uint256"
        },
        {
          "indexed": false,
          "internalType": "address",
          "name": "buyer",
          "type": "address"
        },
        {
          "indexed": false,
          "internalType": "uint256",
          "name": "value",
          "type": "uint256"
        }
      ],
      "name": "NewBuyOffer",
      "type": "event"
    },
    {
      "anonymous": false,
      "inputs": [
        {
          "indexed": false,
          "internalType": "address",
          "name": "nft_contract_",
          "type": "address"
        }
      ],
      "name": "NewMarketplace",
      "type": "event"
    },
    {
      "anonymous": false,
      "inputs": [
        {
          "indexed": true,
          "internalType": "string",
          "name": "category",
          "type": "string"
        },
        {
          "indexed": false,
          "internalType": "address",
          "name": "nft_contract_",
          "type": "address"
        },
        {
          "indexed": false,
          "internalType": "uint256",
          "name": "tokenId",
          "type": "uint256"
        }
      ],
      "name": "NewSellCategory",
      "type": "event"
    },
    {
      "anonymous": false,
      "inputs": [
        {
          "indexed": false,
          "internalType": "address",
          "name": "nft_contract_",
          "type": "address"
        },
        {
          "indexed": false,
          "internalType": "uint256",
          "name": "tokenId",
          "type": "uint256"
        },
        {
          "indexed": false,
          "internalType": "address",
          "name": "seller",
          "type": "address"
        },
        {
          "indexed": false,
          "internalType": "uint256",
          "name": "value",
          "type": "uint256"
        }
      ],
      "name": "NewSellOffer",
      "type": "event"
    },
    {
      "anonymous": false,
      "inputs": [
        {
          "indexed": true,
          "internalType": "address",
          "name": "previousOwner",
          "type": "address"
        },
        {
          "indexed": true,
          "internalType": "address",
          "name": "newOwner",
          "type": "address"
        }
      ],
      "name": "OwnershipTransferred",
      "type": "event"
    },
    {
      "anonymous": false,
      "inputs": [
        {
          "indexed": false,
          "internalType": "address",
          "name": "nft_contract_",
          "type": "address"
        },
        {
          "indexed": false,
          "internalType": "uint256",
          "name": "tokenId",
          "type": "uint256"
        },
        {
          "indexed": false,
          "internalType": "address",
          "name": "recepient",
          "type": "address"
        },
        {
          "indexed": false,
          "internalType": "uint256",
          "name": "value",
          "type": "uint256"
        }
      ],
      "name": "RoyaltiesPaid",
      "type": "event"
    },
    {
      "anonymous": false,
      "inputs": [
        {
          "indexed": true,
          "internalType": "address",
          "name": "nft_contract_",
          "type": "address"
        },
        {
          "indexed": true,
          "internalType": "uint256",
          "name": "tokenId",
          "type": "uint256"
        },
        {
          "indexed": false,
          "internalType": "address",
          "name": "seller",
          "type": "address"
        },
        {
          "indexed": false,
          "internalType": "address",
          "name": "buyer",
          "type": "address"
        },
        {
          "indexed": false,
          "internalType": "uint256",
          "name": "value",
          "type": "uint256"
        }
      ],
      "name": "Sale",
      "type": "event"
    },
    {
      "anonymous": false,
      "inputs": [
        {
          "indexed": true,
          "internalType": "address",
          "name": "nft_contract_",
          "type": "address"
        },
        {
          "indexed": true,
          "internalType": "uint256",
          "name": "tokenId",
          "type": "uint256"
        },
        {
          "indexed": false,
          "internalType": "address",
          "name": "seller",
          "type": "address"
        }
      ],
      "name": "SellOfferWithdrawn",
      "type": "event"
    },
    {
      "inputs": [
        {
          "internalType": "address",
          "name": "",
          "type": "address"
        }
      ],
      "name": "Marketplaces",
      "outputs": [
        {
          "internalType": "enum MetaMarketplace.NftType",
          "name": "nft_standard",
          "type": "uint8"
        },
        {
          "internalType": "bool",
          "name": "initialized",
          "type": "bool"
        },
        {
          "internalType": "address payable",
          "name": "collectionOwner",
          "type": "address"
        },
        {
          "internalType": "uint256",
          "name": "ownerFee",
          "type": "uint256"
        }
      ],
      "stateMutability": "view",
      "type": "function"
    },
    {
      "inputs": [
        {
          "internalType": "uint256",
          "name": "promille_fee_",
          "type": "uint256"
        },
        {
          "internalType": "address payable",
          "name": "treasure_fund_",
          "type": "address"
        }
      ],
      "name": "SetServiceFee",
      "outputs": [],
      "stateMutability": "nonpayable",
      "type": "function"
    },
    {
      "inputs": [
        {
          "internalType": "address",
          "name": "nft_contract_",
          "type": "address"
        },
        {
          "internalType": "enum MetaMarketplace.NftType",
          "name": "standard_",
          "type": "uint8"
        },
        {
          "internalType": "address payable",
          "name": "collection_owner_",
          "type": "address"
        },
        {
          "internalType": "uint256",
          "name": "collection_fee_",
          "type": "uint256"
        }
      ],
      "name": "SetUpMarketplace",
      "outputs": [],
      "stateMutability": "nonpayable",
      "type": "function"
    },
    {
      "inputs": [],
      "name": "_treasure_fund",
      "outputs": [
        {
          "internalType": "address payable",
          "name": "",
          "type": "address"
        }
      ],
      "stateMutability": "view",
      "type": "function"
    },
    {
      "inputs": [
        {
          "internalType": "address",
          "name": "token_contract_",
          "type": "address"
        },
        {
          "internalType": "uint256",
          "name": "tokenId",
          "type": "uint256"
        },
        {
          "internalType": "enum CurrenciesERC20.CurrencyERC20",
          "name": "currency_",
          "type": "uint8"
        }
      ],
      "name": "acceptBuyOffer",
      "outputs": [],
      "stateMutability": "nonpayable",
      "type": "function"
    },
    {
      "inputs": [
        {
          "internalType": "uint256",
          "name": "amount",
          "type": "uint256"
        },
        {
          "internalType": "uint256",
          "name": "scale",
          "type": "uint256"
        },
        {
          "internalType": "uint256",
          "name": "promille_fee_",
          "type": "uint256"
        }
      ],
      "name": "calculateAbstractFee",
      "outputs": [
        {
          "internalType": "uint256",
          "name": "",
          "type": "uint256"
        }
      ],
      "stateMutability": "pure",
      "type": "function"
    },
    {
      "inputs": [
        {
          "internalType": "address",
          "name": "nft_contract_",
          "type": "address"
        },
        {
          "internalType": "address payable",
          "name": "collection_owner_",
          "type": "address"
        },
        {
          "internalType": "uint256",
          "name": "collection_fee_",
          "type": "uint256"
        }
      ],
      "name": "editMarketplace",
      "outputs": [],
      "stateMutability": "nonpayable",
      "type": "function"
    },
    {
      "inputs": [
        {
          "internalType": "address",
          "name": "nft_contract",
          "type": "address"
        },
        {
          "internalType": "uint256",
          "name": "token_id",
          "type": "uint256"
        },
        {
          "internalType": "enum CurrenciesERC20.CurrencyERC20",
          "name": "currency",
          "type": "uint8"
        }
      ],
      "name": "getBuyOffer",
      "outputs": [
        {
          "components": [
            {
              "internalType": "address",
              "name": "buyer",
              "type": "address"
            },
            {
              "internalType": "uint256",
              "name": "price",
              "type": "uint256"
            },
            {
              "internalType": "uint256",
              "name": "createTime",
              "type": "uint256"
            }
          ],
          "internalType": "struct MetaMarketplace.BuyOffer",
          "name": "b_offer",
          "type": "tuple"
        }
      ],
      "stateMutability": "view",
      "type": "function"
    },
    {
      "inputs": [
        {
          "internalType": "address",
          "name": "nft_contract",
          "type": "address"
        },
        {
          "internalType": "uint256",
          "name": "token_id",
          "type": "uint256"
        },
        {
          "internalType": "enum CurrenciesERC20.CurrencyERC20",
          "name": "currency",
          "type": "uint8"
        }
      ],
      "name": "getFloorPriceByCurrency",
      "outputs": [
        {
          "internalType": "uint256",
          "name": "floor_price",
          "type": "uint256"
        }
      ],
      "stateMutability": "view",
      "type": "function"
    },
    {
      "inputs": [
        {
          "internalType": "address",
          "name": "token_contract_",
          "type": "address"
        },
        {
          "internalType": "uint256",
          "name": "_tokenId",
          "type": "uint256"
        }
      ],
      "name": "getLastPrice",
      "outputs": [
        {
          "internalType": "uint256",
          "name": "_lastPrice",
          "type": "uint256"
        },
        {
          "internalType": "enum CurrenciesERC20.CurrencyERC20",
          "name": "currency_",
          "type": "uint8"
        }
      ],
      "stateMutability": "view",
      "type": "function"
    },
    {
      "inputs": [
        {
          "internalType": "address",
          "name": "nft_contract",
          "type": "address"
        },
        {
          "internalType": "uint256",
          "name": "token_id",
          "type": "uint256"
        }
      ],
      "name": "getSeller",
      "outputs": [
        {
          "internalType": "address",
          "name": "seller",
          "type": "address"
        }
      ],
      "stateMutability": "view",
      "type": "function"
    },
    {
      "inputs": [
        {
          "internalType": "address",
          "name": "token_contract_",
          "type": "address"
        },
        {
          "internalType": "uint256",
          "name": "tokenId",
          "type": "uint256"
        },
        {
          "internalType": "enum CurrenciesERC20.CurrencyERC20",
          "name": "currency_",
          "type": "uint8"
        },
        {
          "internalType": "uint256",
          "name": "bid_price_",
          "type": "uint256"
        }
      ],
      "name": "makeBuyOffer",
      "outputs": [],
      "stateMutability": "nonpayable",
      "type": "function"
    },
    {
      "inputs": [
        {
          "internalType": "uint256",
          "name": "tokenId",
          "type": "uint256"
        },
        {
          "internalType": "uint256",
          "name": "minPrice",
          "type": "uint256"
        },
        {
          "internalType": "address",
          "name": "nft_contract_",
          "type": "address"
        },
        {
          "internalType": "enum CurrenciesERC20.CurrencyERC20",
          "name": "currency_",
          "type": "uint8"
        },
        {
          "internalType": "string",
          "name": "category_",
          "type": "string"
        }
      ],
      "name": "makeSellOffer",
      "outputs": [],
      "stateMutability": "nonpayable",
      "type": "function"
    },
    {
      "inputs": [],
      "name": "owner",
      "outputs": [
        {
          "internalType": "address",
          "name": "",
          "type": "address"
        }
      ],
      "stateMutability": "view",
      "type": "function"
    },
    {
      "inputs": [],
      "name": "promille_fee",
      "outputs": [
        {
          "internalType": "uint256",
          "name": "",
          "type": "uint256"
        }
      ],
      "stateMutability": "view",
      "type": "function"
    },
    {
      "inputs": [
        {
          "internalType": "address",
          "name": "token_contract_",
          "type": "address"
        },
        {
          "internalType": "uint256",
          "name": "tokenId",
          "type": "uint256"
        },
        {
          "internalType": "enum CurrenciesERC20.CurrencyERC20",
          "name": "currency_",
          "type": "uint8"
        },
        {
          "internalType": "uint256",
          "name": "bid_price_",
          "type": "uint256"
        }
      ],
      "name": "purchase",
      "outputs": [],
      "stateMutability": "nonpayable",
      "type": "function"
    },
    {
      "inputs": [],
      "name": "renounceOwnership",
      "outputs": [],
      "stateMutability": "nonpayable",
      "type": "function"
    },
    {
      "inputs": [
        {
          "internalType": "bytes4",
          "name": "interfaceId",
          "type": "bytes4"
        }
      ],
      "name": "supportsInterface",
      "outputs": [
        {
          "internalType": "bool",
          "name": "",
          "type": "bool"
        }
      ],
      "stateMutability": "view",
      "type": "function"
    },
    {
      "inputs": [
        {
          "internalType": "address",
          "name": "newOwner",
          "type": "address"
        }
      ],
      "name": "transferOwnership",
      "outputs": [],
      "stateMutability": "nonpayable",
      "type": "function"
    },
    {
      "inputs": [
        {
          "internalType": "address",
          "name": "token_contract_",
          "type": "address"
        },
        {
          "internalType": "uint256",
          "name": "tokenId",
          "type": "uint256"
        },
        {
          "internalType": "enum CurrenciesERC20.CurrencyERC20",
          "name": "currency_",
          "type": "uint8"
        }
      ],
      "name": "withdrawBuyOffer",
      "outputs": [],
      "stateMutability": "nonpayable",
      "type": "function"
    },
    {
      "inputs": [
        {
          "internalType": "address",
          "name": "nft_contract_",
          "type": "address"
        },
        {
          "internalType": "uint256",
          "name": "tokenId",
          "type": "uint256"
        }
      ],
      "name": "withdrawSellOffer",
      "outputs": [],
      "stateMutability": "nonpayable",
      "type": "function"
    }
  ],
  "bytecode": "0x6080604052600f6003553480156200001657600080fd5b5060405162006ccb38038062006ccb83398181016040528101906200003c9190620009e3565b6200005c620000506200015260201b60201c565b6200015a60201b60201c565b82600260006101000a81548173ffffffffffffffffffffffffffffffffffffffff021916908373ffffffffffffffffffffffffffffffffffffffff160217905550620000b08260006200021e60201b60201c565b620000f2576040517f08c379a0000000000000000000000000000000000000000000000000000000008152600401620000e99062000b31565b60405180910390fd5b6200010882600083601e620007c660201b60201c565b80600460006101000a81548173ffffffffffffffffffffffffffffffffffffffff021916908373ffffffffffffffffffffffffffffffffffffffff16021790555050505062000c84565b600033905090565b60008060009054906101000a900473ffffffffffffffffffffffffffffffffffffffff169050816000806101000a81548173ffffffffffffffffffffffffffffffffffffffff021916908373ffffffffffffffffffffffffffffffffffffffff1602179055508173ffffffffffffffffffffffffffffffffffffffff168173ffffffffffffffffffffffffffffffffffffffff167f8be0079c531659141344cd1fd0a4f28419497f9722a3daafe3b4186f6b6457e060405160405180910390a35050565b6000600160048111156200025b577f4e487b7100000000000000000000000000000000000000000000000000000000600052602160045260246000fd5b82600481111562000295577f4e487b7100000000000000000000000000000000000000000000000000000000600052602160045260246000fd5b1415620003405760008373ffffffffffffffffffffffffffffffffffffffff166301ffc9a763780e9d6360e01b6040518263ffffffff1660e01b8152600401620002e0919062000af2565b60206040518083038186803b158015620002f957600080fd5b505afa1580156200030e573d6000803e3d6000fd5b505050506040513d601f19601f8201168201806040525081019062000334919062000a39565b905080915050620007c0565b600260048111156200037b577f4e487b7100000000000000000000000000000000000000000000000000000000600052602160045260246000fd5b826004811115620003b5577f4e487b7100000000000000000000000000000000000000000000000000000000600052602160045260246000fd5b1415620004605760008373ffffffffffffffffffffffffffffffffffffffff166301ffc9a7635b5e139f60e01b6040518263ffffffff1660e01b815260040162000400919062000af2565b60206040518083038186803b1580156200041957600080fd5b505afa1580156200042e573d6000803e3d6000fd5b505050506040513d601f19601f8201168201806040525081019062000454919062000a39565b905080915050620007c0565b600360048111156200049b577f4e487b7100000000000000000000000000000000000000000000000000000000600052602160045260246000fd5b826004811115620004d5577f4e487b7100000000000000000000000000000000000000000000000000000000600052602160045260246000fd5b1415620005805760008373ffffffffffffffffffffffffffffffffffffffff166301ffc9a76380ac58cd60e01b6040518263ffffffff1660e01b815260040162000520919062000af2565b60206040518083038186803b1580156200053957600080fd5b505afa1580156200054e573d6000803e3d6000fd5b505050506040513d601f19601f8201168201806040525081019062000574919062000a39565b905080915050620007c0565b60006004811115620005bb577f4e487b7100000000000000000000000000000000000000000000000000000000600052602160045260246000fd5b826004811115620005f5577f4e487b7100000000000000000000000000000000000000000000000000000000600052602160045260246000fd5b1415620006a05760008373ffffffffffffffffffffffffffffffffffffffff166301ffc9a7635b5e139f60e01b6040518263ffffffff1660e01b815260040162000640919062000af2565b60206040518083038186803b1580156200065957600080fd5b505afa1580156200066e573d6000803e3d6000fd5b505050506040513d601f19601f8201168201806040525081019062000694919062000a39565b905080915050620007c0565b600480811115620006da577f4e487b7100000000000000000000000000000000000000000000000000000000600052602160045260246000fd5b82600481111562000714577f4e487b7100000000000000000000000000000000000000000000000000000000600052602160045260246000fd5b1415620007bf5760008373ffffffffffffffffffffffffffffffffffffffff166301ffc9a7635b5e139f60e01b6040518263ffffffff1660e01b81526004016200075f919062000af2565b60206040518083038186803b1580156200077857600080fd5b505afa1580156200078d573d6000803e3d6000fd5b505050506040513d601f19601f82011682018060405250810190620007b3919062000a39565b905080915050620007c0565b5b92915050565b60001515600160008673ffffffffffffffffffffffffffffffffffffffff1673ffffffffffffffffffffffffffffffffffffffff16815260200190815260200160002060040160019054906101000a900460ff161515146200085f576040517f08c379a0000000000000000000000000000000000000000000000000000000008152600401620008569062000b0f565b60405180910390fd5b6000600160008673ffffffffffffffffffffffffffffffffffffffff1673ffffffffffffffffffffffffffffffffffffffff1681526020019081526020016000209050838160040160006101000a81548160ff02191690836004811115620008f0577f4e487b7100000000000000000000000000000000000000000000000000000000600052602160045260246000fd5b021790555060018160040160016101000a81548160ff021916908315150217905550828160040160026101000a81548173ffffffffffffffffffffffffffffffffffffffff021916908373ffffffffffffffffffffffffffffffffffffffff1602179055508181600501819055507f11f8cd014e58379583c686140218c2c5d4a9cf8f7c57e152fdfaed66d627c6ed856040516200098f919062000ad5565b60405180910390a15050505050565b600081519050620009af8162000c36565b92915050565b600081519050620009c68162000c50565b92915050565b600081519050620009dd8162000c6a565b92915050565b600080600060608486031215620009f957600080fd5b600062000a09868287016200099e565b935050602062000a1c868287016200099e565b925050604062000a2f86828701620009b5565b9150509250925092565b60006020828403121562000a4c57600080fd5b600062000a5c84828501620009cc565b91505092915050565b62000a708162000b64565b82525050565b62000a818162000b98565b82525050565b600062000a9660208362000b53565b915062000aa38262000be4565b602082019050919050565b600062000abd60168362000b53565b915062000aca8262000c0d565b602082019050919050565b600060208201905062000aec600083018462000a65565b92915050565b600060208201905062000b09600083018462000a76565b92915050565b6000602082019050818103600083015262000b2a8162000a87565b9050919050565b6000602082019050818103600083015262000b4c8162000aae565b9050919050565b600082825260208201905092915050565b600062000b718262000bc4565b9050919050565b600062000b858262000bc4565b9050919050565b60008115159050919050565b60007fffffffff0000000000000000000000000000000000000000000000000000000082169050919050565b600073ffffffffffffffffffffffffffffffffffffffff82169050919050565b7f4d61726b6574706c61636520697320616c726561647920736574746564207570600082015250565b7f5374616e64617264206e6f7420737570706f7274656400000000000000000000600082015250565b62000c418162000b64565b811462000c4d57600080fd5b50565b62000c5b8162000b78565b811462000c6757600080fd5b50565b62000c758162000b8c565b811462000c8157600080fd5b50565b6160378062000c946000396000f3fe608060405234801561001057600080fd5b50600436106101375760003560e01c80634ee298dd116100b85780638813a44b1161007c5780638813a44b1461034b5780638da5cb5b14610367578063f2fde38b14610385578063f82ffff2146103a1578063fa75c8c5146103bd578063fa7a5405146103f057610137565b80634ee298dd146102cf578063505adff4146102eb57806357194e1214610307578063586e557614610323578063715018a61461034157610137565b80631922cb8d116100ff5780631922cb8d1461021857806322bb5fca1461024957806336ea6178146102655780633d56bb9f14610295578063433231f3146102b357610137565b806301ffc9a71461013c5780630a3621ca1461016c5780630e079c4d1461019c57806316af5a65146101b8578063189ecff1146101e8575b600080fd5b6101566004803603810190610151919061493c565b61040c565b604051610163919061509d565b60405180910390f35b61018660048036038101906101819190614861565b610476565b6040516101939190615458565b60405180910390f35b6101b660048036038101906101b19190614825565b6105d0565b005b6101d260048036038101906101cd9190614861565b610a22565b6040516101df9190615473565b60405180910390f35b61020260048036038101906101fd9190614825565b610b05565b60405161020f9190614f70565b60405180910390f35b610232600480360381019061022d9190614825565b610b86565b60405161024092919061548e565b60405180910390f35b610263600480360381019061025e9190614773565b610c17565b005b61027f600480360381019061027a9190614a82565b610d4a565b60405161028c9190615473565b60405180910390f35b61029d610e13565b6040516102aa9190615473565b60405180910390f35b6102cd60048036038101906102c89190614861565b610e19565b005b6102e960048036038101906102e491906149f3565b61143a565b005b610305600480360381019061030091906149b7565b611934565b005b610321600480360381019061031c9190614861565b611988565b005b61032b6121b4565b6040516103389190614f8b565b60405180910390f35b6103496121da565b005b610365600480360381019061036091906148b0565b6121ee565b005b61036f612cd3565b60405161037c9190614f70565b60405180910390f35b61039f600480360381019061039a9190614721565b612cfc565b005b6103bb60048036038101906103b691906147c2565b612d80565b005b6103d760048036038101906103d29190614721565b612f52565b6040516103e794939291906150d3565b60405180910390f35b61040a600480360381019061040591906148b0565b612fbc565b005b60007f01ffc9a7000000000000000000000000000000000000000000000000000000007bffffffffffffffffffffffffffffffffffffffffffffffffffffffff1916827bffffffffffffffffffffffffffffffffffffffffffffffffffffffff1916149050919050565b61047e6145b0565b600160008573ffffffffffffffffffffffffffffffffffffffff1673ffffffffffffffffffffffffffffffffffffffff1681526020019081526020016000206001016000848152602001908152602001600020600083600581111561050c577f4e487b7100000000000000000000000000000000000000000000000000000000600052602160045260246000fd5b6005811115610544577f4e487b7100000000000000000000000000000000000000000000000000000000600052602160045260246000fd5b81526020019081526020016000206040518060600160405290816000820160009054906101000a900473ffffffffffffffffffffffffffffffffffffffff1673ffffffffffffffffffffffffffffffffffffffff1673ffffffffffffffffffffffffffffffffffffffff1681526020016001820154815260200160028201548152505090509392505050565b8160011515600160008373ffffffffffffffffffffffffffffffffffffffff1673ffffffffffffffffffffffffffffffffffffffff16815260200190815260200160002060040160019054906101000a900460ff16151514610667576040517f08c379a000000000000000000000000000000000000000000000000000000000815260040161065e90615278565b60405180910390fd5b818360011515600160008373ffffffffffffffffffffffffffffffffffffffff1673ffffffffffffffffffffffffffffffffffffffff16815260200190815260200160002060040160019054906101000a900460ff161515146106ff576040517f08c379a00000000000000000000000000000000000000000000000000000000081526004016106f6906152d8565b60405180910390fd5b60008190503073ffffffffffffffffffffffffffffffffffffffff168173ffffffffffffffffffffffffffffffffffffffff1663081812fc856040518263ffffffff1660e01b81526004016107549190615473565b60206040518083038186803b15801561076c57600080fd5b505afa158015610780573d6000803e3d6000fd5b505050506040513d601f19601f820116820180604052508101906107a4919061474a565b73ffffffffffffffffffffffffffffffffffffffff16146107fa576040517f08c379a00000000000000000000000000000000000000000000000000000000081526004016107f190615238565b60405180910390fd5b6000600160008873ffffffffffffffffffffffffffffffffffffffff1673ffffffffffffffffffffffffffffffffffffffff1681526020019081526020016000209050600073ffffffffffffffffffffffffffffffffffffffff1681600001600088815260200190815260200160002060000160009054906101000a900473ffffffffffffffffffffffffffffffffffffffff1673ffffffffffffffffffffffffffffffffffffffff1614156108e5576040517f08c379a00000000000000000000000000000000000000000000000000000000081526004016108dc90615198565b60405180910390fd5b3373ffffffffffffffffffffffffffffffffffffffff1681600001600088815260200190815260200160002060000160009054906101000a900473ffffffffffffffffffffffffffffffffffffffff1673ffffffffffffffffffffffffffffffffffffffff161461098b576040517f08c379a0000000000000000000000000000000000000000000000000000000008152600401610982906153d8565b60405180910390fd5b806000016000878152602001908152602001600020600080820160006101000a81549073ffffffffffffffffffffffffffffffffffffffff02191690555050858773ffffffffffffffffffffffffffffffffffffffff167fce00375f5a3b9c4a857fc9fa1b243f1af9b10a7db9d2d47227fe8217003c9ad433604051610a119190614f70565b60405180910390a350505050505050565b6000600160008573ffffffffffffffffffffffffffffffffffffffff1673ffffffffffffffffffffffffffffffffffffffff16815260200190815260200160002060000160008481526020019081526020016000206001016000836005811115610ab5577f4e487b7100000000000000000000000000000000000000000000000000000000600052602160045260246000fd5b6005811115610aed577f4e487b7100000000000000000000000000000000000000000000000000000000600052602160045260246000fd5b81526020019081526020016000205490509392505050565b6000600160008473ffffffffffffffffffffffffffffffffffffffff1673ffffffffffffffffffffffffffffffffffffffff168152602001908152602001600020600001600083815260200190815260200160002060000160009054906101000a900473ffffffffffffffffffffffffffffffffffffffff16905092915050565b6000806000600160008673ffffffffffffffffffffffffffffffffffffffff1673ffffffffffffffffffffffffffffffffffffffff168152602001908152602001600020905080600201600085815260200190815260200160002060000154925080600201600085815260200190815260200160002060010160009054906101000a900460ff169150509250929050565b610c1f613768565b60011515600160008573ffffffffffffffffffffffffffffffffffffffff1673ffffffffffffffffffffffffffffffffffffffff16815260200190815260200160002060040160019054906101000a900460ff16151514610cb5576040517f08c379a0000000000000000000000000000000000000000000000000000000008152600401610cac90615258565b60405180910390fd5b6000600160008573ffffffffffffffffffffffffffffffffffffffff1673ffffffffffffffffffffffffffffffffffffffff1681526020019081526020016000209050828160040160026101000a81548173ffffffffffffffffffffffffffffffffffffffff021916908373ffffffffffffffffffffffffffffffffffffffff16021790555081816005018190555050505050565b6000808385610d5991906155cf565b905060008486610d699190615819565b905060008585610d7991906155cf565b905060008686610d899190615819565b9050866001888386610d9b9190615600565b610da59190615579565b610daf919061565a565b610db991906155cf565b8284610dc59190615600565b8286610dd19190615600565b898588610dde9190615600565b610de89190615600565b610df29190615579565b610dfc9190615579565b610e069190615579565b9450505050509392505050565b60035481565b8260011515600160008373ffffffffffffffffffffffffffffffffffffffff1673ffffffffffffffffffffffffffffffffffffffff16815260200190815260200160002060040160019054906101000a900460ff16151514610eb0576040517f08c379a0000000000000000000000000000000000000000000000000000000008152600401610ea790615278565b60405180910390fd5b8284836000600160008473ffffffffffffffffffffffffffffffffffffffff1673ffffffffffffffffffffffffffffffffffffffff16815260200190815260200160002090506201518042610f05919061565a565b8160010160008681526020019081526020016000206000846005811115610f55577f4e487b7100000000000000000000000000000000000000000000000000000000600052602160045260246000fd5b6005811115610f8d577f4e487b7100000000000000000000000000000000000000000000000000000000600052602160045260246000fd5b81526020019081526020016000206002015410610fdf576040517f08c379a0000000000000000000000000000000000000000000000000000000008152600401610fd690615338565b60405180910390fd5b6000600160008a73ffffffffffffffffffffffffffffffffffffffff1673ffffffffffffffffffffffffffffffffffffffff16815260200190815260200160002090503373ffffffffffffffffffffffffffffffffffffffff168160010160008a81526020019081526020016000206000896005811115611089577f4e487b7100000000000000000000000000000000000000000000000000000000600052602160045260246000fd5b60058111156110c1577f4e487b7100000000000000000000000000000000000000000000000000000000600052602160045260246000fd5b815260200190815260200160002060000160009054906101000a900473ffffffffffffffffffffffffffffffffffffffff1673ffffffffffffffffffffffffffffffffffffffff1614611149576040517f08c379a0000000000000000000000000000000000000000000000000000000008152600401611140906153b8565b60405180910390fd5b60008160030160003373ffffffffffffffffffffffffffffffffffffffff1673ffffffffffffffffffffffffffffffffffffffff16815260200190815260200160002060008a815260200190815260200160002060008960058111156111d8577f4e487b7100000000000000000000000000000000000000000000000000000000600052602160045260246000fd5b6005811115611210577f4e487b7100000000000000000000000000000000000000000000000000000000600052602160045260246000fd5b81526020019081526020016000205490506000811115611236576112358833836137e6565b5b60008260030160003373ffffffffffffffffffffffffffffffffffffffff1673ffffffffffffffffffffffffffffffffffffffff16815260200190815260200160002060008b815260200190815260200160002060008a60058111156112c5577f4e487b7100000000000000000000000000000000000000000000000000000000600052602160045260246000fd5b60058111156112fd577f4e487b7100000000000000000000000000000000000000000000000000000000600052602160045260246000fd5b8152602001908152602001600020819055508160010160008a8152602001908152602001600020600089600581111561135f577f4e487b7100000000000000000000000000000000000000000000000000000000600052602160045260246000fd5b6005811115611397577f4e487b7100000000000000000000000000000000000000000000000000000000600052602160045260246000fd5b8152602001908152602001600020600080820160006101000a81549073ffffffffffffffffffffffffffffffffffffffff0219169055600182016000905560028201600090555050888a73ffffffffffffffffffffffffffffffffffffffff167fe3805436fa14d9349d05b8c9a073e53c4502637d37ec34b3f050d3946faea1da336040516114269190614f70565b60405180910390a350505050505050505050565b8260011515600160008373ffffffffffffffffffffffffffffffffffffffff1673ffffffffffffffffffffffffffffffffffffffff16815260200190815260200160002060040160019054906101000a900460ff161515146114d1576040517f08c379a00000000000000000000000000000000000000000000000000000000081526004016114c890615278565b60405180910390fd5b858460011515600160008373ffffffffffffffffffffffffffffffffffffffff1673ffffffffffffffffffffffffffffffffffffffff16815260200190815260200160002060040160019054906101000a900460ff16151514611569576040517f08c379a0000000000000000000000000000000000000000000000000000000008152600401611560906152d8565b60405180910390fd5b60008190503073ffffffffffffffffffffffffffffffffffffffff168173ffffffffffffffffffffffffffffffffffffffff1663081812fc856040518263ffffffff1660e01b81526004016115be9190615473565b60206040518083038186803b1580156115d657600080fd5b505afa1580156115ea573d6000803e3d6000fd5b505050506040513d601f19601f8201168201806040525081019061160e919061474a565b73ffffffffffffffffffffffffffffffffffffffff1614611664576040517f08c379a000000000000000000000000000000000000000000000000000000000815260040161165b90615238565b60405180910390fd5b888760008190503373ffffffffffffffffffffffffffffffffffffffff168173ffffffffffffffffffffffffffffffffffffffff16636352211e856040518263ffffffff1660e01b81526004016116bb9190615473565b60206040518083038186803b1580156116d357600080fd5b505afa1580156116e7573d6000803e3d6000fd5b505050506040513d601f19601f8201168201806040525081019061170b919061474a565b73ffffffffffffffffffffffffffffffffffffffff1614611761576040517f08c379a0000000000000000000000000000000000000000000000000000000008152600401611758906153f8565b60405180910390fd5b6000600160008c73ffffffffffffffffffffffffffffffffffffffff1673ffffffffffffffffffffffffffffffffffffffff16815260200190815260200160002090508b8160000160008f815260200190815260200160002060010160008c60058111156117f8577f4e487b7100000000000000000000000000000000000000000000000000000000600052602160045260246000fd5b6005811115611830577f4e487b7100000000000000000000000000000000000000000000000000000000600052602160045260246000fd5b815260200190815260200160002081905550338160000160008f815260200190815260200160002060000160006101000a81548173ffffffffffffffffffffffffffffffffffffffff021916908373ffffffffffffffffffffffffffffffffffffffff1602179055507fff04060fdb1ade3f35e2fbbdae70256ab6294fe60ce3e63dfcd01d39a73e462f8b8e338f6040516118ce9493929190615058565b60405180910390a1886040516118e49190614f59565b60405180910390207fa7fa1aea4d0dfc215e51c776b14941c757ea04d91fcbf8a96f84ef37ccd6085a8c8f60405161191d92919061502f565b60405180910390a250505050505050505050505050565b61193c613768565b8160038190555080600460006101000a81548173ffffffffffffffffffffffffffffffffffffffff021916908373ffffffffffffffffffffffffffffffffffffffff1602179055505050565b818360011515600160008373ffffffffffffffffffffffffffffffffffffffff1673ffffffffffffffffffffffffffffffffffffffff16815260200190815260200160002060040160019054906101000a900460ff16151514611a20576040517f08c379a0000000000000000000000000000000000000000000000000000000008152600401611a17906152d8565b60405180910390fd5b60008190503073ffffffffffffffffffffffffffffffffffffffff168173ffffffffffffffffffffffffffffffffffffffff1663081812fc856040518263ffffffff1660e01b8152600401611a759190615473565b60206040518083038186803b158015611a8d57600080fd5b505afa158015611aa1573d6000803e3d6000fd5b505050506040513d601f19601f82011682018060405250810190611ac5919061474a565b73ffffffffffffffffffffffffffffffffffffffff1614611b1b576040517f08c379a0000000000000000000000000000000000000000000000000000000008152600401611b1290615238565b60405180910390fd5b848660008190503373ffffffffffffffffffffffffffffffffffffffff168173ffffffffffffffffffffffffffffffffffffffff16636352211e856040518263ffffffff1660e01b8152600401611b729190615473565b60206040518083038186803b158015611b8a57600080fd5b505afa158015611b9e573d6000803e3d6000fd5b505050506040513d601f19601f82011682018060405250810190611bc2919061474a565b73ffffffffffffffffffffffffffffffffffffffff1614611c18576040517f08c379a0000000000000000000000000000000000000000000000000000000008152600401611c0f906153f8565b60405180910390fd5b6000600160008b73ffffffffffffffffffffffffffffffffffffffff1673ffffffffffffffffffffffffffffffffffffffff168152602001908152602001600020905060008160010160008b815260200190815260200160002060008a6005811115611cad577f4e487b7100000000000000000000000000000000000000000000000000000000600052602160045260246000fd5b6005811115611ce5577f4e487b7100000000000000000000000000000000000000000000000000000000600052602160045260246000fd5b815260200190815260200160002060000160009054906101000a900473ffffffffffffffffffffffffffffffffffffffff169050600073ffffffffffffffffffffffffffffffffffffffff168173ffffffffffffffffffffffffffffffffffffffff161415611d89576040517f08c379a0000000000000000000000000000000000000000000000000000000008152600401611d8090615318565b60405180910390fd5b60008260010160008c815260200190815260200160002060008b6005811115611ddb577f4e487b7100000000000000000000000000000000000000000000000000000000600052602160045260246000fd5b6005811115611e13577f4e487b7100000000000000000000000000000000000000000000000000000000600052602160045260246000fd5b81526020019081526020016000206001015490508260000160008c8152602001908152602001600020600080820160006101000a81549073ffffffffffffffffffffffffffffffffffffffff021916905550508260010160008c815260200190815260200160002060008b6005811115611eb6577f4e487b7100000000000000000000000000000000000000000000000000000000600052602160045260246000fd5b6005811115611eee577f4e487b7100000000000000000000000000000000000000000000000000000000600052602160045260246000fd5b8152602001908152602001600020600080820160006101000a81549073ffffffffffffffffffffffffffffffffffffffff021916905560018201600090556002820160009055505060008360030160008473ffffffffffffffffffffffffffffffffffffffff1673ffffffffffffffffffffffffffffffffffffffff16815260200190815260200160002060008d815260200190815260200160002060008c6005811115611fc5577f4e487b7100000000000000000000000000000000000000000000000000000000600052602160045260246000fd5b6005811115611ffd577f4e487b7100000000000000000000000000000000000000000000000000000000600052602160045260246000fd5b81526020019081526020016000208190555061201c8c8c8c3385613967565b61205b576040517f08c379a000000000000000000000000000000000000000000000000000000000815260040161205290615438565b60405180910390fd5b808360020160008d815260200190815260200160002060000181905550898360020160008d815260200190815260200160002060010160006101000a81548160ff021916908360058111156120d9577f4e487b7100000000000000000000000000000000000000000000000000000000600052602160045260246000fd5b021790555060008c90508073ffffffffffffffffffffffffffffffffffffffff166342842e0e33858f6040518463ffffffff1660e01b815260040161212093929190614ff8565b600060405180830381600087803b15801561213a57600080fd5b505af115801561214e573d6000803e3d6000fd5b505050508b8d73ffffffffffffffffffffffffffffffffffffffff167f3644379fe03acf3b2db463b2b1fb79bfa0a162795d0e7bb0c8a999bd98db813533868660405161219d93929190614ff8565b60405180910390a350505050505050505050505050565b600460009054906101000a900473ffffffffffffffffffffffffffffffffffffffff1681565b6121e2613768565b6121ec6000613cde565b565b8360011515600160008373ffffffffffffffffffffffffffffffffffffffff1673ffffffffffffffffffffffffffffffffffffffff16815260200190815260200160002060040160019054906101000a900460ff16151514612285576040517f08c379a000000000000000000000000000000000000000000000000000000000815260040161227c90615278565b60405180910390fd5b838560008190503373ffffffffffffffffffffffffffffffffffffffff168173ffffffffffffffffffffffffffffffffffffffff16636352211e856040518263ffffffff1660e01b81526004016122dc9190615473565b60206040518083038186803b1580156122f457600080fd5b505afa158015612308573d6000803e3d6000fd5b505050506040513d601f19601f8201168201806040525081019061232c919061474a565b73ffffffffffffffffffffffffffffffffffffffff161415612383576040517f08c379a000000000000000000000000000000000000000000000000000000000815260040161237a906151d8565b60405180910390fd5b6000600160008a73ffffffffffffffffffffffffffffffffffffffff1673ffffffffffffffffffffffffffffffffffffffff168152602001908152602001600020905060008160000160008a8152602001908152602001600020600101600089600581111561241b577f4e487b7100000000000000000000000000000000000000000000000000000000600052602160045260246000fd5b6005811115612453577f4e487b7100000000000000000000000000000000000000000000000000000000600052602160045260246000fd5b815260200190815260200160002054146125435780600001600089815260200190815260200160002060010160008860058111156124ba577f4e487b7100000000000000000000000000000000000000000000000000000000600052602160045260246000fd5b60058111156124f2577f4e487b7100000000000000000000000000000000000000000000000000000000600052602160045260246000fd5b8152602001908152602001600020548611612542576040517f08c379a000000000000000000000000000000000000000000000000000000000815260040161253990615178565b60405180910390fd5b5b6201518042612552919061565a565b8160010160008a815260200190815260200160002060008960058111156125a2577f4e487b7100000000000000000000000000000000000000000000000000000000600052602160045260246000fd5b60058111156125da577f4e487b7100000000000000000000000000000000000000000000000000000000600052602160045260246000fd5b815260200190815260200160002060020154108061269057508060010160008981526020019081526020016000206000886005811115612643577f4e487b7100000000000000000000000000000000000000000000000000000000600052602160045260246000fd5b600581111561267b577f4e487b7100000000000000000000000000000000000000000000000000000000600052602160045260246000fd5b81526020019081526020016000206001015486115b6126cf576040517f08c379a00000000000000000000000000000000000000000000000000000000081526004016126c6906151f8565b60405180910390fd5b60008160010160008a81526020019081526020016000206000896005811115612721577f4e487b7100000000000000000000000000000000000000000000000000000000600052602160045260246000fd5b6005811115612759577f4e487b7100000000000000000000000000000000000000000000000000000000600052602160045260246000fd5b815260200190815260200160002060000160009054906101000a900473ffffffffffffffffffffffffffffffffffffffff16905060008260030160008373ffffffffffffffffffffffffffffffffffffffff1673ffffffffffffffffffffffffffffffffffffffff16815260200190815260200160002060008b815260200190815260200160002060008a600581111561281c577f4e487b7100000000000000000000000000000000000000000000000000000000600052602160045260246000fd5b6005811115612854577f4e487b7100000000000000000000000000000000000000000000000000000000600052602160045260246000fd5b8152602001908152602001600020549050600081111561287a576128798983836137e6565b5b60008360030160008473ffffffffffffffffffffffffffffffffffffffff1673ffffffffffffffffffffffffffffffffffffffff16815260200190815260200160002060008c815260200190815260200160002060008b6005811115612909577f4e487b7100000000000000000000000000000000000000000000000000000000600052602160045260246000fd5b6005811115612941577f4e487b7100000000000000000000000000000000000000000000000000000000600052602160045260246000fd5b81526020019081526020016000208190555061295e89338a613da2565b61299d576040517f08c379a000000000000000000000000000000000000000000000000000000000815260040161299490615218565b60405180910390fd5b338360010160008c815260200190815260200160002060008b60058111156129ee577f4e487b7100000000000000000000000000000000000000000000000000000000600052602160045260246000fd5b6005811115612a26577f4e487b7100000000000000000000000000000000000000000000000000000000600052602160045260246000fd5b815260200190815260200160002060000160006101000a81548173ffffffffffffffffffffffffffffffffffffffff021916908373ffffffffffffffffffffffffffffffffffffffff160217905550878360010160008c815260200190815260200160002060008b6005811115612ac6577f4e487b7100000000000000000000000000000000000000000000000000000000600052602160045260246000fd5b6005811115612afe577f4e487b7100000000000000000000000000000000000000000000000000000000600052602160045260246000fd5b815260200190815260200160002060010181905550428360010160008c815260200190815260200160002060008b6005811115612b64577f4e487b7100000000000000000000000000000000000000000000000000000000600052602160045260246000fd5b6005811115612b9c577f4e487b7100000000000000000000000000000000000000000000000000000000600052602160045260246000fd5b815260200190815260200160002060020181905550878360030160003373ffffffffffffffffffffffffffffffffffffffff1673ffffffffffffffffffffffffffffffffffffffff16815260200190815260200160002060008c815260200190815260200160002060008b6005811115612c3f577f4e487b7100000000000000000000000000000000000000000000000000000000600052602160045260246000fd5b6005811115612c77577f4e487b7100000000000000000000000000000000000000000000000000000000600052602160045260246000fd5b8152602001908152602001600020819055507f61e99c5925f0917c808d292f464c28394c472db57c537b76eb60db90a49420ed8b8b338b604051612cbe9493929190615058565b60405180910390a15050505050505050505050565b60008060009054906101000a900473ffffffffffffffffffffffffffffffffffffffff16905090565b612d04613768565b600073ffffffffffffffffffffffffffffffffffffffff168173ffffffffffffffffffffffffffffffffffffffff161415612d74576040517f08c379a0000000000000000000000000000000000000000000000000000000008152600401612d6b906151b8565b60405180910390fd5b612d7d81613cde565b50565b60001515600160008673ffffffffffffffffffffffffffffffffffffffff1673ffffffffffffffffffffffffffffffffffffffff16815260200190815260200160002060040160019054906101000a900460ff16151514612e16576040517f08c379a0000000000000000000000000000000000000000000000000000000008152600401612e0d90615138565b60405180910390fd5b6000600160008673ffffffffffffffffffffffffffffffffffffffff1673ffffffffffffffffffffffffffffffffffffffff1681526020019081526020016000209050838160040160006101000a81548160ff02191690836004811115612ea6577f4e487b7100000000000000000000000000000000000000000000000000000000600052602160045260246000fd5b021790555060018160040160016101000a81548160ff021916908315150217905550828160040160026101000a81548173ffffffffffffffffffffffffffffffffffffffff021916908373ffffffffffffffffffffffffffffffffffffffff1602179055508181600501819055507f11f8cd014e58379583c686140218c2c5d4a9cf8f7c57e152fdfaed66d627c6ed85604051612f439190614f70565b60405180910390a15050505050565b60016020528060005260406000206000915090508060040160009054906101000a900460ff16908060040160019054906101000a900460ff16908060040160029054906101000a900473ffffffffffffffffffffffffffffffffffffffff16908060050154905084565b8360011515600160008373ffffffffffffffffffffffffffffffffffffffff1673ffffffffffffffffffffffffffffffffffffffff16815260200190815260200160002060040160019054906101000a900460ff16151514613053576040517f08c379a000000000000000000000000000000000000000000000000000000000815260040161304a90615278565b60405180910390fd5b838560008190503373ffffffffffffffffffffffffffffffffffffffff168173ffffffffffffffffffffffffffffffffffffffff16636352211e856040518263ffffffff1660e01b81526004016130aa9190615473565b60206040518083038186803b1580156130c257600080fd5b505afa1580156130d6573d6000803e3d6000fd5b505050506040513d601f19601f820116820180604052508101906130fa919061474a565b73ffffffffffffffffffffffffffffffffffffffff161415613151576040517f08c379a0000000000000000000000000000000000000000000000000000000008152600401613148906151d8565b60405180910390fd5b6000600160008a73ffffffffffffffffffffffffffffffffffffffff1673ffffffffffffffffffffffffffffffffffffffff168152602001908152602001600020905060008160000160008a815260200190815260200160002060000160009054906101000a900473ffffffffffffffffffffffffffffffffffffffff169050600073ffffffffffffffffffffffffffffffffffffffff168173ffffffffffffffffffffffffffffffffffffffff161415613241576040517f08c379a0000000000000000000000000000000000000000000000000000000008152600401613238906152f8565b60405180910390fd5b60008a90503073ffffffffffffffffffffffffffffffffffffffff168173ffffffffffffffffffffffffffffffffffffffff1663081812fc8c6040518263ffffffff1660e01b81526004016132969190615473565b60206040518083038186803b1580156132ae57600080fd5b505afa1580156132c2573d6000803e3d6000fd5b505050506040513d601f19601f820116820180604052508101906132e6919061474a565b73ffffffffffffffffffffffffffffffffffffffff16146133ca578260000160008b8152602001908152602001600020600080820160006101000a81549073ffffffffffffffffffffffffffffffffffffffff02191690555050898b73ffffffffffffffffffffffffffffffffffffffff167fce00375f5a3b9c4a857fc9fa1b243f1af9b10a7db9d2d47227fe8217003c9ad4846040516133879190614f70565b60405180910390a36040517f08c379a00000000000000000000000000000000000000000000000000000000081526004016133c190615298565b60405180910390fd5b60008360000160008c815260200190815260200160002060010160008b600581111561341f577f4e487b7100000000000000000000000000000000000000000000000000000000600052602160045260246000fd5b6005811115613457577f4e487b7100000000000000000000000000000000000000000000000000000000600052602160045260246000fd5b815260200190815260200160002054116134a6576040517f08c379a000000000000000000000000000000000000000000000000000000000815260040161349d90615378565b60405180910390fd5b8260000160008b815260200190815260200160002060010160008a60058111156134f9577f4e487b7100000000000000000000000000000000000000000000000000000000600052602160045260246000fd5b6005811115613531577f4e487b7100000000000000000000000000000000000000000000000000000000600052602160045260246000fd5b815260200190815260200160002054881015613582576040517f08c379a000000000000000000000000000000000000000000000000000000000815260040161357990615418565b60405180910390fd5b600015156135948c8c8c33878e613f2c565b151514156135d7576040517f08c379a00000000000000000000000000000000000000000000000000000000081526004016135ce90615398565b60405180910390fd5b878360020160008c815260200190815260200160002060000181905550888360020160008c815260200190815260200160002060010160006101000a81548160ff02191690836005811115613655577f4e487b7100000000000000000000000000000000000000000000000000000000600052602160045260246000fd5b02179055508073ffffffffffffffffffffffffffffffffffffffff166342842e0e83338d6040518463ffffffff1660e01b815260040161369793929190614ff8565b600060405180830381600087803b1580156136b157600080fd5b505af11580156136c5573d6000803e3d6000fd5b505050508260000160008b8152602001908152602001600020600080820160006101000a81549073ffffffffffffffffffffffffffffffffffffffff02191690555050898b73ffffffffffffffffffffffffffffffffffffffff167f3644379fe03acf3b2db463b2b1fb79bfa0a162795d0e7bb0c8a999bd98db813584338c60405161375393929190614ff8565b60405180910390a35050505050505050505050565b613770614416565b73ffffffffffffffffffffffffffffffffffffffff1661378e612cd3565b73ffffffffffffffffffffffffffffffffffffffff16146137e4576040517f08c379a00000000000000000000000000000000000000000000000000000000081526004016137db906152b8565b60405180910390fd5b565b6000600260009054906101000a900473ffffffffffffffffffffffffffffffffffffffff1673ffffffffffffffffffffffffffffffffffffffff1663dcaf421b856040518263ffffffff1660e01b815260040161384391906150b8565b60206040518083038186803b15801561385b57600080fd5b505afa15801561386f573d6000803e3d6000fd5b505050506040513d601f19601f820116820180604052508101906138939190614965565b90508073ffffffffffffffffffffffffffffffffffffffff1663a9059cbb84846040518363ffffffff1660e01b81526004016138d092919061502f565b602060405180830381600087803b1580156138ea57600080fd5b505af11580156138fe573d6000803e3d6000fd5b505050506040513d601f19601f820116820180604052508101906139229190614913565b613961576040517f08c379a000000000000000000000000000000000000000000000000000000000815260040161395890615118565b60405180910390fd5b50505050565b600080600260009054906101000a900473ffffffffffffffffffffffffffffffffffffffff1673ffffffffffffffffffffffffffffffffffffffff1663dcaf421b866040518263ffffffff1660e01b81526004016139c591906150b8565b60206040518083038186803b1580156139dd57600080fd5b505afa1580156139f1573d6000803e3d6000fd5b505050506040513d601f19601f82011682018060405250810190613a159190614965565b90506000613a28846103e8600354610d4a565b9050600080613a378a8761441e565b80925081935050506000818488613a4e919061565a565b613a58919061565a565b90508473ffffffffffffffffffffffffffffffffffffffff1663a9059cbb89836040518363ffffffff1660e01b8152600401613a9592919061502f565b602060405180830381600087803b158015613aaf57600080fd5b505af1158015613ac3573d6000803e3d6000fd5b505050506040513d601f19601f82011682018060405250810190613ae79190614913565b508473ffffffffffffffffffffffffffffffffffffffff1663a9059cbb600460009054906101000a900473ffffffffffffffffffffffffffffffffffffffff16866040518363ffffffff1660e01b8152600401613b45929190614fa6565b602060405180830381600087803b158015613b5f57600080fd5b505af1158015613b73573d6000803e3d6000fd5b505050506040513d601f19601f82011682018060405250810190613b979190614913565b506000821115613c6d578473ffffffffffffffffffffffffffffffffffffffff1663a9059cbb84846040518363ffffffff1660e01b8152600401613bdc92919061502f565b602060405180830381600087803b158015613bf657600080fd5b505af1158015613c0a573d6000803e3d6000fd5b505050506040513d601f19601f82011682018060405250810190613c2e9190614913565b507f5825d7670ca9035e2d333fd7f1cfca7d8e476c3522beb6447f33885ca68a5ed18b8b8585604051613c649493929190615058565b60405180910390a15b7fe1ac6cda82b822e7f388493f39f37748308acbc0a4c3044861e00a2ffaa46f9e878583600460009054906101000a900473ffffffffffffffffffffffffffffffffffffffff16604051613cc494939291906154b7565b60405180910390a160019550505050505095945050505050565b60008060009054906101000a900473ffffffffffffffffffffffffffffffffffffffff169050816000806101000a81548173ffffffffffffffffffffffffffffffffffffffff021916908373ffffffffffffffffffffffffffffffffffffffff1602179055508173ffffffffffffffffffffffffffffffffffffffff168173ffffffffffffffffffffffffffffffffffffffff167f8be0079c531659141344cd1fd0a4f28419497f9722a3daafe3b4186f6b6457e060405160405180910390a35050565b600080600260009054906101000a900473ffffffffffffffffffffffffffffffffffffffff1673ffffffffffffffffffffffffffffffffffffffff1663dcaf421b866040518263ffffffff1660e01b8152600401613e0091906150b8565b60206040518083038186803b158015613e1857600080fd5b505afa158015613e2c573d6000803e3d6000fd5b505050506040513d601f19601f82011682018060405250810190613e509190614965565b90508073ffffffffffffffffffffffffffffffffffffffff166323b872dd8530866040518463ffffffff1660e01b8152600401613e8f93929190614ff8565b602060405180830381600087803b158015613ea957600080fd5b505af1158015613ebd573d6000803e3d6000fd5b505050506040513d601f19601f82011682018060405250810190613ee19190614913565b613f20576040517f08c379a0000000000000000000000000000000000000000000000000000000008152600401613f1790615358565b60405180910390fd5b60019150509392505050565b600080600260009054906101000a900473ffffffffffffffffffffffffffffffffffffffff1673ffffffffffffffffffffffffffffffffffffffff1663dcaf421b876040518263ffffffff1660e01b8152600401613f8a91906150b8565b60206040518083038186803b158015613fa257600080fd5b505afa158015613fb6573d6000803e3d6000fd5b505050506040513d601f19601f82011682018060405250810190613fda9190614965565b905060008173ffffffffffffffffffffffffffffffffffffffff1663dd62ed3e87306040518363ffffffff1660e01b8152600401614019929190614fcf565b60206040518083038186803b15801561403157600080fd5b505afa158015614045573d6000803e3d6000fd5b505050506040513d601f19601f82011682018060405250810190614069919061498e565b90508381101561407e5760009250505061440c565b600061408f856103e8600354610d4a565b905060008061409e8c8861441e565b809250819350505060008184896140b5919061565a565b6140bf919061565a565b90508573ffffffffffffffffffffffffffffffffffffffff166323b872dd8b308b6040518463ffffffff1660e01b81526004016140fe93929190614ff8565b602060405180830381600087803b15801561411857600080fd5b505af115801561412c573d6000803e3d6000fd5b505050506040513d601f19601f820116820180604052508101906141509190614913565b61418f576040517f08c379a000000000000000000000000000000000000000000000000000000000815260040161418690615158565b60405180910390fd5b8573ffffffffffffffffffffffffffffffffffffffff1663a9059cbb8a836040518363ffffffff1660e01b81526004016141ca92919061502f565b602060405180830381600087803b1580156141e457600080fd5b505af11580156141f8573d6000803e3d6000fd5b505050506040513d601f19601f8201168201806040525081019061421c9190614913565b508573ffffffffffffffffffffffffffffffffffffffff1663a9059cbb600460009054906101000a900473ffffffffffffffffffffffffffffffffffffffff16866040518363ffffffff1660e01b815260040161427a929190614fa6565b602060405180830381600087803b15801561429457600080fd5b505af11580156142a8573d6000803e3d6000fd5b505050506040513d601f19601f820116820180604052508101906142cc9190614913565b5060008211156143a2578573ffffffffffffffffffffffffffffffffffffffff1663a9059cbb84846040518363ffffffff1660e01b815260040161431192919061502f565b602060405180830381600087803b15801561432b57600080fd5b505af115801561433f573d6000803e3d6000fd5b505050506040513d601f19601f820116820180604052508101906143639190614913565b507f5825d7670ca9035e2d333fd7f1cfca7d8e476c3522beb6447f33885ca68a5ed18d8d85856040516143999493929190615058565b60405180910390a15b7fe1ac6cda82b822e7f388493f39f37748308acbc0a4c3044861e00a2ffaa46f9e888583600460009054906101000a900473ffffffffffffffffffffffffffffffffffffffff166040516143f994939291906154b7565b60405180910390a1600196505050505050505b9695505050505050565b600033905090565b6000806000600160008673ffffffffffffffffffffffffffffffffffffffff1673ffffffffffffffffffffffffffffffffffffffff16815260200190815260200160002060040160009054906101000a900460ff169050600060048111156144af577f4e487b7100000000000000000000000000000000000000000000000000000000600052602160045260246000fd5b8160048111156144e8577f4e487b7100000000000000000000000000000000000000000000000000000000600052602160045260246000fd5b141561452957600460009054906101000a900473ffffffffffffffffffffffffffffffffffffffff169250614522846103e8600354610d4a565b91506145a8565b6000600160008773ffffffffffffffffffffffffffffffffffffffff1673ffffffffffffffffffffffffffffffffffffffff16815260200190815260200160002090508060040160029054906101000a900473ffffffffffffffffffffffffffffffffffffffff1693506145a4856103e88360050154610d4a565b9250505b509250929050565b6040518060600160405280600073ffffffffffffffffffffffffffffffffffffffff16815260200160008152602001600081525090565b60006145fa6145f584615521565b6154fc565b90508281526020810184848401111561461257600080fd5b61461d8482856157a6565b509392505050565b60008135905061463481615f57565b92915050565b60008151905061464981615f57565b92915050565b60008135905061465e81615f6e565b92915050565b60008151905061467381615f85565b92915050565b60008135905061468881615f9c565b92915050565b60008151905061469d81615fb3565b92915050565b6000813590506146b281615fca565b92915050565b6000813590506146c781615fda565b92915050565b600082601f8301126146de57600080fd5b81356146ee8482602086016145e7565b91505092915050565b60008135905061470681615fea565b92915050565b60008151905061471b81615fea565b92915050565b60006020828403121561473357600080fd5b600061474184828501614625565b91505092915050565b60006020828403121561475c57600080fd5b600061476a8482850161463a565b91505092915050565b60008060006060848603121561478857600080fd5b600061479686828701614625565b93505060206147a78682870161464f565b92505060406147b8868287016146f7565b9150509250925092565b600080600080608085870312156147d857600080fd5b60006147e687828801614625565b94505060206147f7878288016146b8565b93505060406148088782880161464f565b9250506060614819878288016146f7565b91505092959194509250565b6000806040838503121561483857600080fd5b600061484685828601614625565b9250506020614857858286016146f7565b9150509250929050565b60008060006060848603121561487657600080fd5b600061488486828701614625565b9350506020614895868287016146f7565b92505060406148a6868287016146a3565b9150509250925092565b600080600080608085870312156148c657600080fd5b60006148d487828801614625565b94505060206148e5878288016146f7565b93505060406148f6878288016146a3565b9250506060614907878288016146f7565b91505092959194509250565b60006020828403121561492557600080fd5b600061493384828501614664565b91505092915050565b60006020828403121561494e57600080fd5b600061495c84828501614679565b91505092915050565b60006020828403121561497757600080fd5b60006149858482850161468e565b91505092915050565b6000602082840312156149a057600080fd5b60006149ae8482850161470c565b91505092915050565b600080604083850312156149ca57600080fd5b60006149d8858286016146f7565b92505060206149e98582860161464f565b9150509250929050565b600080600080600060a08688031215614a0b57600080fd5b6000614a19888289016146f7565b9550506020614a2a888289016146f7565b9450506040614a3b88828901614625565b9350506060614a4c888289016146a3565b925050608086013567ffffffffffffffff811115614a6957600080fd5b614a75888289016146cd565b9150509295509295909350565b600080600060608486031215614a9757600080fd5b6000614aa5868287016146f7565b9350506020614ab6868287016146f7565b9250506040614ac7868287016146f7565b9150509250925092565b614ada8161574c565b82525050565b614ae9816156a0565b82525050565b614af88161568e565b82525050565b614b078161568e565b82525050565b614b16816156b2565b82525050565b614b258161575e565b82525050565b614b3481615770565b82525050565b6000614b4582615552565b614b4f818561556e565b9350614b5f8185602086016157b5565b80840191505092915050565b6000614b7860118361555d565b9150614b8382615917565b602082019050919050565b6000614b9b60208361555d565b9150614ba682615940565b602082019050919050565b6000614bbe60358361555d565b9150614bc982615969565b604082019050919050565b6000614be160288361555d565b9150614bec826159b8565b604082019050919050565b6000614c04600d8361555d565b9150614c0f82615a07565b602082019050919050565b6000614c2760268361555d565b9150614c3282615a30565b604082019050919050565b6000614c4a60208361555d565b9150614c5582615a7f565b602082019050919050565b6000614c6d60288361555d565b9150614c7882615aa8565b604082019050919050565b6000614c9060338361555d565b9150614c9b82615af7565b604082019050919050565b6000614cb3600c8361555d565b9150614cbe82615b46565b602082019050919050565b6000614cd6601c8361555d565b9150614ce182615b6f565b602082019050919050565b6000614cf9602c8361555d565b9150614d0482615b98565b604082019050919050565b6000614d1c60128361555d565b9150614d2782615be7565b602082019050919050565b6000614d3f60208361555d565b9150614d4a82615c10565b602082019050919050565b6000614d6260338361555d565b9150614d6d82615c39565b604082019050919050565b6000614d8560148361555d565b9150614d9082615c88565b602082019050919050565b6000614da8600c8361555d565b9150614db382615cb1565b602082019050919050565b6000614dcb60158361555d565b9150614dd682615cda565b602082019050919050565b6000614dee60458361555d565b9150614df982615d03565b606082019050919050565b6000614e1160478361555d565b9150614e1c82615d78565b606082019050919050565b6000614e34603a8361555d565b9150614e3f82615ded565b604082019050919050565b6000614e5760098361555d565b9150614e6282615e3c565b602082019050919050565b6000614e7a600a8361555d565b9150614e8582615e65565b602082019050919050565b6000614e9d600f8361555d565b9150614ea882615e8e565b602082019050919050565b6000614ec060258361555d565b9150614ecb82615eb7565b604082019050919050565b6000614ee3601d8361555d565b9150614eee82615f06565b602082019050919050565b606082016000820151614f0f6000850182614aef565b506020820151614f226020850182614f3b565b506040820151614f356040850182614f3b565b50505050565b614f4481615742565b82525050565b614f5381615742565b82525050565b6000614f658284614b3a565b915081905092915050565b6000602082019050614f856000830184614afe565b92915050565b6000602082019050614fa06000830184614ae0565b92915050565b6000604082019050614fbb6000830185614ad1565b614fc86020830184614f4a565b9392505050565b6000604082019050614fe46000830185614afe565b614ff16020830184614afe565b9392505050565b600060608201905061500d6000830186614afe565b61501a6020830185614afe565b6150276040830184614f4a565b949350505050565b60006040820190506150446000830185614afe565b6150516020830184614f4a565b9392505050565b600060808201905061506d6000830187614afe565b61507a6020830186614f4a565b6150876040830185614afe565b6150946060830184614f4a565b95945050505050565b60006020820190506150b26000830184614b0d565b92915050565b60006020820190506150cd6000830184614b1c565b92915050565b60006080820190506150e86000830187614b2b565b6150f56020830186614b0d565b6151026040830185614ae0565b61510f6060830184614f4a565b95945050505050565b6000602082019050818103600083015261513181614b6b565b9050919050565b6000602082019050818103600083015261515181614b8e565b9050919050565b6000602082019050818103600083015261517181614bb1565b9050919050565b6000602082019050818103600083015261519181614bd4565b9050919050565b600060208201905081810360008301526151b181614bf7565b9050919050565b600060208201905081810360008301526151d181614c1a565b9050919050565b600060208201905081810360008301526151f181614c3d565b9050919050565b6000602082019050818103600083015261521181614c60565b9050919050565b6000602082019050818103600083015261523181614c83565b9050919050565b6000602082019050818103600083015261525181614ca6565b9050919050565b6000602082019050818103600083015261527181614cc9565b9050919050565b6000602082019050818103600083015261529181614cec565b9050919050565b600060208201905081810360008301526152b181614d0f565b9050919050565b600060208201905081810360008301526152d181614d32565b9050919050565b600060208201905081810360008301526152f181614d55565b9050919050565b6000602082019050818103600083015261531181614d78565b9050919050565b6000602082019050818103600083015261533181614d9b565b9050919050565b6000602082019050818103600083015261535181614dbe565b9050919050565b6000602082019050818103600083015261537181614de1565b9050919050565b6000602082019050818103600083015261539181614e04565b9050919050565b600060208201905081810360008301526153b181614e27565b9050919050565b600060208201905081810360008301526153d181614e4a565b9050919050565b600060208201905081810360008301526153f181614e6d565b9050919050565b6000602082019050818103600083015261541181614e90565b9050919050565b6000602082019050818103600083015261543181614eb3565b9050919050565b6000602082019050818103600083015261545181614ed6565b9050919050565b600060608201905061546d6000830184614ef9565b92915050565b60006020820190506154886000830184614f4a565b92915050565b60006040820190506154a36000830185614f4a565b6154b06020830184614b1c565b9392505050565b60006080820190506154cc6000830187614f4a565b6154d96020830186614f4a565b6154e66040830185614f4a565b6154f36060830184614ad1565b95945050505050565b6000615506615517565b905061551282826157e8565b919050565b6000604051905090565b600067ffffffffffffffff82111561553c5761553b6158d7565b5b61554582615906565b9050602081019050919050565b600081519050919050565b600082825260208201905092915050565b600081905092915050565b600061558482615742565b915061558f83615742565b9250827fffffffffffffffffffffffffffffffffffffffffffffffffffffffffffffffff038211156155c4576155c361584a565b5b828201905092915050565b60006155da82615742565b91506155e583615742565b9250826155f5576155f4615879565b5b828204905092915050565b600061560b82615742565b915061561683615742565b9250817fffffffffffffffffffffffffffffffffffffffffffffffffffffffffffffffff048311821515161561564f5761564e61584a565b5b828202905092915050565b600061566582615742565b915061567083615742565b9250828210156156835761568261584a565b5b828203905092915050565b600061569982615722565b9050919050565b60006156ab82615722565b9050919050565b60008115159050919050565b60007fffffffff0000000000000000000000000000000000000000000000000000000082169050919050565b60006156f58261568e565b9050919050565b600081905061570a82615f2f565b919050565b600081905061571d82615f43565b919050565b600073ffffffffffffffffffffffffffffffffffffffff82169050919050565b6000819050919050565b600061575782615782565b9050919050565b6000615769826156fc565b9050919050565b600061577b8261570f565b9050919050565b600061578d82615794565b9050919050565b600061579f82615722565b9050919050565b82818337600083830152505050565b60005b838110156157d35780820151818401526020810190506157b8565b838111156157e2576000848401525b50505050565b6157f182615906565b810181811067ffffffffffffffff821117156158105761580f6158d7565b5b80604052505050565b600061582482615742565b915061582f83615742565b92508261583f5761583e615879565b5b828206905092915050565b7f4e487b7100000000000000000000000000000000000000000000000000000000600052601160045260246000fd5b7f4e487b7100000000000000000000000000000000000000000000000000000000600052601260045260246000fd5b7f4e487b7100000000000000000000000000000000000000000000000000000000600052602160045260246000fd5b7f4e487b7100000000000000000000000000000000000000000000000000000000600052604160045260246000fd5b6000601f19601f8301169050919050565b7f43616e27742073656e6420726566756e64000000000000000000000000000000600082015250565b7f4d61726b6574706c61636520697320616c726561647920736574746564207570600082015250565b7f7472616e7366657246726f6d20627579657220746f206d6574616d61726b657460008201527f706c61636520636f6e7472616374206661696c65640000000000000000000000602082015250565b7f53656c6c206f726465722061742074686973207072696365206f72206c6f776560008201527f7220657869737473000000000000000000000000000000000000000000000000602082015250565b7f4e6f2073616c65206f6666657200000000000000000000000000000000000000600082015250565b7f4f776e61626c653a206e6577206f776e657220697320746865207a65726f206160008201527f6464726573730000000000000000000000000000000000000000000000000000602082015250565b7f596f752063616e277420627579206e66742066726f6d20796f757273656c6621600082015250565b7f50726576696f757320627579206f6666657220686967686572206f72206e6f7460008201527f2065787069726564000000000000000000000000000000000000000000000000602082015250565b7f63616e27742070756c6c2066756e64732066726f6d20627579657220746f204d60008201527f61726b6574706c61636520636f6e747261637400000000000000000000000000602082015250565b7f4e6f7420617070726f7665640000000000000000000000000000000000000000600082015250565b7f4d61726b6574706c616365206973206e6f742065786973742079657400000000600082015250565b7f4d61726b6574706c61636520666f72207468697320746f6b656e206973206e6f60008201527f7420736574757020796574210000000000000000000000000000000000000000602082015250565b7f496e76616c69642073656c6c206f666665720000000000000000000000000000600082015250565b7f4f776e61626c653a2063616c6c6572206973206e6f7420746865206f776e6572600082015250565b7f4d61726b6574706c61636520666f722074686973206e66745f636f6e7472616360008201527f74206973206e6f74207365747570207965742100000000000000000000000000602082015250565b7f4e6f206163746976652073656c6c206f66666572000000000000000000000000600082015250565b7f4e6f20627579206f666665720000000000000000000000000000000000000000600082015250565b7f427579206f66666572206e6f7420657870697265640000000000000000000000600082015250565b7f7472616e7366657246726f6d20627579657220746f206d6574616d61726b657460008201527f706c61636520636f6e7472616374206661696c65642c20636865636b2061707060208201527f726f76616c000000000000000000000000000000000000000000000000000000604082015250565b7f707269636520666f7220746869732063757272656e637920686173206e6f742060008201527f6265656e207365747465642c20757365206d616b654275794f6666657228292060208201527f696e737465616400000000000000000000000000000000000000000000000000604082015250565b7f417070726f76656420616d6f756e74206973206c6573736572207468616e202860008201527f6269645f70726963655f29206e656564656420746f206465616c000000000000602082015250565b7f4e6f742062757965720000000000000000000000000000000000000000000000600082015250565b7f4e6f742073656c6c657200000000000000000000000000000000000000000000600082015250565b7f4e6f7420746f6b656e206f776e65720000000000000000000000000000000000600082015250565b7f42696420616d6f756e74206c6573736572207468616e2064657369726564207060008201527f7269636521000000000000000000000000000000000000000000000000000000602082015250565b7f43616e277420666f72776172642066756e647320746f2073656c6c6572000000600082015250565b60068110615f4057615f3f6158a8565b5b50565b60058110615f5457615f536158a8565b5b50565b615f608161568e565b8114615f6b57600080fd5b50565b615f77816156a0565b8114615f8257600080fd5b50565b615f8e816156b2565b8114615f9957600080fd5b50565b615fa5816156be565b8114615fb057600080fd5b50565b615fbc816156ea565b8114615fc757600080fd5b50565b60068110615fd757600080fd5b50565b60058110615fe757600080fd5b50565b615ff381615742565b8114615ffe57600080fd5b5056fea2646970667358221220f8297d89b0c349ce751885381c8a10e5166fdb14e45197e07ef1fc45efcab1ee64736f6c63430008040033",
  "linkReferences": {},
  "deployedLinkReferences": {}
}